{
  "_format": "hh-sol-artifact-1",
  "contractName": "CertificateNFTBase",
  "sourceName": "contracts/CertificateNFTBase.sol",
  "abi": [
    {
      "inputs": [],
      "stateMutability": "nonpayable",
      "type": "constructor"
    },
    {
      "inputs": [],
      "name": "AccessControlBadConfirmation",
      "type": "error"
    },
    {
      "inputs": [
        {
          "internalType": "address",
          "name": "account",
          "type": "address"
        },
        {
          "internalType": "bytes32",
          "name": "neededRole",
          "type": "bytes32"
        }
      ],
      "name": "AccessControlUnauthorizedAccount",
      "type": "error"
    },
    {
      "inputs": [
        {
          "internalType": "address",
          "name": "caller",
          "type": "address"
        }
      ],
      "name": "CallerNotInstitution",
      "type": "error"
    },
    {
      "inputs": [
        {
          "internalType": "address",
          "name": "caller",
          "type": "address"
        }
      ],
      "name": "CallerNotInstructor",
      "type": "error"
    },
    {
      "inputs": [],
      "name": "ERC721EnumerableForbiddenBatchMint",
      "type": "error"
    },
    {
      "inputs": [
        {
          "internalType": "address",
          "name": "sender",
          "type": "address"
        },
        {
          "internalType": "uint256",
          "name": "tokenId",
          "type": "uint256"
        },
        {
          "internalType": "address",
          "name": "owner",
          "type": "address"
        }
      ],
      "name": "ERC721IncorrectOwner",
      "type": "error"
    },
    {
      "inputs": [
        {
          "internalType": "address",
          "name": "operator",
          "type": "address"
        },
        {
          "internalType": "uint256",
          "name": "tokenId",
          "type": "uint256"
        }
      ],
      "name": "ERC721InsufficientApproval",
      "type": "error"
    },
    {
      "inputs": [
        {
          "internalType": "address",
          "name": "approver",
          "type": "address"
        }
      ],
      "name": "ERC721InvalidApprover",
      "type": "error"
    },
    {
      "inputs": [
        {
          "internalType": "address",
          "name": "operator",
          "type": "address"
        }
      ],
      "name": "ERC721InvalidOperator",
      "type": "error"
    },
    {
      "inputs": [
        {
          "internalType": "address",
          "name": "owner",
          "type": "address"
        }
      ],
      "name": "ERC721InvalidOwner",
      "type": "error"
    },
    {
      "inputs": [
        {
          "internalType": "address",
          "name": "receiver",
          "type": "address"
        }
      ],
      "name": "ERC721InvalidReceiver",
      "type": "error"
    },
    {
      "inputs": [
        {
          "internalType": "address",
          "name": "sender",
          "type": "address"
        }
      ],
      "name": "ERC721InvalidSender",
      "type": "error"
    },
    {
      "inputs": [
        {
          "internalType": "uint256",
          "name": "tokenId",
          "type": "uint256"
        }
      ],
      "name": "ERC721NonexistentToken",
      "type": "error"
    },
    {
      "inputs": [
        {
          "internalType": "address",
          "name": "owner",
          "type": "address"
        },
        {
          "internalType": "uint256",
          "name": "index",
          "type": "uint256"
        }
      ],
      "name": "ERC721OutOfBoundsIndex",
      "type": "error"
    },
    {
      "inputs": [
        {
          "internalType": "address",
          "name": "owner",
          "type": "address"
        }
      ],
      "name": "OwnableInvalidOwner",
      "type": "error"
    },
    {
      "inputs": [
        {
          "internalType": "address",
          "name": "account",
          "type": "address"
        }
      ],
      "name": "OwnableUnauthorizedAccount",
      "type": "error"
    },
    {
      "inputs": [
        {
          "internalType": "uint256",
          "name": "tokenId",
          "type": "uint256"
        }
      ],
      "name": "SoulboundTokenCannotBeTransferred",
      "type": "error"
    },
    {
      "anonymous": false,
      "inputs": [
        {
          "indexed": true,
          "internalType": "address",
          "name": "owner",
          "type": "address"
        },
        {
          "indexed": true,
          "internalType": "address",
          "name": "approved",
          "type": "address"
        },
        {
          "indexed": true,
          "internalType": "uint256",
          "name": "tokenId",
          "type": "uint256"
        }
      ],
      "name": "Approval",
      "type": "event"
    },
    {
      "anonymous": false,
      "inputs": [
        {
          "indexed": true,
          "internalType": "address",
          "name": "owner",
          "type": "address"
        },
        {
          "indexed": true,
          "internalType": "address",
          "name": "operator",
          "type": "address"
        },
        {
          "indexed": false,
          "internalType": "bool",
          "name": "approved",
          "type": "bool"
        }
      ],
      "name": "ApprovalForAll",
      "type": "event"
    },
    {
      "anonymous": false,
      "inputs": [
        {
          "indexed": false,
          "internalType": "uint256",
          "name": "_fromTokenId",
          "type": "uint256"
        },
        {
          "indexed": false,
          "internalType": "uint256",
          "name": "_toTokenId",
          "type": "uint256"
        }
      ],
      "name": "BatchMetadataUpdate",
      "type": "event"
    },
    {
      "anonymous": false,
      "inputs": [
        {
          "indexed": true,
          "internalType": "uint256",
          "name": "tokenId",
          "type": "uint256"
        },
        {
          "indexed": true,
          "internalType": "address",
          "name": "student",
          "type": "address"
        },
        {
          "indexed": true,
          "internalType": "address",
          "name": "institution",
          "type": "address"
        },
        {
          "indexed": false,
          "internalType": "uint256",
          "name": "courseId",
          "type": "uint256"
        },
        {
          "indexed": false,
          "internalType": "uint256",
          "name": "completionDate",
          "type": "uint256"
        },
        {
          "indexed": false,
          "internalType": "uint256",
          "name": "grade",
          "type": "uint256"
        }
      ],
      "name": "CertificateIssued",
      "type": "event"
    },
    {
      "anonymous": false,
      "inputs": [
        {
          "indexed": true,
          "internalType": "uint256",
          "name": "tokenId",
          "type": "uint256"
        },
        {
          "indexed": true,
          "internalType": "address",
          "name": "revoker",
          "type": "address"
        },
        {
          "indexed": false,
          "internalType": "string",
          "name": "reason",
          "type": "string"
        }
      ],
      "name": "CertificateRevoked",
      "type": "event"
    },
    {
      "anonymous": false,
      "inputs": [
        {
          "indexed": true,
          "internalType": "uint256",
          "name": "tokenId",
          "type": "uint256"
        },
        {
          "indexed": false,
          "internalType": "bool",
          "name": "isVerified",
          "type": "bool"
        },
        {
          "indexed": false,
          "internalType": "bool",
          "name": "isRevoked",
          "type": "bool"
        },
        {
          "indexed": true,
          "internalType": "address",
          "name": "updatedBy",
          "type": "address"
        },
        {
          "indexed": false,
          "internalType": "uint256",
          "name": "timestamp",
          "type": "uint256"
        }
      ],
      "name": "CertificateStatusChanged",
      "type": "event"
    },
    {
      "anonymous": false,
      "inputs": [
        {
          "indexed": true,
          "internalType": "uint256",
          "name": "tokenId",
          "type": "uint256"
        },
        {
          "indexed": false,
          "internalType": "uint256",
          "name": "newGrade",
          "type": "uint256"
        },
        {
          "indexed": false,
          "internalType": "string",
          "name": "updateReason",
          "type": "string"
        }
      ],
      "name": "CertificateUpdated",
      "type": "event"
    },
    {
      "anonymous": false,
      "inputs": [
        {
          "indexed": true,
          "internalType": "uint256",
          "name": "tokenId",
          "type": "uint256"
        },
        {
          "indexed": true,
          "internalType": "address",
          "name": "verifier",
          "type": "address"
        }
      ],
      "name": "CertificateVerified",
      "type": "event"
    },
    {
      "anonymous": false,
      "inputs": [
        {
          "indexed": true,
          "internalType": "address",
          "name": "institution",
          "type": "address"
        }
      ],
      "name": "InstitutionAuthorized",
      "type": "event"
    },
    {
      "anonymous": false,
      "inputs": [
        {
          "indexed": true,
          "internalType": "address",
          "name": "institution",
          "type": "address"
        }
      ],
      "name": "InstitutionRevoked",
      "type": "event"
    },
    {
      "anonymous": false,
      "inputs": [
        {
          "indexed": false,
          "internalType": "uint256",
          "name": "_tokenId",
          "type": "uint256"
        }
      ],
      "name": "MetadataUpdate",
      "type": "event"
    },
    {
      "anonymous": false,
      "inputs": [
        {
          "indexed": true,
          "internalType": "address",
          "name": "previousOwner",
          "type": "address"
        },
        {
          "indexed": true,
          "internalType": "address",
          "name": "newOwner",
          "type": "address"
        }
      ],
      "name": "OwnershipTransferred",
      "type": "event"
    },
    {
      "anonymous": false,
      "inputs": [
        {
          "indexed": true,
          "internalType": "bytes32",
          "name": "role",
          "type": "bytes32"
        },
        {
          "indexed": true,
          "internalType": "bytes32",
          "name": "previousAdminRole",
          "type": "bytes32"
        },
        {
          "indexed": true,
          "internalType": "bytes32",
          "name": "newAdminRole",
          "type": "bytes32"
        }
      ],
      "name": "RoleAdminChanged",
      "type": "event"
    },
    {
      "anonymous": false,
      "inputs": [
        {
          "indexed": true,
          "internalType": "bytes32",
          "name": "role",
          "type": "bytes32"
        },
        {
          "indexed": true,
          "internalType": "address",
          "name": "account",
          "type": "address"
        },
        {
          "indexed": true,
          "internalType": "address",
          "name": "sender",
          "type": "address"
        }
      ],
      "name": "RoleGranted",
      "type": "event"
    },
    {
      "anonymous": false,
      "inputs": [
        {
          "indexed": true,
          "internalType": "bytes32",
          "name": "role",
          "type": "bytes32"
        },
        {
          "indexed": true,
          "internalType": "address",
          "name": "account",
          "type": "address"
        },
        {
          "indexed": true,
          "internalType": "address",
          "name": "sender",
          "type": "address"
        }
      ],
      "name": "RoleRevoked",
      "type": "event"
    },
    {
      "anonymous": false,
      "inputs": [
        {
          "indexed": true,
          "internalType": "address",
          "name": "from",
          "type": "address"
        },
        {
          "indexed": true,
          "internalType": "address",
          "name": "to",
          "type": "address"
        },
        {
          "indexed": true,
          "internalType": "uint256",
          "name": "tokenId",
          "type": "uint256"
        }
      ],
      "name": "Transfer",
      "type": "event"
    },
    {
      "inputs": [],
      "name": "DEFAULT_ADMIN_ROLE",
      "outputs": [
        {
          "internalType": "bytes32",
          "name": "",
          "type": "bytes32"
        }
      ],
      "stateMutability": "view",
      "type": "function"
    },
    {
      "inputs": [],
      "name": "INSTITUTION_ROLE",
      "outputs": [
        {
          "internalType": "bytes32",
          "name": "",
          "type": "bytes32"
        }
      ],
      "stateMutability": "view",
      "type": "function"
    },
    {
      "inputs": [],
      "name": "INSTRUCTOR_ROLE",
      "outputs": [
        {
          "internalType": "bytes32",
          "name": "",
          "type": "bytes32"
        }
      ],
      "stateMutability": "view",
      "type": "function"
    },
    {
      "inputs": [
        {
          "internalType": "uint256",
          "name": "",
          "type": "uint256"
        }
      ],
      "name": "academicCertificates",
      "outputs": [
        {
          "internalType": "address",
          "name": "studentAddress",
          "type": "address"
        },
        {
          "internalType": "address",
          "name": "institutionAddress",
          "type": "address"
        },
        {
          "internalType": "uint256",
          "name": "courseId",
          "type": "uint256"
        },
        {
          "internalType": "uint256",
          "name": "completionDate",
          "type": "uint256"
        },
        {
          "internalType": "uint256",
          "name": "grade",
          "type": "uint256"
        },
        {
          "internalType": "bool",
          "name": "isVerified",
          "type": "bool"
        },
        {
          "internalType": "string",
          "name": "certificateHash",
          "type": "string"
        },
        {
          "internalType": "bool",
          "name": "isRevoked",
          "type": "bool"
        },
        {
          "internalType": "string",
          "name": "revocationReason",
          "type": "string"
        },
        {
          "internalType": "uint256",
          "name": "version",
          "type": "uint256"
        },
        {
          "internalType": "uint256",
          "name": "lastUpdateDate",
          "type": "uint256"
        },
        {
          "internalType": "string",
          "name": "updateReason",
          "type": "string"
        }
      ],
      "stateMutability": "view",
      "type": "function"
    },
    {
      "inputs": [
        {
          "internalType": "address",
          "name": "to",
          "type": "address"
        },
        {
          "internalType": "uint256",
          "name": "tokenId",
          "type": "uint256"
        }
      ],
      "name": "approve",
      "outputs": [],
      "stateMutability": "nonpayable",
      "type": "function"
    },
    {
      "inputs": [
        {
          "internalType": "address",
          "name": "",
          "type": "address"
        }
      ],
      "name": "authorizedInstitutions",
      "outputs": [
        {
          "internalType": "bool",
          "name": "",
          "type": "bool"
        }
      ],
      "stateMutability": "view",
      "type": "function"
    },
    {
      "inputs": [
        {
          "internalType": "address",
          "name": "owner",
          "type": "address"
        }
      ],
      "name": "balanceOf",
      "outputs": [
        {
          "internalType": "uint256",
          "name": "",
          "type": "uint256"
        }
      ],
      "stateMutability": "view",
      "type": "function"
    },
    {
      "inputs": [
        {
          "internalType": "uint256",
          "name": "",
          "type": "uint256"
        }
      ],
      "name": "courseNames",
      "outputs": [
        {
          "internalType": "string",
          "name": "",
          "type": "string"
        }
      ],
      "stateMutability": "view",
      "type": "function"
    },
    {
      "inputs": [
        {
          "internalType": "uint256",
          "name": "tokenId",
          "type": "uint256"
        }
      ],
      "name": "getApproved",
      "outputs": [
        {
          "internalType": "address",
          "name": "",
          "type": "address"
        }
      ],
      "stateMutability": "view",
      "type": "function"
    },
    {
      "inputs": [
        {
          "internalType": "bytes32",
          "name": "role",
          "type": "bytes32"
        }
      ],
      "name": "getRoleAdmin",
      "outputs": [
        {
          "internalType": "bytes32",
          "name": "",
          "type": "bytes32"
        }
      ],
      "stateMutability": "view",
      "type": "function"
    },
    {
      "inputs": [
        {
          "internalType": "bytes32",
          "name": "role",
          "type": "bytes32"
        },
        {
          "internalType": "address",
          "name": "account",
          "type": "address"
        }
      ],
      "name": "grantRole",
      "outputs": [],
      "stateMutability": "nonpayable",
      "type": "function"
    },
    {
      "inputs": [
        {
          "internalType": "bytes32",
          "name": "role",
          "type": "bytes32"
        },
        {
          "internalType": "address",
          "name": "account",
          "type": "address"
        }
      ],
      "name": "hasRole",
      "outputs": [
        {
          "internalType": "bool",
          "name": "",
          "type": "bool"
        }
      ],
      "stateMutability": "view",
      "type": "function"
    },
    {
      "inputs": [
        {
          "internalType": "address",
          "name": "owner",
          "type": "address"
        },
        {
          "internalType": "address",
          "name": "operator",
          "type": "address"
        }
      ],
      "name": "isApprovedForAll",
      "outputs": [
        {
          "internalType": "bool",
          "name": "",
          "type": "bool"
        }
      ],
      "stateMutability": "view",
      "type": "function"
    },
    {
      "inputs": [],
      "name": "name",
      "outputs": [
        {
          "internalType": "string",
          "name": "",
          "type": "string"
        }
      ],
      "stateMutability": "view",
      "type": "function"
    },
    {
      "inputs": [],
      "name": "owner",
      "outputs": [
        {
          "internalType": "address",
          "name": "",
          "type": "address"
        }
      ],
      "stateMutability": "view",
      "type": "function"
    },
    {
      "inputs": [
        {
          "internalType": "uint256",
          "name": "tokenId",
          "type": "uint256"
        }
      ],
      "name": "ownerOf",
      "outputs": [
        {
          "internalType": "address",
          "name": "",
          "type": "address"
        }
      ],
      "stateMutability": "view",
      "type": "function"
    },
    {
      "inputs": [],
      "name": "renounceOwnership",
      "outputs": [],
      "stateMutability": "nonpayable",
      "type": "function"
    },
    {
      "inputs": [
        {
          "internalType": "bytes32",
          "name": "role",
          "type": "bytes32"
        },
        {
          "internalType": "address",
          "name": "callerConfirmation",
          "type": "address"
        }
      ],
      "name": "renounceRole",
      "outputs": [],
      "stateMutability": "nonpayable",
      "type": "function"
    },
    {
      "inputs": [
        {
          "internalType": "bytes32",
          "name": "role",
          "type": "bytes32"
        },
        {
          "internalType": "address",
          "name": "account",
          "type": "address"
        }
      ],
      "name": "revokeRole",
      "outputs": [],
      "stateMutability": "nonpayable",
      "type": "function"
    },
    {
      "inputs": [
        {
          "internalType": "address",
          "name": "from",
          "type": "address"
        },
        {
          "internalType": "address",
          "name": "to",
          "type": "address"
        },
        {
          "internalType": "uint256",
          "name": "tokenId",
          "type": "uint256"
        }
      ],
      "name": "safeTransferFrom",
      "outputs": [],
      "stateMutability": "nonpayable",
      "type": "function"
    },
    {
      "inputs": [
        {
          "internalType": "address",
          "name": "from",
          "type": "address"
        },
        {
          "internalType": "address",
          "name": "to",
          "type": "address"
        },
        {
          "internalType": "uint256",
          "name": "tokenId",
          "type": "uint256"
        },
        {
          "internalType": "bytes",
          "name": "data",
          "type": "bytes"
        }
      ],
      "name": "safeTransferFrom",
      "outputs": [],
      "stateMutability": "nonpayable",
      "type": "function"
    },
    {
      "inputs": [
        {
          "internalType": "address",
          "name": "operator",
          "type": "address"
        },
        {
          "internalType": "bool",
          "name": "approved",
          "type": "bool"
        }
      ],
      "name": "setApprovalForAll",
      "outputs": [],
      "stateMutability": "nonpayable",
      "type": "function"
    },
    {
      "inputs": [
        {
          "internalType": "bytes4",
          "name": "interfaceId",
          "type": "bytes4"
        }
      ],
      "name": "supportsInterface",
      "outputs": [
        {
          "internalType": "bool",
          "name": "",
          "type": "bool"
        }
      ],
      "stateMutability": "view",
      "type": "function"
    },
    {
      "inputs": [],
      "name": "symbol",
      "outputs": [
        {
          "internalType": "string",
          "name": "",
          "type": "string"
        }
      ],
      "stateMutability": "view",
      "type": "function"
    },
    {
      "inputs": [
        {
          "internalType": "uint256",
          "name": "index",
          "type": "uint256"
        }
      ],
      "name": "tokenByIndex",
      "outputs": [
        {
          "internalType": "uint256",
          "name": "",
          "type": "uint256"
        }
      ],
      "stateMutability": "view",
      "type": "function"
    },
    {
      "inputs": [
        {
          "internalType": "uint256",
          "name": "tokenId",
          "type": "uint256"
        }
      ],
      "name": "tokenExists",
      "outputs": [
        {
          "internalType": "bool",
          "name": "",
          "type": "bool"
        }
      ],
      "stateMutability": "view",
      "type": "function"
    },
    {
      "inputs": [
        {
          "internalType": "address",
          "name": "owner",
          "type": "address"
        },
        {
          "internalType": "uint256",
          "name": "index",
          "type": "uint256"
        }
      ],
      "name": "tokenOfOwnerByIndex",
      "outputs": [
        {
          "internalType": "uint256",
          "name": "",
          "type": "uint256"
        }
      ],
      "stateMutability": "view",
      "type": "function"
    },
    {
      "inputs": [
        {
          "internalType": "uint256",
          "name": "tokenId",
          "type": "uint256"
        }
      ],
      "name": "tokenURI",
      "outputs": [
        {
          "internalType": "string",
          "name": "",
          "type": "string"
        }
      ],
      "stateMutability": "view",
      "type": "function"
    },
    {
      "inputs": [],
      "name": "totalSupply",
      "outputs": [
        {
          "internalType": "uint256",
          "name": "",
          "type": "uint256"
        }
      ],
      "stateMutability": "view",
      "type": "function"
    },
    {
      "inputs": [
        {
          "internalType": "address",
          "name": "from",
          "type": "address"
        },
        {
          "internalType": "address",
          "name": "to",
          "type": "address"
        },
        {
          "internalType": "uint256",
          "name": "tokenId",
          "type": "uint256"
        }
      ],
      "name": "transferFrom",
      "outputs": [],
      "stateMutability": "nonpayable",
      "type": "function"
    },
    {
      "inputs": [
        {
          "internalType": "address",
          "name": "newOwner",
          "type": "address"
        }
      ],
      "name": "transferOwnership",
      "outputs": [],
      "stateMutability": "nonpayable",
      "type": "function"
    },
    {
      "inputs": [
        {
          "internalType": "uint256",
          "name": "",
          "type": "uint256"
        }
      ],
      "name": "verifiedCertificates",
      "outputs": [
        {
          "internalType": "bool",
          "name": "",
          "type": "bool"
        }
      ],
      "stateMutability": "view",
      "type": "function"
    }
  ],
  "bytecode": "0x608060409080825234620003aa575080516001600160401b0391908082018381118282101762000394578252601c81526020907f536f756c626f756e6441636164656d6963436572746966696361746500000000828201528251938385018581108282111762000394578452600685526514d050d1549560d21b83860152815181811162000394576000938454916001948584811c9416801562000389575b8385101462000375578190601f9485811162000322575b508390858311600114620002be578892620002b2575b5050600019600383901b1c191690851b1785555b86519283116200029e5783548481811c9116801562000293575b828210146200027f5782811162000237575b5080918311600114620001d0575083949582939492620001c4575b5050600019600383901b1c191690821b1790555b3315620001ae57600b8054336001600160a01b03198216811790925590916001600160a01b03909116907f8be0079c531659141344cd1fd0a4f28419497f9722a3daafe3b4186f6b6457e09080a36200019333620003f7565b506200019f3362000478565b50516117ba90816200051c8239f35b6024915190631e4fbdf760e01b82526004820152fd5b01519050388062000126565b90601f198316968486528286209286905b8982106200021f57505083859697981062000205575b505050811b0190556200013a565b015160001960f88460031b161c19169055388080620001f7565b808785968294968601518155019501930190620001e1565b8486528186208380860160051c82019284871062000275575b0160051c019085905b828110620002695750506200010b565b87815501859062000259565b9250819262000250565b634e487b7160e01b86526022600452602486fd5b90607f1690620000f9565b634e487b7160e01b85526041600452602485fd5b015190503880620000cb565b8880528489208894509190601f1984168a5b878282106200030b5750508411620002f1575b505050811b018555620000df565b015160001960f88460031b161c19169055388080620002e3565b8385015186558b97909501949384019301620002d0565b9091508780528388208580850160051c8201928686106200036b575b918991869594930160051c01915b8281106200035c575050620000b5565b8a81558594508991016200034c565b925081926200033e565b634e487b7160e01b87526022600452602487fd5b93607f16936200009e565b634e487b7160e01b600052604160045260246000fd5b62461bcd60e51b815260206004820152602260248201527f45746865722073656e7420746f206e6f6e2d70617961626c652066756e63746960448201526137b760f11b6064820152608490fd5b6001600160a01b031660008181527f13649b2456f1b42fef0f0040b3aaeabcd21a76a0f3f5defd4f583839455116e8602052604081205490919060ff166200047457818052600c6020526040822081835260205260408220600160ff19825416179055339160008051602062001cd68339815191528180a4600190565b5090565b6001600160a01b031660008181527fb648ddf3bddf768cd741f6298d8ff7b48ee7bc93e38d035b90b1e0338bc911ce60205260408120549091907f01f18e249044142f95a61b39bad5f99f3c70699c83bb85a1ad87fe9e68bd85d19060ff166200051657808352600c6020526040832082845260205260408320600160ff1982541617905560008051602062001cd6833981519152339380a4600190565b50509056fe60406080815260049081361015610072575b906020608492519162461bcd60e51b8352820152603560248201527f436f6e747261637420646f6573206e6f7420686176652066616c6c6261636b206044820152746e6f7220726563656976652066756e6374696f6e7360581b6064820152fd5b6000803560e01c8062923f9e14610e2457806301ffc9a714610d6157806306fdde0314610cb3578063081812fc14610c79578063095ea7b314610b9c57806316b784fe14610b5e57806318160ddd14610b415780631b929c2114610b0857806323b872dd14610af0578063248a9ca314610ac65780632f2ff15d14610a9c5780632f745c5914610a1957806336568abe146109d357806340f348bf146109a757806342842e0e1461097e5780634f6ccce7146109295780636352211e146108f957806370388b91146107fd57806370a08231146107d1578063715018a6146107745780638bcf979c1461073b5780638da5cb5b1461071457806391d14854146106ce57806395d89b41146105d3578063a217fddf146105b9578063a22cb46514610517578063b88d4fde14610391578063c87b56dd1461033e578063d547741f146102fe578063e59fde15146102be578063e985e9c5146102705763f2fde38b146101dd5750610011565b913461026b576020366003190112610266576101f7610f35565b90610200611758565b6001600160a01b03918216928315610250575050600b80546001600160a01b031981168417909155167f8be0079c531659141344cd1fd0a4f28419497f9722a3daafe3b4186f6b6457e08380a380f35b51631e4fbdf760e01b8152908101849052602490fd5b610ea5565b610e55565b50903461026b57806003193601126102665760ff81602093610290610f35565b610298610f50565b6001600160a01b0391821683526005875283832091168252855220549151911615158152f35b503461026b57602036600319011261026657816102e7916102fa94358152601160205220610fef565b9051918291602083526020830190610ef5565b0390f35b5091903461026b57806003193601126102665761033a91356103356001610323610f50565b93838752600c6020528620015461161d565b6116e1565b5080f35b50903461026b576020366003190112610266576102fa923561035f816115e2565b5082526006602052610372818320610fef565b91815161037e81610f9b565b5251918291602083526020830190610ef5565b50823461026b576080366003190112610266576103ac610f35565b6103b4610f50565b60643567ffffffffffffffff81116104c957366023820112156104725780840135906103df826110c2565b946103ec88519687610fcd565b828652366024848401011161041f57508596508161041c969260246020930183880137850101526044359161143b565b80f35b608490602089519162461bcd60e51b8352820152602760248201527f414249206465636f64696e673a20696e76616c69642062797465206172726179604482015266040d8cadccee8d60cb1b6064820152fd5b855162461bcd60e51b8152602081860152602b60248201527f414249206465636f64696e673a20696e76616c69642063616c6c64617461206160448201526a1c9c985e481bd9999cd95d60aa1b6064820152608490fd5b855162461bcd60e51b8152602081860152602260248201527f414249206465636f64696e673a20696e76616c6964207475706c65206f666673604482015261195d60f21b6064820152608490fd5b5091903461026b578060031936011261026657610532610f35565b90602435918215158093036105b5576001600160a01b03169283156105a05750338452600560205280842083855260205280842060ff1981541660ff8416179055519081527f17307eab39ab6107e8899845ad3d59bd9653f200f220920489ca2b5937696c3160203392a380f35b836024925191630b61174360e31b8352820152fd5b8480fd5b503461026b57806003193601126102665760209151908152f35b503461026b57806003193601126102665781519181600192600154938460011c91600186169586156106c4575b60209687851081146106b1578899509688969785829a52918260001461068a57505060011461064c575b5050506102fa929161063d910385610fcd565b51928284938452830190610ef5565b9190869350600183528383205b828410610672575050508201018161063d6102fa61062a565b8054848a018601528895508794909301928101610659565b60ff19168782015293151560051b8601909301935084925061063d91506102fa905061062a565b634e487b7160e01b835260228a52602483fd5b92607f1692610600565b503461026b5781600319360112610266578160ff916020946106ee610f50565b90358252600c86528282206001600160a01b039091168252855220549151911615158152f35b503461026b5736600319011261026657600b5490516001600160a01b039091168152602090f35b503461026b5736600319011261026657602090517fae4a0595970935aa5495afbbb72e5f1f6ff1062766b4a3028c0c9b7d5cf7e3458152f35b503461026b57806003193601126102665761078d611758565b600b80546001600160a01b0319811690915581906001600160a01b03167f8be0079c531659141344cd1fd0a4f28419497f9722a3daafe3b4186f6b6457e08280a380f35b823461026b576020366003190112610266576020906107f66107f1610f35565b611402565b9051908152f35b5082903461026b57602036600319011261026657829082358152600e6020522090600160a01b600190039081835416916001840154169260028101549260038201549282015490600583015460ff16906006840161085a90610fef565b90600785015460ff16926008860161087190610fef565b94600987015497600a88015497600b0161088a90610fef565b998c519c8d9c8d610180978152602001528c015260608b015260808a0152151560a08901528060c089015287016108c091610ef5565b90151560e08701528581036101008701526108da91610ef5565b916101208501526101408401528281036101608401526102fa91610ef5565b50503461026b57602036600319011261026657610918602092356115e2565b90516001600160a01b039091168152f35b50913461026b5760203660031901126102665780359260095484101561096357602083610955866113d1565b91905490519160031b1c8152f35b6044939192519263295f44f760e21b84528301526024820152fd5b50903461026b5761041c9061099236610f66565b9192519261099f84610f9b565b85845261143b565b503461026b576020366003190112610266578160ff916020943581526010855220541690519015158152f35b50903461026b5780600319360112610266576109ed610f50565b90336001600160a01b03831603610a0a575061033a9192356116e1565b5163334bd91960e11b81528390fd5b503461026b578160031936011261026657610a32610f35565b9260243590610a4085611402565b821015610a7057506001600160a01b03909316815260076020908152828220938252928352819020549051908152f35b925163295f44f760e21b81526001600160a01b0390941692840192835260208301525081906040010390fd5b5091903461026b57806003193601126102665761033a9135610ac16001610323610f50565b611661565b503461026b5760203660031901126102665781600191602094358152600c85522001549051908152f35b503461026b5761041c610b0236610f66565b916110de565b503461026b5736600319011261026657602090517f01f18e249044142f95a61b39bad5f99f3c70699c83bb85a1ad87fe9e68bd85d18152f35b503461026b57366003190112610266576020906009549051908152f35b50903461026b5760203660031901126102665760209160ff9082906001600160a01b03610b89610f35565b168152600f855220541690519015158152f35b5091903461026b578060031936011261026657610bb7610f35565b91602435610bc4816115e2565b33151580610c66575b80610c3d575b610c27576001600160a01b039485169482918691167f8c5be1e5ebec7d5bd14f71427d1e84f3dd0314c0f7b2291e5b200ac8c7c3b9258880a48452602052822080546001600160a01b031916909117905580f35b835163a9fbf51f60e01b81523381850152602490fd5b506001600160a01b03811686526005602090815284872033885290528386205460ff1615610bd3565b506001600160a01b038116331415610bcd565b503461026b576020366003190112610266578260209335610c99816115e2565b50825283528190205490516001600160a01b039091168152f35b503461026b5780600319360112610266578151918182549260018460011c9160018616958615610d57575b60209687851081146106b1578899509688969785829a52918260001461068a575050600114610d1a575050506102fa929161063d910385610fcd565b91908693508280528383205b828410610d3f575050508201018161063d6102fa61062a565b8054848a018601528895508794909301928101610d26565b92607f1692610cde565b50913461026b57602036600319011261026657359063ffffffff60e01b8216809203610e205760209250637965db0b60e01b8214918215610da6575b50519015158152f35b90915063780e9d6360e01b8114908115610dc3575b509038610d9d565b632483248360e11b811491508115610ddd575b5038610dbb565b6380ac58cd60e01b811491508115610e0f575b8115610dfe575b5038610dd6565b6301ffc9a760e01b14905038610df7565b635b5e139f60e01b81149150610df0565b8280fd5b5034610e5557602036600319011261026657602092358152600283528160018060a01b039120541615159051908152f35b60405162461bcd60e51b815260206004820152602260248201527f45746865722073656e7420746f206e6f6e2d70617961626c652066756e63746960448201526137b760f11b6064820152608490fd5b60405162461bcd60e51b815260206004820152602260248201527f414249206465636f64696e673a207475706c65206461746120746f6f2073686f6044820152611c9d60f21b6064820152608490fd5b919082519283825260005b848110610f21575050826000602080949584010152601f8019910116010190565b602081830181015184830182015201610f00565b600435906001600160a01b0382168203610f4b57565b600080fd5b602435906001600160a01b0382168203610f4b57565b6060906003190112610266576001600160a01b03906004358281168103610f4b57916024359081168103610f4b579060443590565b6020810190811067ffffffffffffffff821117610fb757604052565b634e487b7160e01b600052604160045260246000fd5b90601f8019910116810190811067ffffffffffffffff821117610fb757604052565b9060405190600083549060018260011c90600184169687156110b8575b60209485841089146110a457879884899798995290816000146110825750600114611043575b50505061104192500383610fcd565b565b600090815285812095935091905b81831061106a5750506110419350820101388080611032565b85548884018501529485019487945091830191611051565b9250505061104194925060ff191682840152151560051b820101388080611032565b634e487b7160e01b85526022600452602485fd5b91607f169161100c565b67ffffffffffffffff8111610fb757601f01601f191660200190565b6001600160a01b03828116939184156113b857600094838652602095600287526040968488832054161515806113b0575b6113985785825260028152848883205416963315158061130a575b50871580156112db575b84845260038352898420805460010190558784526002835289842080546001600160a01b0319168617905587858a7fddf252ad1be2c89b69c2b068fc378daa952ba7f163c4a11628f55a4df523b3ef8780a41561126f57600954878452600a8352898420819055600160401b81101561125b578060016111b792016009556113d1565b81549060031b9089821b91600019901b19161790555b838803611209575b5050505016928383036111e85750505050565b6064945051926364283d7b60e01b8452600484015260248301526044820152fd5b61121290611402565b6000198101939084116112475782916008918a94526007815283832085845281528784842055878352522055388080806111d5565b634e487b7160e01b83526011600452602483fd5b634e487b7160e01b84526041600452602484fd5b8784146111cd5761127f88611402565b878452600883528984205490898552600784528a8520918181036112b9575b5088855260088452848b8120558452825282898120556111cd565b8186528285528b862054818752808d8820558652600885528b8620553861129e565b8784526004835289842080546001600160a01b0319169055888452600383528984208054600019019055611134565b80611357575b1561131b573861112a565b888789611338576024915190637e27328960e01b82526004820152fd5b905163177e802f60e01b81523360048201526024810191909152604490fd5b50338814801561137c575b8061131057508683526004825233868a8520541614611310565b5087835260058252888320338452825260ff8984205416611362565b87516380e63c5b60e01b815260048101879052602490fd5b50600161110f565b604051633250574960e11b815260006004820152602490fd5b6009548110156113ec57600960005260206000200190600090565b634e487b7160e01b600052603260045260246000fd5b6001600160a01b0316801561142257600052600360205260406000205490565b6040516322718ad960e21b815260006004820152602490fd5b6114468383836110de565b813b611453575b50505050565b92936001600160a01b03918216939192909190843b1561158f5760405193630a85bd0160e11b92838652336004870152166024850152604484015260806064840152826114a66020966084830190610ef5565b039285816000958187895af184918161154f575b5061151a575050503d600014611512573d6114d4816110c2565b906114e26040519283610fcd565b81528091843d92013e5b8051928361150d57604051633250574960e11b815260048101849052602490fd5b019050fd5b5060606114ec565b919450915063ffffffff60e01b160361153757503880808061144d565b60249060405190633250574960e11b82526004820152fd5b9091508681813d8311611588575b6115678183610fcd565b8101031261026657516001600160e01b0319811681036105b55790386114ba565b503d61155d565b60405162461bcd60e51b815260206004820152602560248201527f54617267657420636f6e747261637420646f6573206e6f7420636f6e7461696e60448201526420636f646560d81b6064820152608490fd5b6000818152600260205260409020546001600160a01b0316908115611605575090565b60249060405190637e27328960e01b82526004820152fd5b80600052600c60205260406000203360005260205260ff60406000205416156116435750565b6044906040519063e2517d3f60e01b82523360048301526024820152fd5b90600091808352600c602052604083209160018060a01b03169182845260205260ff604084205416156000146116dc57808352600c6020526040832082845260205260408320600160ff198254161790557f2f8788117e7eff1d82e926ec794901d17c78024a50270940304540a733656f0d339380a4600190565b505090565b90600091808352600c602052604083209160018060a01b03169182845260205260ff6040842054166000146116dc57808352600c602052604083208284526020526040832060ff1981541690557ff6391f5c32d9c69d2a47ea670b442974b53935d1edc7fd64eb21e047a839171b339380a4600190565b600b546001600160a01b0316330361176c57565b60405163118cdaa760e01b8152336004820152602490fdfea2646970667358221220c25a57870a6523af3101abf34eb7f72d2fd2eab475d22517b7e7c70a9841436664736f6c634300081700332f8788117e7eff1d82e926ec794901d17c78024a50270940304540a733656f0d",
  "linkReferences": {},
  "deployedLinkReferences": {}
}