{
  "_format": "hh-sol-artifact-1",
  "contractName": "QueryFunctions",
  "sourceName": "contracts/QueryFunctions.sol",
  "abi": [
    {
      "inputs": [],
      "name": "AccessControlBadConfirmation",
      "type": "error"
    },
    {
      "inputs": [
        {
          "internalType": "address",
          "name": "account",
          "type": "address"
        },
        {
          "internalType": "bytes32",
          "name": "neededRole",
          "type": "bytes32"
        }
      ],
      "name": "AccessControlUnauthorizedAccount",
      "type": "error"
    },
    {
      "inputs": [],
      "name": "ArrayLengthMismatch",
      "type": "error"
    },
    {
      "inputs": [
        {
          "internalType": "uint256",
          "name": "tokenId",
          "type": "uint256"
        }
      ],
      "name": "BurnRequestStillTimelocked",
      "type": "error"
    },
    {
      "inputs": [
        {
          "internalType": "address",
          "name": "caller",
          "type": "address"
        }
      ],
      "name": "CallerNotInstitution",
      "type": "error"
    },
    {
      "inputs": [
        {
          "internalType": "address",
          "name": "caller",
          "type": "address"
        }
      ],
      "name": "CallerNotInstructor",
      "type": "error"
    },
    {
      "inputs": [
        {
          "internalType": "uint256",
          "name": "tokenId",
          "type": "uint256"
        }
      ],
      "name": "CertificateAlreadyVerified",
      "type": "error"
    },
    {
      "inputs": [
        {
          "internalType": "uint256",
          "name": "tokenId",
          "type": "uint256"
        }
      ],
      "name": "CertificateDoesNotExist",
      "type": "error"
    },
    {
      "inputs": [
        {
          "internalType": "uint256",
          "name": "tokenId",
          "type": "uint256"
        }
      ],
      "name": "CertificateIsRevoked",
      "type": "error"
    },
    {
      "inputs": [],
      "name": "CourseNameEmpty",
      "type": "error"
    },
    {
      "inputs": [],
      "name": "ERC721EnumerableForbiddenBatchMint",
      "type": "error"
    },
    {
      "inputs": [
        {
          "internalType": "address",
          "name": "sender",
          "type": "address"
        },
        {
          "internalType": "uint256",
          "name": "tokenId",
          "type": "uint256"
        },
        {
          "internalType": "address",
          "name": "owner",
          "type": "address"
        }
      ],
      "name": "ERC721IncorrectOwner",
      "type": "error"
    },
    {
      "inputs": [
        {
          "internalType": "address",
          "name": "operator",
          "type": "address"
        },
        {
          "internalType": "uint256",
          "name": "tokenId",
          "type": "uint256"
        }
      ],
      "name": "ERC721InsufficientApproval",
      "type": "error"
    },
    {
      "inputs": [
        {
          "internalType": "address",
          "name": "approver",
          "type": "address"
        }
      ],
      "name": "ERC721InvalidApprover",
      "type": "error"
    },
    {
      "inputs": [
        {
          "internalType": "address",
          "name": "operator",
          "type": "address"
        }
      ],
      "name": "ERC721InvalidOperator",
      "type": "error"
    },
    {
      "inputs": [
        {
          "internalType": "address",
          "name": "owner",
          "type": "address"
        }
      ],
      "name": "ERC721InvalidOwner",
      "type": "error"
    },
    {
      "inputs": [
        {
          "internalType": "address",
          "name": "receiver",
          "type": "address"
        }
      ],
      "name": "ERC721InvalidReceiver",
      "type": "error"
    },
    {
      "inputs": [
        {
          "internalType": "address",
          "name": "sender",
          "type": "address"
        }
      ],
      "name": "ERC721InvalidSender",
      "type": "error"
    },
    {
      "inputs": [
        {
          "internalType": "uint256",
          "name": "tokenId",
          "type": "uint256"
        }
      ],
      "name": "ERC721NonexistentToken",
      "type": "error"
    },
    {
      "inputs": [
        {
          "internalType": "address",
          "name": "owner",
          "type": "address"
        },
        {
          "internalType": "uint256",
          "name": "index",
          "type": "uint256"
        }
      ],
      "name": "ERC721OutOfBoundsIndex",
      "type": "error"
    },
    {
      "inputs": [
        {
          "internalType": "address",
          "name": "institution",
          "type": "address"
        }
      ],
      "name": "InstitutionAlreadyAuthorized",
      "type": "error"
    },
    {
      "inputs": [
        {
          "internalType": "address",
          "name": "institution",
          "type": "address"
        }
      ],
      "name": "InstitutionNotAuthorized",
      "type": "error"
    },
    {
      "inputs": [
        {
          "internalType": "string",
          "name": "certificateHash",
          "type": "string"
        }
      ],
      "name": "InvalidCertificateHash",
      "type": "error"
    },
    {
      "inputs": [
        {
          "internalType": "uint256",
          "name": "courseId",
          "type": "uint256"
        }
      ],
      "name": "InvalidCourseId",
      "type": "error"
    },
    {
      "inputs": [
        {
          "internalType": "address",
          "name": "student",
          "type": "address"
        }
      ],
      "name": "InvalidStudentAddress",
      "type": "error"
    },
    {
      "inputs": [
        {
          "internalType": "uint256",
          "name": "tokenId",
          "type": "uint256"
        }
      ],
      "name": "NoBurnRequestExists",
      "type": "error"
    },
    {
      "inputs": [
        {
          "internalType": "uint256",
          "name": "tokenId",
          "type": "uint256"
        },
        {
          "internalType": "address",
          "name": "caller",
          "type": "address"
        }
      ],
      "name": "NotAuthorizedToCancelBurn",
      "type": "error"
    },
    {
      "inputs": [
        {
          "internalType": "uint256",
          "name": "tokenId",
          "type": "uint256"
        },
        {
          "internalType": "address",
          "name": "caller",
          "type": "address"
        }
      ],
      "name": "NotCertificateIssuer",
      "type": "error"
    },
    {
      "inputs": [
        {
          "internalType": "address",
          "name": "owner",
          "type": "address"
        }
      ],
      "name": "OwnableInvalidOwner",
      "type": "error"
    },
    {
      "inputs": [
        {
          "internalType": "address",
          "name": "account",
          "type": "address"
        }
      ],
      "name": "OwnableUnauthorizedAccount",
      "type": "error"
    },
    {
      "inputs": [
        {
          "internalType": "uint256",
          "name": "tokenId",
          "type": "uint256"
        }
      ],
      "name": "SoulboundTokenCannotBeTransferred",
      "type": "error"
    },
    {
      "anonymous": false,
      "inputs": [
        {
          "indexed": true,
          "internalType": "address",
          "name": "owner",
          "type": "address"
        },
        {
          "indexed": true,
          "internalType": "address",
          "name": "approved",
          "type": "address"
        },
        {
          "indexed": true,
          "internalType": "uint256",
          "name": "tokenId",
          "type": "uint256"
        }
      ],
      "name": "Approval",
      "type": "event"
    },
    {
      "anonymous": false,
      "inputs": [
        {
          "indexed": true,
          "internalType": "address",
          "name": "owner",
          "type": "address"
        },
        {
          "indexed": true,
          "internalType": "address",
          "name": "operator",
          "type": "address"
        },
        {
          "indexed": false,
          "internalType": "bool",
          "name": "approved",
          "type": "bool"
        }
      ],
      "name": "ApprovalForAll",
      "type": "event"
    },
    {
      "anonymous": false,
      "inputs": [
        {
          "indexed": false,
          "internalType": "uint256",
          "name": "_fromTokenId",
          "type": "uint256"
        },
        {
          "indexed": false,
          "internalType": "uint256",
          "name": "_toTokenId",
          "type": "uint256"
        }
      ],
      "name": "BatchMetadataUpdate",
      "type": "event"
    },
    {
      "anonymous": false,
      "inputs": [
        {
          "indexed": false,
          "internalType": "uint256",
          "name": "newTimelock",
          "type": "uint256"
        }
      ],
      "name": "BurnTimelockChanged",
      "type": "event"
    },
    {
      "anonymous": false,
      "inputs": [
        {
          "indexed": true,
          "internalType": "uint256",
          "name": "tokenId",
          "type": "uint256"
        },
        {
          "indexed": true,
          "internalType": "address",
          "name": "approver",
          "type": "address"
        }
      ],
      "name": "CertificateBurnApproved",
      "type": "event"
    },
    {
      "anonymous": false,
      "inputs": [
        {
          "indexed": true,
          "internalType": "uint256",
          "name": "tokenId",
          "type": "uint256"
        },
        {
          "indexed": true,
          "internalType": "address",
          "name": "canceler",
          "type": "address"
        }
      ],
      "name": "CertificateBurnRequestCanceled",
      "type": "event"
    },
    {
      "anonymous": false,
      "inputs": [
        {
          "indexed": true,
          "internalType": "uint256",
          "name": "tokenId",
          "type": "uint256"
        },
        {
          "indexed": true,
          "internalType": "address",
          "name": "requester",
          "type": "address"
        },
        {
          "indexed": false,
          "internalType": "string",
          "name": "reason",
          "type": "string"
        },
        {
          "indexed": false,
          "internalType": "uint256",
          "name": "executionTime",
          "type": "uint256"
        }
      ],
      "name": "CertificateBurnRequested",
      "type": "event"
    },
    {
      "anonymous": false,
      "inputs": [
        {
          "indexed": true,
          "internalType": "uint256",
          "name": "tokenId",
          "type": "uint256"
        },
        {
          "indexed": true,
          "internalType": "address",
          "name": "burner",
          "type": "address"
        },
        {
          "indexed": false,
          "internalType": "string",
          "name": "reason",
          "type": "string"
        }
      ],
      "name": "CertificateBurned",
      "type": "event"
    },
    {
      "anonymous": false,
      "inputs": [
        {
          "indexed": true,
          "internalType": "uint256",
          "name": "tokenId",
          "type": "uint256"
        },
        {
          "indexed": true,
          "internalType": "address",
          "name": "student",
          "type": "address"
        },
        {
          "indexed": true,
          "internalType": "address",
          "name": "institution",
          "type": "address"
        },
        {
          "indexed": false,
          "internalType": "uint256",
          "name": "courseId",
          "type": "uint256"
        },
        {
          "indexed": false,
          "internalType": "uint256",
          "name": "completionDate",
          "type": "uint256"
        },
        {
          "indexed": false,
          "internalType": "uint256",
          "name": "grade",
          "type": "uint256"
        }
      ],
      "name": "CertificateIssued",
      "type": "event"
    },
    {
      "anonymous": false,
      "inputs": [
        {
          "indexed": true,
          "internalType": "uint256",
          "name": "tokenId",
          "type": "uint256"
        },
        {
          "indexed": true,
          "internalType": "address",
          "name": "revoker",
          "type": "address"
        },
        {
          "indexed": false,
          "internalType": "string",
          "name": "reason",
          "type": "string"
        }
      ],
      "name": "CertificateRevoked",
      "type": "event"
    },
    {
      "anonymous": false,
      "inputs": [
        {
          "indexed": true,
          "internalType": "uint256",
          "name": "tokenId",
          "type": "uint256"
        },
        {
          "indexed": false,
          "internalType": "bool",
          "name": "isVerified",
          "type": "bool"
        },
        {
          "indexed": false,
          "internalType": "bool",
          "name": "isRevoked",
          "type": "bool"
        },
        {
          "indexed": true,
          "internalType": "address",
          "name": "updatedBy",
          "type": "address"
        },
        {
          "indexed": false,
          "internalType": "uint256",
          "name": "timestamp",
          "type": "uint256"
        }
      ],
      "name": "CertificateStatusChanged",
      "type": "event"
    },
    {
      "anonymous": false,
      "inputs": [
        {
          "indexed": true,
          "internalType": "uint256",
          "name": "tokenId",
          "type": "uint256"
        },
        {
          "indexed": false,
          "internalType": "uint256",
          "name": "newGrade",
          "type": "uint256"
        },
        {
          "indexed": false,
          "internalType": "string",
          "name": "updateReason",
          "type": "string"
        }
      ],
      "name": "CertificateUpdated",
      "type": "event"
    },
    {
      "anonymous": false,
      "inputs": [
        {
          "indexed": true,
          "internalType": "uint256",
          "name": "tokenId",
          "type": "uint256"
        },
        {
          "indexed": true,
          "internalType": "address",
          "name": "verifier",
          "type": "address"
        }
      ],
      "name": "CertificateVerified",
      "type": "event"
    },
    {
      "anonymous": false,
      "inputs": [
        {
          "indexed": true,
          "internalType": "uint256",
          "name": "courseId",
          "type": "uint256"
        },
        {
          "indexed": false,
          "internalType": "string",
          "name": "name",
          "type": "string"
        }
      ],
      "name": "CourseNameSet",
      "type": "event"
    },
    {
      "anonymous": false,
      "inputs": [
        {
          "indexed": true,
          "internalType": "address",
          "name": "institution",
          "type": "address"
        }
      ],
      "name": "InstitutionAuthorized",
      "type": "event"
    },
    {
      "anonymous": false,
      "inputs": [
        {
          "indexed": true,
          "internalType": "address",
          "name": "institution",
          "type": "address"
        }
      ],
      "name": "InstitutionRevoked",
      "type": "event"
    },
    {
      "anonymous": false,
      "inputs": [
        {
          "indexed": false,
          "internalType": "uint256",
          "name": "_tokenId",
          "type": "uint256"
        }
      ],
      "name": "MetadataUpdate",
      "type": "event"
    },
    {
      "anonymous": false,
      "inputs": [
        {
          "indexed": true,
          "internalType": "address",
          "name": "previousOwner",
          "type": "address"
        },
        {
          "indexed": true,
          "internalType": "address",
          "name": "newOwner",
          "type": "address"
        }
      ],
      "name": "OwnershipTransferred",
      "type": "event"
    },
    {
      "anonymous": false,
      "inputs": [
        {
          "indexed": true,
          "internalType": "bytes32",
          "name": "role",
          "type": "bytes32"
        },
        {
          "indexed": true,
          "internalType": "bytes32",
          "name": "previousAdminRole",
          "type": "bytes32"
        },
        {
          "indexed": true,
          "internalType": "bytes32",
          "name": "newAdminRole",
          "type": "bytes32"
        }
      ],
      "name": "RoleAdminChanged",
      "type": "event"
    },
    {
      "anonymous": false,
      "inputs": [
        {
          "indexed": true,
          "internalType": "bytes32",
          "name": "role",
          "type": "bytes32"
        },
        {
          "indexed": true,
          "internalType": "address",
          "name": "account",
          "type": "address"
        },
        {
          "indexed": true,
          "internalType": "address",
          "name": "sender",
          "type": "address"
        }
      ],
      "name": "RoleGranted",
      "type": "event"
    },
    {
      "anonymous": false,
      "inputs": [
        {
          "indexed": true,
          "internalType": "bytes32",
          "name": "role",
          "type": "bytes32"
        },
        {
          "indexed": true,
          "internalType": "address",
          "name": "account",
          "type": "address"
        },
        {
          "indexed": true,
          "internalType": "address",
          "name": "sender",
          "type": "address"
        }
      ],
      "name": "RoleRevoked",
      "type": "event"
    },
    {
      "anonymous": false,
      "inputs": [
        {
          "indexed": true,
          "internalType": "address",
          "name": "from",
          "type": "address"
        },
        {
          "indexed": true,
          "internalType": "address",
          "name": "to",
          "type": "address"
        },
        {
          "indexed": true,
          "internalType": "uint256",
          "name": "tokenId",
          "type": "uint256"
        }
      ],
      "name": "Transfer",
      "type": "event"
    },
    {
      "inputs": [],
      "name": "DEFAULT_ADMIN_ROLE",
      "outputs": [
        {
          "internalType": "bytes32",
          "name": "",
          "type": "bytes32"
        }
      ],
      "stateMutability": "view",
      "type": "function"
    },
    {
      "inputs": [],
      "name": "INSTITUTION_ROLE",
      "outputs": [
        {
          "internalType": "bytes32",
          "name": "",
          "type": "bytes32"
        }
      ],
      "stateMutability": "view",
      "type": "function"
    },
    {
      "inputs": [],
      "name": "INSTRUCTOR_ROLE",
      "outputs": [
        {
          "internalType": "bytes32",
          "name": "",
          "type": "bytes32"
        }
      ],
      "stateMutability": "view",
      "type": "function"
    },
    {
      "inputs": [
        {
          "internalType": "uint256",
          "name": "",
          "type": "uint256"
        }
      ],
      "name": "academicCertificates",
      "outputs": [
        {
          "internalType": "address",
          "name": "studentAddress",
          "type": "address"
        },
        {
          "internalType": "address",
          "name": "institutionAddress",
          "type": "address"
        },
        {
          "internalType": "uint256",
          "name": "courseId",
          "type": "uint256"
        },
        {
          "internalType": "uint256",
          "name": "completionDate",
          "type": "uint256"
        },
        {
          "internalType": "uint256",
          "name": "grade",
          "type": "uint256"
        },
        {
          "internalType": "bool",
          "name": "isVerified",
          "type": "bool"
        },
        {
          "internalType": "string",
          "name": "certificateHash",
          "type": "string"
        },
        {
          "internalType": "bool",
          "name": "isRevoked",
          "type": "bool"
        },
        {
          "internalType": "string",
          "name": "revocationReason",
          "type": "string"
        },
        {
          "internalType": "uint256",
          "name": "version",
          "type": "uint256"
        },
        {
          "internalType": "uint256",
          "name": "lastUpdateDate",
          "type": "uint256"
        },
        {
          "internalType": "string",
          "name": "updateReason",
          "type": "string"
        }
      ],
      "stateMutability": "view",
      "type": "function"
    },
    {
      "inputs": [
        {
          "internalType": "address",
          "name": "to",
          "type": "address"
        },
        {
          "internalType": "uint256",
          "name": "tokenId",
          "type": "uint256"
        }
      ],
      "name": "approve",
      "outputs": [],
      "stateMutability": "nonpayable",
      "type": "function"
    },
    {
      "inputs": [
        {
          "internalType": "uint256",
          "name": "tokenId",
          "type": "uint256"
        }
      ],
      "name": "approveBurnCertificate",
      "outputs": [],
      "stateMutability": "nonpayable",
      "type": "function"
    },
    {
      "inputs": [
        {
          "internalType": "uint256[]",
          "name": "tokenIds",
          "type": "uint256[]"
        }
      ],
      "name": "approveBurnMultipleCertificates",
      "outputs": [],
      "stateMutability": "nonpayable",
      "type": "function"
    },
    {
      "inputs": [
        {
          "internalType": "address",
          "name": "institution",
          "type": "address"
        }
      ],
      "name": "authorizeInstitution",
      "outputs": [],
      "stateMutability": "nonpayable",
      "type": "function"
    },
    {
      "inputs": [
        {
          "internalType": "address",
          "name": "",
          "type": "address"
        }
      ],
      "name": "authorizedInstitutions",
      "outputs": [
        {
          "internalType": "bool",
          "name": "",
          "type": "bool"
        }
      ],
      "stateMutability": "view",
      "type": "function"
    },
    {
      "inputs": [
        {
          "internalType": "address",
          "name": "owner",
          "type": "address"
        }
      ],
      "name": "balanceOf",
      "outputs": [
        {
          "internalType": "uint256",
          "name": "",
          "type": "uint256"
        }
      ],
      "stateMutability": "view",
      "type": "function"
    },
    {
      "inputs": [
        {
          "internalType": "uint256",
          "name": "",
          "type": "uint256"
        }
      ],
      "name": "burnApproved",
      "outputs": [
        {
          "internalType": "bool",
          "name": "",
          "type": "bool"
        }
      ],
      "stateMutability": "view",
      "type": "function"
    },
    {
      "inputs": [
        {
          "internalType": "uint256",
          "name": "tokenId",
          "type": "uint256"
        },
        {
          "internalType": "string",
          "name": "reason",
          "type": "string"
        }
      ],
      "name": "burnCertificate",
      "outputs": [],
      "stateMutability": "nonpayable",
      "type": "function"
    },
    {
      "inputs": [
        {
          "internalType": "uint256[]",
          "name": "tokenIds",
          "type": "uint256[]"
        },
        {
          "internalType": "string",
          "name": "reason",
          "type": "string"
        }
      ],
      "name": "burnMultipleCertificates",
      "outputs": [],
      "stateMutability": "nonpayable",
      "type": "function"
    },
    {
      "inputs": [
        {
          "internalType": "uint256",
          "name": "",
          "type": "uint256"
        }
      ],
      "name": "burnRequestTimestamps",
      "outputs": [
        {
          "internalType": "uint256",
          "name": "",
          "type": "uint256"
        }
      ],
      "stateMutability": "view",
      "type": "function"
    },
    {
      "inputs": [],
      "name": "burnTimelock",
      "outputs": [
        {
          "internalType": "uint256",
          "name": "",
          "type": "uint256"
        }
      ],
      "stateMutability": "view",
      "type": "function"
    },
    {
      "inputs": [
        {
          "internalType": "uint256[]",
          "name": "tokenIds",
          "type": "uint256[]"
        }
      ],
      "name": "cancelBurnMultipleRequests",
      "outputs": [],
      "stateMutability": "nonpayable",
      "type": "function"
    },
    {
      "inputs": [
        {
          "internalType": "uint256",
          "name": "tokenId",
          "type": "uint256"
        }
      ],
      "name": "cancelBurnRequest",
      "outputs": [],
      "stateMutability": "nonpayable",
      "type": "function"
    },
    {
      "inputs": [
        {
          "internalType": "address",
          "name": "institution",
          "type": "address"
        }
      ],
      "name": "countCertificatesByInstitution",
      "outputs": [
        {
          "internalType": "uint256",
          "name": "",
          "type": "uint256"
        }
      ],
      "stateMutability": "view",
      "type": "function"
    },
    {
      "inputs": [
        {
          "internalType": "bool",
          "name": "verified",
          "type": "bool"
        },
        {
          "internalType": "bool",
          "name": "revoked",
          "type": "bool"
        }
      ],
      "name": "countCertificatesByStatus",
      "outputs": [
        {
          "internalType": "uint256",
          "name": "",
          "type": "uint256"
        }
      ],
      "stateMutability": "view",
      "type": "function"
    },
    {
      "inputs": [
        {
          "internalType": "uint256",
          "name": "",
          "type": "uint256"
        }
      ],
      "name": "courseNames",
      "outputs": [
        {
          "internalType": "string",
          "name": "",
          "type": "string"
        }
      ],
      "stateMutability": "view",
      "type": "function"
    },
    {
      "inputs": [
        {
          "internalType": "uint256",
          "name": "tokenId",
          "type": "uint256"
        }
      ],
      "name": "getApproved",
      "outputs": [
        {
          "internalType": "address",
          "name": "",
          "type": "address"
        }
      ],
      "stateMutability": "view",
      "type": "function"
    },
    {
      "inputs": [
        {
          "internalType": "uint256",
          "name": "tokenId",
          "type": "uint256"
        }
      ],
      "name": "getCertificate",
      "outputs": [
        {
          "internalType": "address",
          "name": "student",
          "type": "address"
        },
        {
          "internalType": "address",
          "name": "institution",
          "type": "address"
        },
        {
          "internalType": "uint256",
          "name": "courseId",
          "type": "uint256"
        },
        {
          "internalType": "uint256",
          "name": "completionDate",
          "type": "uint256"
        },
        {
          "internalType": "uint256",
          "name": "grade",
          "type": "uint256"
        },
        {
          "internalType": "bool",
          "name": "isVerified",
          "type": "bool"
        },
        {
          "internalType": "bool",
          "name": "isRevoked",
          "type": "bool"
        },
        {
          "internalType": "string",
          "name": "revocationReason",
          "type": "string"
        },
        {
          "internalType": "uint256",
          "name": "version",
          "type": "uint256"
        },
        {
          "internalType": "uint256",
          "name": "lastUpdateDate",
          "type": "uint256"
        },
        {
          "internalType": "string",
          "name": "updateReason",
          "type": "string"
        }
      ],
      "stateMutability": "view",
      "type": "function"
    },
    {
      "inputs": [
        {
          "internalType": "uint256[]",
          "name": "tokenIds",
          "type": "uint256[]"
        }
      ],
      "name": "getCertificatesBatch",
      "outputs": [
        {
          "internalType": "address[]",
          "name": "students",
          "type": "address[]"
        },
        {
          "internalType": "address[]",
          "name": "institutions",
          "type": "address[]"
        },
        {
          "internalType": "uint256[]",
          "name": "courseIds",
          "type": "uint256[]"
        },
        {
          "internalType": "uint256[]",
          "name": "completionDates",
          "type": "uint256[]"
        },
        {
          "internalType": "uint256[]",
          "name": "grades",
          "type": "uint256[]"
        },
        {
          "internalType": "bool[]",
          "name": "verificationStatuses",
          "type": "bool[]"
        },
        {
          "internalType": "bool[]",
          "name": "revocationStatuses",
          "type": "bool[]"
        }
      ],
      "stateMutability": "view",
      "type": "function"
    },
    {
      "inputs": [
        {
          "internalType": "uint256[]",
          "name": "tokenIds",
          "type": "uint256[]"
        }
      ],
      "name": "getCertificatesBatchDetails",
      "outputs": [
        {
          "internalType": "string[]",
          "name": "revocationReasons",
          "type": "string[]"
        },
        {
          "internalType": "uint256[]",
          "name": "versions",
          "type": "uint256[]"
        },
        {
          "internalType": "uint256[]",
          "name": "lastUpdateDates",
          "type": "uint256[]"
        },
        {
          "internalType": "string[]",
          "name": "updateReasons",
          "type": "string[]"
        }
      ],
      "stateMutability": "view",
      "type": "function"
    },
    {
      "inputs": [
        {
          "internalType": "address",
          "name": "institution",
          "type": "address"
        },
        {
          "internalType": "uint256",
          "name": "startIndex",
          "type": "uint256"
        },
        {
          "internalType": "uint256",
          "name": "limit",
          "type": "uint256"
        }
      ],
      "name": "getCertificatesByInstitution",
      "outputs": [
        {
          "internalType": "uint256[]",
          "name": "",
          "type": "uint256[]"
        }
      ],
      "stateMutability": "view",
      "type": "function"
    },
    {
      "inputs": [
        {
          "internalType": "uint256",
          "name": "courseId",
          "type": "uint256"
        }
      ],
      "name": "getCourseName",
      "outputs": [
        {
          "internalType": "string",
          "name": "",
          "type": "string"
        }
      ],
      "stateMutability": "view",
      "type": "function"
    },
    {
      "inputs": [
        {
          "internalType": "uint256[]",
          "name": "courseIds",
          "type": "uint256[]"
        }
      ],
      "name": "getCourseNamesBatch",
      "outputs": [
        {
          "internalType": "string[]",
          "name": "",
          "type": "string[]"
        }
      ],
      "stateMutability": "view",
      "type": "function"
    },
    {
      "inputs": [
        {
          "internalType": "uint256",
          "name": "startIndex",
          "type": "uint256"
        },
        {
          "internalType": "uint256",
          "name": "limit",
          "type": "uint256"
        }
      ],
      "name": "getPendingCertificateIds",
      "outputs": [
        {
          "internalType": "uint256[]",
          "name": "",
          "type": "uint256[]"
        }
      ],
      "stateMutability": "view",
      "type": "function"
    },
    {
      "inputs": [
        {
          "internalType": "uint256",
          "name": "startIndex",
          "type": "uint256"
        },
        {
          "internalType": "uint256",
          "name": "limit",
          "type": "uint256"
        }
      ],
      "name": "getRevokedCertificateIds",
      "outputs": [
        {
          "internalType": "uint256[]",
          "name": "",
          "type": "uint256[]"
        }
      ],
      "stateMutability": "view",
      "type": "function"
    },
    {
      "inputs": [
        {
          "internalType": "bytes32",
          "name": "role",
          "type": "bytes32"
        }
      ],
      "name": "getRoleAdmin",
      "outputs": [
        {
          "internalType": "bytes32",
          "name": "",
          "type": "bytes32"
        }
      ],
      "stateMutability": "view",
      "type": "function"
    },
    {
      "inputs": [
        {
          "internalType": "uint256",
          "name": "startIndex",
          "type": "uint256"
        },
        {
          "internalType": "uint256",
          "name": "limit",
          "type": "uint256"
        }
      ],
      "name": "getVerifiedCertificateIds",
      "outputs": [
        {
          "internalType": "uint256[]",
          "name": "",
          "type": "uint256[]"
        }
      ],
      "stateMutability": "view",
      "type": "function"
    },
    {
      "inputs": [
        {
          "internalType": "bytes32",
          "name": "role",
          "type": "bytes32"
        },
        {
          "internalType": "address",
          "name": "account",
          "type": "address"
        }
      ],
      "name": "grantRole",
      "outputs": [],
      "stateMutability": "nonpayable",
      "type": "function"
    },
    {
      "inputs": [
        {
          "internalType": "bytes32",
          "name": "role",
          "type": "bytes32"
        },
        {
          "internalType": "address",
          "name": "account",
          "type": "address"
        }
      ],
      "name": "hasRole",
      "outputs": [
        {
          "internalType": "bool",
          "name": "",
          "type": "bool"
        }
      ],
      "stateMutability": "view",
      "type": "function"
    },
    {
      "inputs": [
        {
          "internalType": "address",
          "name": "owner",
          "type": "address"
        },
        {
          "internalType": "address",
          "name": "operator",
          "type": "address"
        }
      ],
      "name": "isApprovedForAll",
      "outputs": [
        {
          "internalType": "bool",
          "name": "",
          "type": "bool"
        }
      ],
      "stateMutability": "view",
      "type": "function"
    },
    {
      "inputs": [
        {
          "internalType": "address",
          "name": "student",
          "type": "address"
        },
        {
          "internalType": "uint256",
          "name": "courseId",
          "type": "uint256"
        },
        {
          "internalType": "uint256",
          "name": "grade",
          "type": "uint256"
        },
        {
          "internalType": "string",
          "name": "certificateHash",
          "type": "string"
        }
      ],
      "name": "issueCertificate",
      "outputs": [
        {
          "internalType": "uint256",
          "name": "",
          "type": "uint256"
        }
      ],
      "stateMutability": "nonpayable",
      "type": "function"
    },
    {
      "inputs": [],
      "name": "name",
      "outputs": [
        {
          "internalType": "string",
          "name": "",
          "type": "string"
        }
      ],
      "stateMutability": "view",
      "type": "function"
    },
    {
      "inputs": [],
      "name": "owner",
      "outputs": [
        {
          "internalType": "address",
          "name": "",
          "type": "address"
        }
      ],
      "stateMutability": "view",
      "type": "function"
    },
    {
      "inputs": [
        {
          "internalType": "uint256",
          "name": "tokenId",
          "type": "uint256"
        }
      ],
      "name": "ownerOf",
      "outputs": [
        {
          "internalType": "address",
          "name": "",
          "type": "address"
        }
      ],
      "stateMutability": "view",
      "type": "function"
    },
    {
      "inputs": [],
      "name": "renounceOwnership",
      "outputs": [],
      "stateMutability": "nonpayable",
      "type": "function"
    },
    {
      "inputs": [
        {
          "internalType": "bytes32",
          "name": "role",
          "type": "bytes32"
        },
        {
          "internalType": "address",
          "name": "callerConfirmation",
          "type": "address"
        }
      ],
      "name": "renounceRole",
      "outputs": [],
      "stateMutability": "nonpayable",
      "type": "function"
    },
    {
      "inputs": [
        {
          "internalType": "uint256",
          "name": "tokenId",
          "type": "uint256"
        },
        {
          "internalType": "string",
          "name": "reason",
          "type": "string"
        }
      ],
      "name": "requestBurnCertificate",
      "outputs": [],
      "stateMutability": "nonpayable",
      "type": "function"
    },
    {
      "inputs": [
        {
          "internalType": "uint256[]",
          "name": "tokenIds",
          "type": "uint256[]"
        },
        {
          "internalType": "string",
          "name": "reason",
          "type": "string"
        }
      ],
      "name": "requestBurnMultipleCertificates",
      "outputs": [],
      "stateMutability": "nonpayable",
      "type": "function"
    },
    {
      "inputs": [
        {
          "internalType": "uint256",
          "name": "tokenId",
          "type": "uint256"
        },
        {
          "internalType": "string",
          "name": "reason",
          "type": "string"
        }
      ],
      "name": "revokeCertificate",
      "outputs": [],
      "stateMutability": "nonpayable",
      "type": "function"
    },
    {
      "inputs": [
        {
          "internalType": "address",
          "name": "institution",
          "type": "address"
        }
      ],
      "name": "revokeInstitution",
      "outputs": [],
      "stateMutability": "nonpayable",
      "type": "function"
    },
    {
      "inputs": [
        {
          "internalType": "bytes32",
          "name": "role",
          "type": "bytes32"
        },
        {
          "internalType": "address",
          "name": "account",
          "type": "address"
        }
      ],
      "name": "revokeRole",
      "outputs": [],
      "stateMutability": "nonpayable",
      "type": "function"
    },
    {
      "inputs": [
        {
          "internalType": "address",
          "name": "from",
          "type": "address"
        },
        {
          "internalType": "address",
          "name": "to",
          "type": "address"
        },
        {
          "internalType": "uint256",
          "name": "tokenId",
          "type": "uint256"
        }
      ],
      "name": "safeTransferFrom",
      "outputs": [],
      "stateMutability": "nonpayable",
      "type": "function"
    },
    {
      "inputs": [
        {
          "internalType": "address",
          "name": "from",
          "type": "address"
        },
        {
          "internalType": "address",
          "name": "to",
          "type": "address"
        },
        {
          "internalType": "uint256",
          "name": "tokenId",
          "type": "uint256"
        },
        {
          "internalType": "bytes",
          "name": "data",
          "type": "bytes"
        }
      ],
      "name": "safeTransferFrom",
      "outputs": [],
      "stateMutability": "nonpayable",
      "type": "function"
    },
    {
      "inputs": [
        {
          "internalType": "address",
          "name": "operator",
          "type": "address"
        },
        {
          "internalType": "bool",
          "name": "approved",
          "type": "bool"
        }
      ],
      "name": "setApprovalForAll",
      "outputs": [],
      "stateMutability": "nonpayable",
      "type": "function"
    },
    {
      "inputs": [
        {
          "internalType": "uint256[]",
          "name": "tokenIds",
          "type": "uint256[]"
        },
        {
          "internalType": "string[]",
          "name": "uris",
          "type": "string[]"
        }
      ],
      "name": "setBatchCertificateURIs",
      "outputs": [],
      "stateMutability": "nonpayable",
      "type": "function"
    },
    {
      "inputs": [
        {
          "internalType": "uint256",
          "name": "newTimelock",
          "type": "uint256"
        }
      ],
      "name": "setBurnTimelock",
      "outputs": [],
      "stateMutability": "nonpayable",
      "type": "function"
    },
    {
      "inputs": [
        {
          "internalType": "uint256",
          "name": "tokenId",
          "type": "uint256"
        },
        {
          "internalType": "string",
          "name": "uri",
          "type": "string"
        }
      ],
      "name": "setCertificateURI",
      "outputs": [],
      "stateMutability": "nonpayable",
      "type": "function"
    },
    {
      "inputs": [
        {
          "internalType": "uint256",
          "name": "courseId",
          "type": "uint256"
        },
        {
          "internalType": "string",
          "name": "name",
          "type": "string"
        }
      ],
      "name": "setCourseName",
      "outputs": [],
      "stateMutability": "nonpayable",
      "type": "function"
    },
    {
      "inputs": [
        {
          "internalType": "uint256[]",
          "name": "courseIds",
          "type": "uint256[]"
        },
        {
          "internalType": "string[]",
          "name": "names",
          "type": "string[]"
        }
      ],
      "name": "setMultipleCourseNames",
      "outputs": [],
      "stateMutability": "nonpayable",
      "type": "function"
    },
    {
      "inputs": [
        {
          "internalType": "bytes4",
          "name": "interfaceId",
          "type": "bytes4"
        }
      ],
      "name": "supportsInterface",
      "outputs": [
        {
          "internalType": "bool",
          "name": "",
          "type": "bool"
        }
      ],
      "stateMutability": "view",
      "type": "function"
    },
    {
      "inputs": [],
      "name": "symbol",
      "outputs": [
        {
          "internalType": "string",
          "name": "",
          "type": "string"
        }
      ],
      "stateMutability": "view",
      "type": "function"
    },
    {
      "inputs": [
        {
          "internalType": "uint256",
          "name": "index",
          "type": "uint256"
        }
      ],
      "name": "tokenByIndex",
      "outputs": [
        {
          "internalType": "uint256",
          "name": "",
          "type": "uint256"
        }
      ],
      "stateMutability": "view",
      "type": "function"
    },
    {
      "inputs": [
        {
          "internalType": "uint256",
          "name": "tokenId",
          "type": "uint256"
        }
      ],
      "name": "tokenExists",
      "outputs": [
        {
          "internalType": "bool",
          "name": "",
          "type": "bool"
        }
      ],
      "stateMutability": "view",
      "type": "function"
    },
    {
      "inputs": [
        {
          "internalType": "address",
          "name": "owner",
          "type": "address"
        },
        {
          "internalType": "uint256",
          "name": "index",
          "type": "uint256"
        }
      ],
      "name": "tokenOfOwnerByIndex",
      "outputs": [
        {
          "internalType": "uint256",
          "name": "",
          "type": "uint256"
        }
      ],
      "stateMutability": "view",
      "type": "function"
    },
    {
      "inputs": [
        {
          "internalType": "uint256",
          "name": "tokenId",
          "type": "uint256"
        }
      ],
      "name": "tokenURI",
      "outputs": [
        {
          "internalType": "string",
          "name": "",
          "type": "string"
        }
      ],
      "stateMutability": "view",
      "type": "function"
    },
    {
      "inputs": [],
      "name": "totalSupply",
      "outputs": [
        {
          "internalType": "uint256",
          "name": "",
          "type": "uint256"
        }
      ],
      "stateMutability": "view",
      "type": "function"
    },
    {
      "inputs": [
        {
          "internalType": "address",
          "name": "from",
          "type": "address"
        },
        {
          "internalType": "address",
          "name": "to",
          "type": "address"
        },
        {
          "internalType": "uint256",
          "name": "tokenId",
          "type": "uint256"
        }
      ],
      "name": "transferFrom",
      "outputs": [],
      "stateMutability": "nonpayable",
      "type": "function"
    },
    {
      "inputs": [
        {
          "internalType": "address",
          "name": "newOwner",
          "type": "address"
        }
      ],
      "name": "transferOwnership",
      "outputs": [],
      "stateMutability": "nonpayable",
      "type": "function"
    },
    {
      "inputs": [
        {
          "internalType": "uint256",
          "name": "tokenId",
          "type": "uint256"
        },
        {
          "internalType": "uint256",
          "name": "newGrade",
          "type": "uint256"
        },
        {
          "internalType": "string",
          "name": "updateReason",
          "type": "string"
        }
      ],
      "name": "updateCertificate",
      "outputs": [],
      "stateMutability": "nonpayable",
      "type": "function"
    },
    {
      "inputs": [
        {
          "internalType": "uint256",
          "name": "",
          "type": "uint256"
        }
      ],
      "name": "verifiedCertificates",
      "outputs": [
        {
          "internalType": "bool",
          "name": "",
          "type": "bool"
        }
      ],
      "stateMutability": "view",
      "type": "function"
    },
    {
      "inputs": [
        {
          "internalType": "uint256",
          "name": "tokenId",
          "type": "uint256"
        }
      ],
      "name": "verifyCertificate",
      "outputs": [],
      "stateMutability": "nonpayable",
      "type": "function"
    },
    {
      "inputs": [
        {
          "internalType": "uint256[]",
          "name": "tokenIds",
          "type": "uint256[]"
        }
      ],
      "name": "verifyMultipleCertificates",
      "outputs": [],
      "stateMutability": "nonpayable",
      "type": "function"
    }
  ],
  "bytecode": "0x608060409080825234620003b1575080516001600160401b039190808201838111828210176200039b578252601c81526020907f536f756c626f756e6441636164656d696343657274696669636174650000000082820152825193838501858110828211176200039b578452600685526514d050d1549560d21b8386015281518181116200039b576000938454916001948584811c9416801562000390575b838510146200037c578190601f9485811162000329575b508390858311600114620002c5578892620002b9575b5050600019600383901b1c191690851b1785555b8651928311620002a55783548481811c911680156200029a575b8282101462000286578281116200023e575b5080918311600114620001d7575083949582939492620001cb575b5050600019600383901b1c191690821b1790555b3315620001b557600b8054336001600160a01b03198216811790925590916001600160a01b03909116907f8be0079c531659141344cd1fd0a4f28419497f9722a3daafe3b4186f6b6457e09080a36200019333620003fe565b506200019f336200047f565b506203f4806013555161512f9081620005238239f35b6024915190631e4fbdf760e01b82526004820152fd5b01519050388062000126565b90601f198316968486528286209286905b898210620002265750508385969798106200020c575b505050811b0190556200013a565b015160001960f88460031b161c19169055388080620001fe565b808785968294968601518155019501930190620001e8565b8486528186208380860160051c8201928487106200027c575b0160051c019085905b828110620002705750506200010b565b87815501859062000260565b9250819262000257565b634e487b7160e01b86526022600452602486fd5b90607f1690620000f9565b634e487b7160e01b85526041600452602485fd5b015190503880620000cb565b8880528489208894509190601f1984168a5b87828210620003125750508411620002f8575b505050811b018555620000df565b015160001960f88460031b161c19169055388080620002ea565b8385015186558b97909501949384019301620002d7565b9091508780528388208580850160051c82019286861062000372575b918991869594930160051c01915b82811062000363575050620000b5565b8a815585945089910162000353565b9250819262000345565b634e487b7160e01b87526022600452602487fd5b93607f16936200009e565b634e487b7160e01b600052604160045260246000fd5b62461bcd60e51b815260206004820152602260248201527f45746865722073656e7420746f206e6f6e2d70617961626c652066756e63746960448201526137b760f11b6064820152608490fd5b6001600160a01b031660008181527f13649b2456f1b42fef0f0040b3aaeabcd21a76a0f3f5defd4f583839455116e8602052604081205490919060ff166200047b57818052600c6020526040822081835260205260408220600160ff198254161790553391600080516020620056528339815191528180a4600190565b5090565b6001600160a01b031660008181527fb648ddf3bddf768cd741f6298d8ff7b48ee7bc93e38d035b90b1e0338bc911ce60205260408120549091907f01f18e249044142f95a61b39bad5f99f3c70699c83bb85a1ad87fe9e68bd85d19060ff166200051d57808352600c6020526040832082845260205260408320600160ff1982541617905560008051602062005652833981519152339380a4600190565b50509056fe60806040526004361015610071575b60405162461bcd60e51b815260206004820152603560248201527f436f6e747261637420646f6573206e6f7420686176652066616c6c6261636b206044820152746e6f7220726563656976652066756e6374696f6e7360581b6064820152608490fd5b60003560e01c8062923f9e146132d1578062c61240146132b357806301ffc9a7146131f757806306fdde0314613167578063081812fc14613129578063095ea7b31461304257806312cb5f2c146107635780631692a94214612ea057806316b784fe14612e615780631734ac1b14612d6657806318160ddd14612d485780631b929c2114612d1f5780631c67494e14612c7657806323b872dd14612c5f578063248a9ca314612c3057806326d1d73114612b0f57806329cd14bb146128cc5780632aa677e21461286e5780632f2ff15d1461282f5780632f745c59146127ab57806330fca950146125cc57806336568abe146125855780633a2c2eff146122f757806340f348bf146122c657806342842e0e1461229e57806347b0978e146122375780634f6ccce71461221957806351640fee146120a957806355087602146120615780635c0cedd114611fe65780636352211e14611fb65780636d1539e414611f9c57806370388b9114611e9d57806370a0823114611e72578063715018a614611e1557806379ac6db914611c3d5780637a490fe114611bc85780637ea04e2314611bb15780638b6c122114611b655780638bcf979c14611b2a5780638da5cb5b14611b0157806391110d70146119e757806391d148541461199a57806395d89b41146118d457806398fa4e8d146118ba5780639e1223771461176c578063a217fddf14611750578063a22cb465146116a5578063b1466d1d146113af578063b85176db14611383578063b88d4fde1461131f578063baab92a914611270578063bd4d8bcb146111ad578063c33786cc14610a25578063c87b56dd146109cc578063d1f6c5851461092c578063d290994914610873578063d547741f14610832578063d76db64114610801578063db5cb3f8146107d5578063e1888c13146107a7578063e59fde1514610763578063e985e9c51461070d578063f23e35a1146105c9578063f2fde38b1461053c5763fdf385c40361000e57346105375761035836613964565b9160008051602061509a833981519152600052602093600c8552604060002033600052855260ff604060002054161561051f576103958483614ac6565b60005b8281106103a157005b6103ac8184846139d4565b356103b88287876140e1565b82156105065780156104f457826000526011895260406000206001600160401b0382116104de576103f3826103ed8354613876565b83613dac565b6000601f8311600114610464579160019594939161043882806000805160206150da83398151915296600091610459575b508160011b916000199060031b1c19161790565b90555b6104506040519283928d84528d8401916139fa565b0390a201610398565b905085013538610424565b601f19831690826000528b6000209160005b8d8282106104c85750509160019796959391856000805160206150da8339815191529694106104ae575b50508682811b01905561043b565b840135600019600385901b60f8161c1916905538806104a0565b600184958293958a013581550194019201610476565b634e487b7160e01b600052604160045260246000fd5b60405163206e688f60e11b8152600490fd5b604051632d436f5b60e11b815260048101849052602490fd5b604051636cfe7de360e11b8152336004820152602490fd5b6132f9565b346105375760203660031901126105c457610555613429565b61055d61424f565b6001600160a01b039081169081156105ab57600b80546001600160a01b031981168417909155167f8be0079c531659141344cd1fd0a4f28419497f9722a3daafe3b4186f6b6457e0600080a3005b604051631e4fbdf760e01b815260006004820152602490fd5b613349565b346105375760403660031901126105c457600435801515809103610708576105ef613955565b906009906009549060009260005b83811061060f57602085604051908152f35b61061881613e0c565b600052602090600e825260406000208460405161063481613714565b60018060a01b039485845416825260019586850154169082015260028301546040820152600383015460608201526004830154608082015260ff906101606106d6600b846005880154169460a085019515158652610694600689016138b0565b60c08601526007880154169660e0850197151588526106b5600882016138b0565b6101008601528a810154610120860152600a810154610140860152016138b0565b9101525115151490816106f9575b506106f0575b016105fd565b948101946106ea565b905051151587151514886106e4565b600080fd5b346105375760403660031901126105c457610726613429565b61072e61343f565b9060018060a01b03809116600052600560205260406000209116600052602052602060ff604060002054166040519015158152f35b346105375760203660031901126105c45760043560005260116020526107a361078f60406000206138b0565b6040519182916020835260208301906133e9565b0390f35b34610537576107a36107c16107bb36613860565b90614d11565b60405191829160208352602083019061364d565b346105375760203660031901126105c45760043560005260146020526020604060002054604051908152f35b346105375760203660031901126105c4576004356000526012602052602060ff604060002054166040519015158152f35b346105375760403660031901126105c45761087160043561085161343f565b9080600052600c60205261086c6001604060002001546143a2565b614308565b005b346105375761088136613964565b33600090815260008051602061507a83398151915260209081526040909120549394929390919060ff161561051f576108ba8186614ac6565b60005b8581106108c657005b806108d460019288876139d4565b356108de816139aa565b6108ea575b50016108bd565b80600052600e855233838060a01b03846040600020015416036108e3576109269061092061091984878b6140e1565b3691613787565b90614604565b876108e3565b34610537576020806003193601126105c4576004356001600160401b0381116109c75761095d90369060040161352a565b9161096783613d05565b9260005b81811061098857604051602080825281906107a3908201886136b7565b8061099660019284876139d4565b35600052601184526109ab60406000206138b0565b6109b58288613d81565b526109c08187613d81565b500161096b565b613399565b346105375760203660031901126105c4576004356109e9816141eb565b5060005260066020526107a3610a0260406000206138b0565b6000604051610a1081613730565b526040519182916020835260208301906133e9565b346105375760803660031901126105c457610a3e613429565b6064356001600160401b0381116109c757610a5d903690600401613813565b33600090815260008051602061507a833981519152602052604090205490919060ff161561051f576001600160a01b0381161561118b5781511561116557610aa6602435614983565b6001600d54019081600d5581600052600260205260018060a01b036040600020541615158061115d575b611144576000828152600260205260409020546001600160a01b0316801590811561110d575b6001600160a01b0383166000818152600360209081526040808320805460010190558783526002909152812080546001600160a01b0319168317905585919083906000805160206150ba8339815191529080a4811561107d5760095484600052600a60205280604060002055600160401b8110156104de5784610b82826001610b9b9401600955613df1565b90919082549060031b91821b91600019901b1916179055565b6001600160a01b03831603611013575b15610ffa5760405192610bbd84613714565b60018060a01b038216845233602085015260243560408501524260608501526044356080850152600060a085015260c0840152600060e0840152604051610c0381613730565b600081526101008401526001610120840152426101408401526040518060408101106001600160401b036040830111176104de5760408101604052601081526f496e697469616c2069737375616e636560801b602082015261016084015281600052600e602052604060002060018060a01b0384511660018060a01b03198254161781556001810160018060a01b0360208601511660018060a01b0319825416179055604084015160028201556060840151600382015560808401516004820155610ce360a08501511515600583019060ff801983541691151516179055565b60c08401518051906001600160401b0382116104de57610d1382610d0a6006860154613876565b60068601613dac565b602090601f8311600114610f8857610d44929160009183610e98575b50508160011b916000199060031b1c19161790565b60068201555b610d6960e08501511515600783019060ff801983541691151516179055565b6101008401518051906001600160401b0382116104de57610d9a82610d916008860154613876565b60088601613dac565b602090601f8311600114610f145782600b936101609593610dd193600092610f095750508160011b916000199060031b1c19161790565b60088201555b6101208601516009820155610140860151600a820155019301519283516001600160401b0381116104de57602094610e1982610e138554613876565b85613dac565b8590601f8311600114610ea357610e48929160009183610e985750508160011b916000199060031b1c19161790565b90555b604051602435815242848201526044356040820152827f636175608525e128a815a142ae0108300a1bf57c9fae45774e336ba6686a4c0f6060339460018060a01b031693a4604051908152f35b015190508780610d2f565b90601f1983169184600052876000209260005b818110610ef25750908460019594939210610ed9575b505050811b019055610e4b565b015160001960f88460031b161c19169055868080610ecc565b929389600181928786015181550195019301610eb6565b015190508980610d2f565b90601f198316916008850160005260206000209260005b818110610f705750926001928592600b96610160989610610f57575b505050811b016008820155610dd7565b015160001960f88460031b161c19169055888080610f47565b92936020600181928786015181550195019301610f2b565b9190600684016000526020600020906000935b601f1984168510610fdf576001945083601f19811610610fc6575b505050811b016006820155610d4a565b015160001960f88460031b161c19169055868080610fb6565b81810151835560209485019460019093019290910190610f9b565b6040516339e3563760e11b815260006004820152602490fd5b61101c82613e48565b806000198101116110675760018060a01b0383166000526007602052604060002060001982016000526020528360406000205583600052600860205260001901604060002055610bab565b634e487b7160e01b600052601160045260246000fd5b6001600160a01b0383168114610b9b5761109681613e48565b846000526008602052604060002054908260005260076020526040600020918181036110e0575b508560005260086020526000604081205560005260205260006040812055610b9b565b816000528260205260406000205481600052806040600020556000526008602052604060002055876110bd565b600084815260046020526040902080546001600160a01b031916905580600052600360205260406000206000198154019055610af6565b6040516380e63c5b60e01b815260048101839052602490fd5b506001610ad0565b6040516355b7113960e11b8152602060048201528061118760248201856133e9565b0390fd5b604051631397721d60e11b81526001600160a01b039091166004820152602490fd5b346105375760203660031901126105c4576111c6613429565b6111ce61424f565b6001600160a01b0381169081156112575781600052600f60205260ff6040600020541661123f576112179082600052600f6020526040600020600160ff198254161790556143e6565b507f2aef8a157b05c49aaaeebd094bf2b10b2b90835af1fd87c288f6effa9a6a2434600080a2005b60405162a86b3b60e31b815260048101839052602490fd5b604051631397721d60e11b815260048101839052602490fd5b34610537576020806003193601126105c4576004356001600160401b0381116109c7576112a190369060040161352a565b90916112ab61424f565b60005b8281106112b757005b806112c560019285876139d4565b356112cf816139aa565b6112db575b50016112ae565b806000526012845260406000208360ff1982541617905533907fba5b566c31f867be22a7d2c2dc448643e8aad68e820fe0b8e493fef50609b40b600080a3856112d4565b346105375760803660031901126105c457611338613429565b61134061343f565b606435916001600160401b0383116109c7573660238401121561137e57611374610871933690602481600401359101613787565b9160443591613f36565b613455565b346105375760603660031901126105c4576107a36107c16113a2613429565b60443590602435906149a4565b34610537576113bd36613831565b33600090815260008051602061507a83398151915260209081526040909120549092919060ff161561051f576113f282614226565b81600052600e835260406000209060405161140c81613714565b82546001600160a01b0390811682526001848101548216878401908152600286015460408501526003860154606085015260048601546080850152600586015460ff16151560a085015290949092611466600683016138b0565b60c08201526101606114b3600b60ff6007860154169460e085019515158652611491600882016138b0565b6101008601526009810154610120860152600a810154610140860152016138b0565b9101525161168c57339151160361166d5782600052600e84526040600020600781018360ff198254161790556008810182516001600160401b0381116104de57611507816115018454613876565b84613dac565b86601f82116001146116095781600b949392611538926000916115fe57508160011b916000199060031b1c19161790565b90555b6009810184815401905542600a820155016115568154613876565b601f81116115dd575b5060267210d95c9d1a599a58d85d19481c995d9bdad959606a1b019055827fe30209e229ea01f995092aa4cd5d70b4cd972c12645ab69fa4884bd9882f778f604051868152806115b33395898301906133e9565b0390a3604051926000845283015242604083015260008051602061503a83398151915260603393a3005b6115f89082600052601f87600020910160051c810190613d95565b8561155f565b90508601518a610424565b6000838152888120601f198416959493889390925b8b88821061165757505082600b971061163e575b5050811b01905561153b565b87015160001960f88460031b161c191690558980611632565b828a015184558a9590930192918201910161161e565b604051632ed467df60e21b815260048101849052336024820152604490fd5b604051633333331160e21b815260048101869052602490fd5b346105375760403660031901126105c4576116be613429565b6116c6613955565b6001600160a01b03909116908115611737573360005260056020526040600020826000526020526117078160406000209060ff801983541691151516179055565b60405190151581527f17307eab39ab6107e8899845ad3d59bd9653f200f220920489ca2b5937696c3160203392a3005b604051630b61174360e31b815260048101839052602490fd5b346105375760003660031901126105c457602060405160008152f35b346105375761177a36613831565b33600090815260008051602061507a83398151915260209081526040909120549092919060ff161561051f576117af82614983565b8051156104f45781600052601183526040600020928151936001600160401b0385116104de576117e3856103ed8354613876565b81601f861160011461184757856000805160206150da83398151915295966118209260009161183c57508160011b916000199060031b1c19161790565b90555b6118376040519282849384528301906133e9565b0390a2005b905085015188610424565b601f1986169082600052836000209160005b8181106118a357509187916000805160206150da83398151915297986001941061188a575b5050811b019055611823565b86015160001960f88460031b161c19169055878061187e565b91928560018192868a015181550194019201611859565b34610537576107a36107c16118ce36613860565b90614c16565b346105375760003660031901126105c4576040516000600182600154926118fa84613876565b928383526020948560018216918260001461197a57505060011461193a575b506119269250038361374b565b6107a36040519282849384528301906133e9565b849150600160005281600020906000915b858310611962575050611926935082010185611919565b8054838901850152879450869390920191810161194b565b60ff19168582015261192695151560051b85010192508791506119199050565b346105375760403660031901126105c4576119b361343f565b600435600052600c60205260406000209060018060a01b0316600052602052602060ff604060002054166040519015158152f35b346105375760203660031901126105c457600435611a0481614226565b80600052601460205260406000205415611ae957600b546000828152600e6020908152604080832060010154338085527f13649b2456f1b42fef0f0040b3aaeabcd21a76a0f3f5defd4f583839455116e89093529220546001600160a01b03938416909114159260ff909116911682611ade575b5081611ad5575b50611ab657611a8d8161437f565b33907f11143d655e249bbbffa03e33226891bc14a87c6a65dfb9ffd68f68ac5efe3a1f600080a3005b60405162f7538360e11b81526004810191909152336024820152604490fd5b90501582611a7f565b331415915083611a78565b60249060405190636ea6c95d60e11b82526004820152fd5b346105375760003660031901126105c457600b546040516001600160a01b039091168152602090f35b346105375760003660031901126105c45760206040517fae4a0595970935aa5495afbbb72e5f1f6ff1062766b4a3028c0c9b7d5cf7e3458152f35b346105375760203660031901126105c4577f1e1d873080a18041b863cb051bd8b12bc7e94f46a18e380428225fd573c89e076020600435611ba461424f565b80601355604051908152a1005b3461053757610871611bc236613831565b90613e81565b346105375760403660031901126105c4576004356024356001600160401b0381116109c757611bfb903690600401613564565b33600090815260008051602061507a833981519152602052604090205491929160ff161561051f576108719261092091611c3484614226565b610919846144eb565b34610537576020806003193601126105c4576004356001600160401b0381116109c757611c6e90369060040161352a565b909160008051602061509a833981519152600052600c8152604060002033600052815260ff9060ff604060002054161561051f5760005b838110611cae57005b80611cbc60019286886139d4565b35611cc6816139aa565b611cd2575b5001611ca5565b80600052600e9081855260406000209160405192611cef84613714565b858060a01b0393848254168152869485830154168882015260028201546040820152886003830154926060938484015260048101546080840152600592610160611d71600b8587860154169560a085019615158752611d50600687016138b0565b60c08601526007860154169460e085019515158652611491600882016138b0565b91015251159081611e0b575b50611d8c575b50505050611ccb565b60008051602061503a8339815191529284600052885260406000200160ff1990858282541617905560108852846040600020918254161790556040519333847fd7c96d6fc66839b1626cff5f8eccbacfa07b17981e577e09f16310f5fca240a8600080a384526000878501524260408501523393a38680808080611d83565b905051158c611d7d565b346105375760003660031901126105c457611e2e61424f565b600b80546001600160a01b031981169091556000906001600160a01b03167f8be0079c531659141344cd1fd0a4f28419497f9722a3daafe3b4186f6b6457e08280a3005b346105375760203660031901126105c4576020611e95611e90613429565b613e48565b604051908152f35b346105375760203660031901126105c457600435600052600e6020526040600020600160a01b6001900390818154169160018201541690600281015492600382015491600481015491600582015460ff169060068301611efc906138b0565b600784015460ff1691611f11600886016138b0565b93600986015496600a87015496600b01611f2a906138b0565b986040519b8c9b610180958d5260208d015260408c015260608b015260808a0152151560a08901528060c08901528701611f63916133e9565b90151560e0870152858103610100870152611f7d916133e9565b916101208501526101408401528281036101608401526107a3916133e9565b34610537576107a36107c1611fb036613860565b90614b02565b346105375760203660031901126105c4576020611fd46004356141eb565b6040516001600160a01b039091168152f35b3461053757611ff436613831565b90611ffe81614226565b612007816144eb565b7f5dc19f30c4d56eb5ff19a063cc38bf24c94258263f26e69011dc680bad583f2a60135442019282600052601460205242604060002055612053604051916040835260408301906133e9565b9360208201528033940390a3005b346105375761206f36613591565b60009291925b82811061207e57005b806120a361208f60019386896139d4565b35339061209d36878a613787565b9061452f565b01612075565b346105375760203660031901126105c4576004356120c681614226565b600052600e6020526040600020604051906120e082613714565b6107a360018060a01b0392838354168152612180600b85600186015416946020840195865260028101546040850152600381015460608501526004810154608085015260ff600582015416151560a085015261213e600682016138b0565b60c085015260ff600782015416151560e085015261215e600882016138b0565b6101008501526009810154610120850152600a810154610140850152016138b0565b9384610160830152808251169351169360408201516121fe6060840151608085015160a0860151151560e0870151151591610100880151936101406101208a0151990151966040519c8d9c8d5260208d015260408c015260608b015260808a015260a089015260c088015261016060e08801526101608701906133e9565b926101008601526101208501528382036101408501526133e9565b346105375760203660031901126105c4576020611e95600435613e0c565b346105375760203660031901126105c45760043561225361424f565b61225c81614226565b8060005260126020526040600020600160ff1982541617905533907fba5b566c31f867be22a7d2c2dc448643e8aad68e820fe0b8e493fef50609b40b600080a3005b34610537576108716122af366135db565b90604051926122bd84613730565b60008452613f36565b346105375760203660031901126105c4576004356000526010602052602060ff604060002054166040519015158152f35b346105375760603660031901126105c4576024356004356001600160401b036044358181116109c75761232e903690600401613813565b9260008051602061509a833981519152600052602091600c8352604060002033600052835260ff604060002054161561051f5761236a84614226565b83600052600e83526040600020906040519161238583613714565b80546001600160a01b03908116845260018281015490911686850152600282015460408501526003820154606085015260048201546080850152600582015460ff16151560a0850152926123db600683016138b0565b60c0820152610160612406600b60ff6007860154169460e085019515158652611491600882016138b0565b9101525161168c57612417856144eb565b8551156125635784600052600e8452600b6040600020846004820155600981016001815401905542600a820155019186519182116104de5761245d82610e138554613876565b8490601f83116001146124d75750916124b3827f2bf0396acfbe141ba9874474910bf82cf9d678e79aa0dcaf67347d9639849908979893611837956000916124cc57508160011b916000199060031b1c19161790565b90555b60408051948594855284015260408301906133e9565b90508401518a610424565b90601f1983168460005286600020926000905b82821061254c575050926118379492600192827f2bf0396acfbe141ba9874474910bf82cf9d678e79aa0dcaf67347d96398499089a9b9610612533575b5050811b0190556124b6565b85015160001960f88460031b161c191690558980612527565b8a84015185559384019392880192908801906124ea565b6040516355b7113960e11b8152600481018590528061118760248201896133e9565b346105375760403660031901126105c45761259e61343f565b336001600160a01b038216036125ba5761087190600435614308565b60405163334bd91960e11b8152600490fd5b34610537576020806003193601126105c4576004356001600160401b0381116109c7576125fd90369060040161352a565b9161260783613d05565b9161261184613d4f565b9061261b85613d4f565b9261262586613d05565b9560005b81811061267e57612654876107a38a6126708a6126628b6040519788976080895260808901906136b7565b90878203602089015261364d565b90858203604087015261364d565b9083820360608501526136b7565b8061268c60019284876139d4565b35612696816139aa565b6126a2575b5001612629565b600052600e84526040600020604051906126bb82613714565b838060a01b0380825416835284820154168683015260028101546040830152600381015460608301526004810154608083015260ff80600583015416151560a084015261270a600683016138b0565b60c0840152600782015416151560e0830152612728600882016138b0565b6101008301908152600982015490610120840191825261016061275a600b600a860154956101408801968752016138b0565b94019384525161276a858d613d81565b52612775848c613d81565b5051612781848a613d81565b525161278d838a613d81565b5251612799828b613d81565b526127a4818a613d81565b508961269b565b346105375760403660031901126105c4576127c4613429565b602435906127d181613e48565b8210156128045760018060a01b031660005260076020526040600020906000526020526020604060002054604051908152f35b60405163295f44f760e21b81526001600160a01b039190911660048201526024810191909152604490fd5b346105375760403660031901126105c45761087160043561284e61343f565b9080600052600c6020526128696001604060002001546143a2565b614470565b346105375760203660031901126105c457612887613429565b60095460009160005b8281106128a257602084604051908152f35b6128b4826128af83613e0c565b614adf565b6128c1575b600101612890565b6001909301926128b9565b346105375760203660031901126105c4576004356001600160401b0381116109c7576128fc90369060040161352a565b61290581613d4f565b9161290f82613d4f565b61291883613d4f565b61292184613d4f565b9061292b85613d4f565b9261293586613d4f565b9461293f87613d4f565b9660005b8181106129ce57508860e06107a38a6129c08b6129b28c6129a48d6129968e6129888f61297a6040519e8f9e8f8181520190613610565b8d810360208f015290613610565b908b820360408d015261364d565b9089820360608b015261364d565b90878203608089015261364d565b9085820360a0870152613681565b9083820360c0850152613681565b806129dc60019284866139d4565b356129e6816139aa565b6129f2575b5001612943565b600052600e60205260e06040600020612a86600b60405192612a1384613714565b868060a01b038154168452868060a01b038782015416602085015260028101546040850152600381015460608501526004810154608085015260ff600582015416151560a0850152612a67600682016138b0565b60c085015260ff60078201541615158585015261215e600882016138b0565b6101608201528c612aa084868060a01b0384511692613d81565b52838060a01b03602082015116612ab78489613d81565b526040810151612ac7848a613d81565b526060810151612ad7848b613d81565b526080810151612ae7848c613d81565b5260a08101511515612af9848d613d81565b5201511515612b08828c613d81565b528b6129eb565b34610537576020806003193601126105c4576004356001600160401b0381116109c757612b4090369060040161352a565b600b546001600160a01b039391908416331480159160005b818110612b6157005b612b6c8183886139d4565b3590612b77826139aa565b15612c2557816000526014865260406000205415612c2557600e865260019185338a8560406000200154161460008052600c8952604060002033600052895260ff60406000205416908792612c1d575b508115612c15575b50612bdf575b5001945b94612b58565b612be88161437f565b33907f11143d655e249bbbffa03e33226891bc14a87c6a65dfb9ffd68f68ac5efe3a1f600080a388612bd5565b90508a612bcf565b91508b612bc7565b600191500194612bd9565b346105375760203660031901126105c457600435600052600c6020526020600160406000200154604051908152f35b3461053757610871612c70366135db565b91613a1b565b346105375760203660031901126105c457612c8f613429565b612c9761424f565b6001600160a01b0381169081156112575781600052600f60205260ff6040600020541615612d0657612cde9082600052600f602052604060002060ff19815416905561427b565b507f5f2c961a0db2d72fa01bfae36aaca642457678d9c63adaca86c8cb1b3d1230f4600080a2005b6040516301ac7a4560e71b815260048101839052602490fd5b346105375760003660031901126105c457602060405160008051602061509a8339815191528152f35b346105375760003660031901126105c4576020600954604051908152f35b3461053757612d7436613591565b33600090815260008051602061507a833981519152602090815260409091205493949390929060ff161561051f57612dae601354426139c7565b9460005b818110612dbb57005b612dc68183886139d4565b3590612dd1826139aa565b15612e565781600052600e86526001913360018060a01b0384604060002001541614612e02575b5001945b94612db2565b601487524260406000205560405190604082527f5dc19f30c4d56eb5ff19a063cc38bf24c94258263f26e69011dc680bad583f2a612e446040840189896139fa565b928b8a8201528033940390a388612df8565b600191500194612dfc565b346105375760203660031901126105c4576001600160a01b03612e82613429565b16600052600f602052602060ff604060002054166040519015158152f35b34610537576020806003193601126105c45760043560008051602061509a833981519152600052600c8252604060002033600052825260ff604060002054161561051f57612eed81614226565b80600052600e82526040600020604051612f0681613714565b81546001600160a01b03908116825260018301541684820152600282015460408201526003820154606082015260048201546080820152600582015460ff16151560a0820190815290612f5b600684016138b0565b60c0820152610160612f86600b60ff6007870154169560e085019615158752611491600882016138b0565b9101525161302957516130115780600052600e8252600560406000200160ff199060018282541617905560108352600160406000209182541617905560006040519233837fd7c96d6fc66839b1626cff5f8eccbacfa07b17981e577e09f16310f5fca240a88480a36001845283015242604083015260008051602061503a83398151915260603393a3005b60249060405190633333331160e21b82526004820152fd5b60405163a9736f3b60e01b815260048101839052602490fd5b346105375760403660031901126105c45761305b613429565b602435613067816141eb565b33151580613116575b806130e9575b6130d1576001600160a01b039283169282918491167f8c5be1e5ebec7d5bd14f71427d1e84f3dd0314c0f7b2291e5b200ac8c7c3b925600080a4600090815260046020526040902080546001600160a01b0319169091179055005b60405163a9fbf51f60e01b8152336004820152602490fd5b5060018060a01b038116600052600560205260406000203360005260205260ff6040600020541615613076565b506001600160a01b038116331415613070565b346105375760203660031901126105c457600435613146816141eb565b506000526004602052602060018060a01b0360406000205416604051908152f35b346105375760003660031901126105c45760405160008054908261318a83613876565b918282526020936001908560018216918260001461197a5750506001146131b857506119269250038361374b565b8491506000805281600020906000915b8583106131df575050611926935082010185611919565b805483890185015287945086939092019181016131c8565b346105375760203660031901126105c45760043563ffffffff60e01b811680910361070857602090637965db0b60e01b811490811561323c575b506040519015158152f35b63780e9d6360e01b811491508115613256575b5082613231565b632483248360e11b811491508115613270575b508261324f565b6380ac58cd60e01b8114915081156132a2575b8115613291575b5082613269565b6301ffc9a760e01b1490508261328a565b635b5e139f60e01b81149150613283565b346105375760003660031901126105c4576020601354604051908152f35b346132f95760203660031901126105c45760206132ef6004356139aa565b6040519015158152f35b60405162461bcd60e51b815260206004820152602260248201527f45746865722073656e7420746f206e6f6e2d70617961626c652066756e63746960448201526137b760f11b6064820152608490fd5b60405162461bcd60e51b815260206004820152602260248201527f414249206465636f64696e673a207475706c65206461746120746f6f2073686f6044820152611c9d60f21b6064820152608490fd5b60405162461bcd60e51b815260206004820152602260248201527f414249206465636f64696e673a20696e76616c6964207475706c65206f666673604482015261195d60f21b6064820152608490fd5b919082519283825260005b848110613415575050826000602080949584010152601f8019910116010190565b6020818301810151848301820152016133f4565b600435906001600160a01b038216820361070857565b602435906001600160a01b038216820361070857565b60405162461bcd60e51b815260206004820152602b602482015260008051602061501a83398151915260448201526a1c9c985e481bd9999cd95d60aa1b6064820152608490fd5b60405162461bcd60e51b815260206004820152602b602482015260008051602061501a83398151915260448201526a0e4e4c2f240d8cadccee8d60ab1b6064820152608490fd5b60405162461bcd60e51b815260206004820152602b602482015260008051602061501a83398151915260448201526a727261792073747269646560a81b6064820152608490fd5b9181601f8401121561137e578235916001600160401b03831161355f576020808501948460051b01011161355a57565b6134e3565b61349c565b9181601f8401121561137e578235916001600160401b03831161355f576020838186019501011161355a57565b60406003198201126105c4576001600160401b03916004358381116109c757826135bd9160040161352a565b939093926024359182116109c7576135d791600401613564565b9091565b60609060031901126105c4576001600160a01b0390600435828116810361070857916024359081168103610708579060443590565b90815180825260208080930193019160005b828110613630575050505090565b83516001600160a01b031685529381019392810192600101613622565b90815180825260208080930193019160005b82811061366d575050505090565b83518552938101939281019260010161365f565b90815180825260208080930193019160005b8281106136a1575050505090565b8351151585529381019392810192600101613693565b90808251908181526020809101926020808460051b8301019501936000915b8483106136e65750505050505090565b9091929394958480613704600193601f198682030187528a516133e9565b98019301930191949392906136d6565b61018081019081106001600160401b038211176104de57604052565b602081019081106001600160401b038211176104de57604052565b90601f801991011681019081106001600160401b038211176104de57604052565b6001600160401b0381116104de57601f01601f191660200190565b9291926137938261376c565b916137a1604051938461374b565b8294818452818301116137be578281602093846000960137010152565b60405162461bcd60e51b815260206004820152602760248201527f414249206465636f64696e673a20696e76616c69642062797465206172726179604482015266040d8cadccee8d60cb1b6064820152608490fd5b9080601f8301121561137e5781602061382e93359101613787565b90565b9060406003198301126105c45760043591602435906001600160401b0382116109c75761382e91600401613813565b60409060031901126105c4576004359060243590565b90600182811c921680156138a6575b602083101461389057565b634e487b7160e01b600052602260045260246000fd5b91607f1691613885565b906040519182600082546138c381613876565b9081845260209460019160018116908160001461393357506001146138f4575b5050506138f29250038361374b565b565b600090815285812095935091905b81831061391b5750506138f293508201013880806138e3565b85548884018501529485019487945091830191613902565b925050506138f294925060ff191682840152151560051b8201013880806138e3565b60243590811515820361070857565b60406003198201126105c4576001600160401b03916004358381116109c757826139909160040161352a565b939093926024359182116109c7576135d79160040161352a565b6000908152600260205260409020546001600160a01b0316151590565b9190820180921161106757565b91908110156139e45760051b0190565b634e487b7160e01b600052603260045260246000fd5b908060209392818452848401376000828201840152601f01601f1916010190565b6001600160a01b0382811693918415613cd55760009483865260209560028752604096848883205416151580613ccd575b613cb557858252600281528488832054169633151580613c27575b5087158015613bf4575b84845260038352898420805460010190558784526002835289842080546001600160a01b0319168617905587858a6000805160206150ba8339815191528780a415613b8857600954878452600a8352898420819055600160401b811015613b745787610b82826001613ae69401600955613df1565b838803613b22575b505050501692838303613b015750505050565b6064945051926364283d7b60e01b8452600484015260248301526044820152fd5b613b2b90613e48565b600019810193908411613b605782916008918a9452600781528383208584528152878484205587835252205538808080613aee565b634e487b7160e01b83526011600452602483fd5b634e487b7160e01b84526041600452602484fd5b878414613ae657613b9888613e48565b878452600883528984205490898552600784528a852091818103613bd2575b5088855260088452848b812055845282528289812055613ae6565b8186528285528b862054818752808d8820558652600885528b86205538613bb7565b600088815260046020526040902080546001600160a01b0319169055888452600383528984208054600019019055613a71565b80613c74575b15613c385738613a67565b888789613c55576024915190637e27328960e01b82526004820152fd5b905163177e802f60e01b81523360048201526024810191909152604490fd5b503388148015613c99575b80613c2d57508683526004825233868a8520541614613c2d565b5087835260058252888320338452825260ff8984205416613c7f565b87516380e63c5b60e01b815260048101879052602490fd5b506001613a4c565b604051633250574960e11b815260006004820152602490fd5b6001600160401b0381116104de5760051b60200190565b90613d0f82613cee565b613d1c604051918261374b565b8281528092613d2d601f1991613cee565b019060005b828110613d3e57505050565b806060602080938501015201613d32565b90613d5982613cee565b613d66604051918261374b565b8281528092613d77601f1991613cee565b0190602036910137565b80518210156139e45760209160051b010190565b818110613da0575050565b60008155600101613d95565b9190601f8111613dbb57505050565b6138f2926000526020600020906020601f840160051c83019310613de7575b601f0160051c0190613d95565b9091508190613dda565b6009548110156139e457600960005260206000200190600090565b600954811015613e2957613e1f90613df1565b90549060031b1c90565b6044906040519063295f44f760e21b8252600060048301526024820152fd5b6001600160a01b03168015613e6857600052600360205260406000205490565b6040516322718ad960e21b815260006004820152602490fd5b90613e8b82614226565b600b546001600160a01b03163314613f0a57613ea6826144eb565b613eaf82614948565b15613ef157906138f2918160008051602061505a8339815191526040516020815280613ee0339560208301906133e9565b0390a3613eec81614738565b61437f565b6040516315ca9f7160e01b815260048101839052602490fd5b906138f2918160008051602061505a8339815191526040516020815280613ee0339560208301906133e9565b613f41838383613a1b565b813b613f4e575b50505050565b92936001600160a01b03918216939192909190843b1561408e5760405193630a85bd0160e11b9283865233600487015216602485015260448401526080606484015282613fa160209660848301906133e9565b039285816000958187895af184918161404a575b50614015575050503d60001461400d573d613fcf8161376c565b90613fdd604051928361374b565b81528091843d92013e5b8051928361400857604051633250574960e11b815260048101849052602490fd5b019050fd5b506060613fe7565b919450915063ffffffff60e01b1603614032575038808080613f48565b60249060405190633250574960e11b82526004820152fd5b9091508681813d8311614087575b614062818361374b565b810103126105c457516001600160e01b031981168103614083579038613fb5565b8480fd5b503d614058565b60405162461bcd60e51b815260206004820152602560248201527f54617267657420636f6e747261637420646f6573206e6f7420636f6e7461696e60448201526420636f646560d81b6064820152608490fd5b91908110156139e45760051b81013590601e19813603018212156141a65701908135916001600160401b038311614161576020018236038113614122579190565b60405162461bcd60e51b815260206004820152601760248201527610d85b1b19185d18481d185a5b081d1bdbc81cda1bdc9d604a1b6044820152606490fd5b60405162461bcd60e51b815260206004820152601c60248201527f496e76616c69642063616c6c64617461207461696c206c656e677468000000006044820152606490fd5b60405162461bcd60e51b815260206004820152601c60248201527f496e76616c69642063616c6c64617461207461696c206f6666736574000000006044820152606490fd5b6000818152600260205260409020546001600160a01b031690811561420e575090565b60249060405190637e27328960e01b82526004820152fd5b61422f816139aa565b156142375750565b602490604051906379d9be1360e01b82526004820152fd5b600b546001600160a01b0316330361426357565b60405163118cdaa760e01b8152336004820152602490fd5b6001600160a01b0316600081815260008051602061507a833981519152602052604081205490919060008051602061509a8339815191529060ff161561430357808352600c602052604083208284526020526040832060ff1981541690557ff6391f5c32d9c69d2a47ea670b442974b53935d1edc7fd64eb21e047a839171b339380a4600190565b505090565b90600091808352600c602052604083209160018060a01b03169182845260205260ff60408420541660001461430357808352600c602052604083208284526020526040832060ff1981541690557ff6391f5c32d9c69d2a47ea670b442974b53935d1edc7fd64eb21e047a839171b339380a4600190565b6000526014602052600060408120556012602052604060002060ff198154169055565b80600052600c60205260406000203360005260205260ff60406000205416156143c85750565b6044906040519063e2517d3f60e01b82523360048301526024820152fd5b6001600160a01b0316600081815260008051602061507a833981519152602052604081205490919060008051602061509a8339815191529060ff1661430357808352600c6020526040832082845260205260408320600160ff198254161790557f2f8788117e7eff1d82e926ec794901d17c78024a50270940304540a733656f0d339380a4600190565b90600091808352600c602052604083209160018060a01b03169182845260205260ff6040842054161560001461430357808352600c6020526040832082845260205260408320600160ff198254161790557f2f8788117e7eff1d82e926ec794901d17c78024a50270940304540a733656f0d339380a4600190565b6000818152600e60205260409020600101546001600160a01b0316330361450f5750565b604051632ed467df60e21b81526004810191909152336024820152604490fd5b600b54919290916001600160a01b0391821691908116821490614551846139aa565b156145fd57829084600052600e602052600160406000200154161481156145a8575b5061457d57505050565b8160008051602061505a833981519152613ee06138f2956040519182916020835260208301906133e9565b9050806145b6575b38614573565b50601260205260ff60406000205416806145b05750601460205260406000205480151590816145e6575b506145b0565b6145f49150601354906139c7565b421015386145e0565b5050505050565b9190916000908082526020916006835260408120908551956001600160401b0387116147245761463887610e138554613876565b8491601f88116001146146a057966146899281927ff8e1a15aba9398e019f0b49df1a4fde98ee17ae345cb5f6b5e2c27f5033e8ce79899926146955750508160011b916000199060031b1c19161790565b90555b604051908152a1565b015190503880610d2f565b9190601f198816848452868420935b81811061470d57509160019391897ff8e1a15aba9398e019f0b49df1a4fde98ee17ae345cb5f6b5e2c27f5033e8ce7999a94106146f4575b505050811b01905561468c565b015160001960f88460031b161c191690553880806146e7565b9293876001819287860151815501950193016146af565b634e487b7160e01b82526041600452602482fd5b600081815260026020908152604080832054909291906001600160a01b03908116151580614941575b61492957848352600282528383205416918215928315806148f6575b8683526002845285832080546001600160a01b03191690558683836000805160206150ba8339815191528280a48415614886575050600954858252600a8352848220819055600160401b8110156147245785610b828260016147e29401600955613df1565b60095460001992838201918211613b6057600a908784528181526148098785205493613df1565b90549060031b1c61481d81610b8286613df1565b845252848220558481528084812055600954908115614872575081019061484382613df1565b909182549160031b1b1916905560095561485b575050565b602492505190637e27328960e01b82526004820152fd5b634e487b7160e01b81526031600452602490fd5b614891575b506147e2565b61489a81613e48565b868352600884528583205491835260078452858320918181036148d4575b508683526008845282868120558252825280848120553861488b565b81845282855286842054818552808886205584526008855286842055386148b8565b600087815260046020526040902080546001600160a01b031916905581835260038452858320805460001901905561477d565b83516380e63c5b60e01b815260048101869052602490fd5b5082614761565b600052601260205260ff6040600020541661497e5760146020526040600020548015614978576013540142101590565b50600090565b600190565b801561498c5750565b60249060405190632d436f5b60e11b82526004820152fd5b92600954808310801590614abe575b614aa1576000918291835b81811080614a98575b15614a0a576149d9886128af83613e0c565b6149e6575b6001016149be565b93858110156149fd576001809101945b90506149de565b93926001809101936149f6565b509450949150614a1981613d4f565b916000928392845b87811080614a8f575b15614a8457614a3881613e0c565b614a428582614adf565b614a50575b50600101614a21565b8787929710600014614a6a57506001809101955b90614a47565b85600192979691614a7c849387613d81565b520194614a64565b505094505050505090565b50818510614a2a565b508684106149c7565b5092505050604051614ab281613730565b60008152600036813790565b5083156149b3565b03614acd57565b60405163512509d360e11b8152600490fd5b6000908152600e60205260409020600101546001600160a01b0391821691161490565b600954808210801590614c0e575b614bff576000908190825b81811080614bf6575b15614b6b57614b3a614b3582613e0c565b614e0c565b614b47575b600101614b1b565b9284811015614b5e576001809101935b9050614b3f565b9291600180910192614b57565b5093509050614b7981613d4f565b906000918291835b86811080614bed575b15614be357614b9881613e0c565b614ba181614e0c565b614baf575b50600101614b81565b8686929610600014614bc957506001809101945b90614ba6565b84600192969591614bdb849387613d81565b520193614bc3565b5050935050505090565b50818410614b8a565b50858310614b24565b505050604051614ab281613730565b508215614b10565b600954808210801590614d09575b614bff576000908190825b81811080614d00575b15614c7f57614c4e614c4982613e0c565b614ebc565b614c5b575b600101614c2f565b9284811015614c72576001809101935b9050614c53565b9291600180910192614c6b565b5093509050614c8d81613d4f565b906000918291835b86811080614cf7575b15614be357614cac81613e0c565b614cb581614ebc565b614cc3575b50600101614c95565b8686929610600014614cdd57506001809101945b90614cba565b84600192969591614cef849387613d81565b520193614cd7565b50818410614c9e565b50858310614c38565b508215614c24565b600954808210801590614e04575b614bff576000908190825b81811080614dfb575b15614d7a57614d49614d4482613e0c565b614f65565b614d56575b600101614d2a565b9284811015614d6d576001809101935b9050614d4e565b9291600180910192614d66565b5093509050614d8881613d4f565b906000918291835b86811080614df2575b15614be357614da781613e0c565b614db081614f65565b614dbe575b50600101614d90565b8686929610600014614dd857506001809101945b90614db5565b84600192969591614dea849387613d81565b520193614dd2565b50818410614d99565b50858310614d33565b508215614d1f565b600052600e60205260406000206001604051614e2781613714565b818060a01b038084541682528284015416602082015260028301546040820152600383015460608201526004830154608082015260ff6005840154169060a081019115158252614e79600685016138b0565b60c0820152610160614ea4600b60ff6007880154169660e085019715158852611491600882016138b0565b910152511515149081614eb5575090565b9050511590565b600052600e6020526040600020604051614ed581613714565b81546001600160a01b0390811682526001830154166020820152600282015460408201526003820154606082015260048201546080820152600582015460ff16151560a0820190815290614f2b600684016138b0565b60c0820152610160614f56600b60ff6007870154169560e085019615158752611491600882016138b0565b91015251159081614eb5575090565b600052600e6020526040600020604051614f7e81613714565b81546001600160a01b0390811682526001830154166020820152600282015460408201526003820154606082015260048201546080820152600582015460ff16151560a0820190815290614fd4600684016138b0565b60c0820152610160614fff600b60ff6007870154169560e085019615158752611491600882016138b0565b9101525115908161500e575090565b60019150511515149056fe414249206465636f64696e673a20696e76616c69642063616c6c64617461206148f81e213b32b2c1ce2241f0e6ebac399defe4b40154c4b27eee349703d2c4c535faf8558c480dc4d2cccff074f589fa396b2de00632113765f18c4b6b43cb8ab648ddf3bddf768cd741f6298d8ff7b48ee7bc93e38d035b90b1e0338bc911ce01f18e249044142f95a61b39bad5f99f3c70699c83bb85a1ad87fe9e68bd85d1ddf252ad1be2c89b69c2b068fc378daa952ba7f163c4a11628f55a4df523b3efbbd283619af086f9a6f529d3c42028194416e7bd4589c342bcdde630dc0dae44a26469706673582212207333c0e3031fa10b89a6fd40e4b5add858f720c4c396dfa9796393fad1b3d0f264736f6c634300081700332f8788117e7eff1d82e926ec794901d17c78024a50270940304540a733656f0d",
  "linkReferences": {},
  "deployedLinkReferences": {}
}