{
  "_format": "hh-sol-artifact-1",
  "contractName": "BatchOperations",
  "sourceName": "contracts/BatchOperations.sol",
  "abi": [
    {
      "inputs": [],
      "name": "AccessControlBadConfirmation",
      "type": "error"
    },
    {
      "inputs": [
        {
          "internalType": "address",
          "name": "account",
          "type": "address"
        },
        {
          "internalType": "bytes32",
          "name": "neededRole",
          "type": "bytes32"
        }
      ],
      "name": "AccessControlUnauthorizedAccount",
      "type": "error"
    },
    {
      "inputs": [],
      "name": "ArrayLengthMismatch",
      "type": "error"
    },
    {
      "inputs": [
        {
          "internalType": "uint256",
          "name": "tokenId",
          "type": "uint256"
        }
      ],
      "name": "BurnRequestStillTimelocked",
      "type": "error"
    },
    {
      "inputs": [
        {
          "internalType": "address",
          "name": "caller",
          "type": "address"
        }
      ],
      "name": "CallerNotInstitution",
      "type": "error"
    },
    {
      "inputs": [
        {
          "internalType": "address",
          "name": "caller",
          "type": "address"
        }
      ],
      "name": "CallerNotInstructor",
      "type": "error"
    },
    {
      "inputs": [
        {
          "internalType": "uint256",
          "name": "tokenId",
          "type": "uint256"
        }
      ],
      "name": "CertificateAlreadyVerified",
      "type": "error"
    },
    {
      "inputs": [
        {
          "internalType": "uint256",
          "name": "tokenId",
          "type": "uint256"
        }
      ],
      "name": "CertificateDoesNotExist",
      "type": "error"
    },
    {
      "inputs": [
        {
          "internalType": "uint256",
          "name": "tokenId",
          "type": "uint256"
        }
      ],
      "name": "CertificateIsRevoked",
      "type": "error"
    },
    {
      "inputs": [],
      "name": "CourseNameEmpty",
      "type": "error"
    },
    {
      "inputs": [],
      "name": "ERC721EnumerableForbiddenBatchMint",
      "type": "error"
    },
    {
      "inputs": [
        {
          "internalType": "address",
          "name": "sender",
          "type": "address"
        },
        {
          "internalType": "uint256",
          "name": "tokenId",
          "type": "uint256"
        },
        {
          "internalType": "address",
          "name": "owner",
          "type": "address"
        }
      ],
      "name": "ERC721IncorrectOwner",
      "type": "error"
    },
    {
      "inputs": [
        {
          "internalType": "address",
          "name": "operator",
          "type": "address"
        },
        {
          "internalType": "uint256",
          "name": "tokenId",
          "type": "uint256"
        }
      ],
      "name": "ERC721InsufficientApproval",
      "type": "error"
    },
    {
      "inputs": [
        {
          "internalType": "address",
          "name": "approver",
          "type": "address"
        }
      ],
      "name": "ERC721InvalidApprover",
      "type": "error"
    },
    {
      "inputs": [
        {
          "internalType": "address",
          "name": "operator",
          "type": "address"
        }
      ],
      "name": "ERC721InvalidOperator",
      "type": "error"
    },
    {
      "inputs": [
        {
          "internalType": "address",
          "name": "owner",
          "type": "address"
        }
      ],
      "name": "ERC721InvalidOwner",
      "type": "error"
    },
    {
      "inputs": [
        {
          "internalType": "address",
          "name": "receiver",
          "type": "address"
        }
      ],
      "name": "ERC721InvalidReceiver",
      "type": "error"
    },
    {
      "inputs": [
        {
          "internalType": "address",
          "name": "sender",
          "type": "address"
        }
      ],
      "name": "ERC721InvalidSender",
      "type": "error"
    },
    {
      "inputs": [
        {
          "internalType": "uint256",
          "name": "tokenId",
          "type": "uint256"
        }
      ],
      "name": "ERC721NonexistentToken",
      "type": "error"
    },
    {
      "inputs": [
        {
          "internalType": "address",
          "name": "owner",
          "type": "address"
        },
        {
          "internalType": "uint256",
          "name": "index",
          "type": "uint256"
        }
      ],
      "name": "ERC721OutOfBoundsIndex",
      "type": "error"
    },
    {
      "inputs": [
        {
          "internalType": "address",
          "name": "institution",
          "type": "address"
        }
      ],
      "name": "InstitutionAlreadyAuthorized",
      "type": "error"
    },
    {
      "inputs": [
        {
          "internalType": "address",
          "name": "institution",
          "type": "address"
        }
      ],
      "name": "InstitutionNotAuthorized",
      "type": "error"
    },
    {
      "inputs": [
        {
          "internalType": "string",
          "name": "certificateHash",
          "type": "string"
        }
      ],
      "name": "InvalidCertificateHash",
      "type": "error"
    },
    {
      "inputs": [
        {
          "internalType": "uint256",
          "name": "courseId",
          "type": "uint256"
        }
      ],
      "name": "InvalidCourseId",
      "type": "error"
    },
    {
      "inputs": [
        {
          "internalType": "address",
          "name": "student",
          "type": "address"
        }
      ],
      "name": "InvalidStudentAddress",
      "type": "error"
    },
    {
      "inputs": [
        {
          "internalType": "uint256",
          "name": "tokenId",
          "type": "uint256"
        }
      ],
      "name": "NoBurnRequestExists",
      "type": "error"
    },
    {
      "inputs": [
        {
          "internalType": "uint256",
          "name": "tokenId",
          "type": "uint256"
        },
        {
          "internalType": "address",
          "name": "caller",
          "type": "address"
        }
      ],
      "name": "NotAuthorizedToCancelBurn",
      "type": "error"
    },
    {
      "inputs": [
        {
          "internalType": "uint256",
          "name": "tokenId",
          "type": "uint256"
        },
        {
          "internalType": "address",
          "name": "caller",
          "type": "address"
        }
      ],
      "name": "NotCertificateIssuer",
      "type": "error"
    },
    {
      "inputs": [
        {
          "internalType": "address",
          "name": "owner",
          "type": "address"
        }
      ],
      "name": "OwnableInvalidOwner",
      "type": "error"
    },
    {
      "inputs": [
        {
          "internalType": "address",
          "name": "account",
          "type": "address"
        }
      ],
      "name": "OwnableUnauthorizedAccount",
      "type": "error"
    },
    {
      "inputs": [
        {
          "internalType": "uint256",
          "name": "tokenId",
          "type": "uint256"
        }
      ],
      "name": "SoulboundTokenCannotBeTransferred",
      "type": "error"
    },
    {
      "anonymous": false,
      "inputs": [
        {
          "indexed": true,
          "internalType": "address",
          "name": "owner",
          "type": "address"
        },
        {
          "indexed": true,
          "internalType": "address",
          "name": "approved",
          "type": "address"
        },
        {
          "indexed": true,
          "internalType": "uint256",
          "name": "tokenId",
          "type": "uint256"
        }
      ],
      "name": "Approval",
      "type": "event"
    },
    {
      "anonymous": false,
      "inputs": [
        {
          "indexed": true,
          "internalType": "address",
          "name": "owner",
          "type": "address"
        },
        {
          "indexed": true,
          "internalType": "address",
          "name": "operator",
          "type": "address"
        },
        {
          "indexed": false,
          "internalType": "bool",
          "name": "approved",
          "type": "bool"
        }
      ],
      "name": "ApprovalForAll",
      "type": "event"
    },
    {
      "anonymous": false,
      "inputs": [
        {
          "indexed": false,
          "internalType": "uint256",
          "name": "_fromTokenId",
          "type": "uint256"
        },
        {
          "indexed": false,
          "internalType": "uint256",
          "name": "_toTokenId",
          "type": "uint256"
        }
      ],
      "name": "BatchMetadataUpdate",
      "type": "event"
    },
    {
      "anonymous": false,
      "inputs": [
        {
          "indexed": false,
          "internalType": "uint256",
          "name": "newTimelock",
          "type": "uint256"
        }
      ],
      "name": "BurnTimelockChanged",
      "type": "event"
    },
    {
      "anonymous": false,
      "inputs": [
        {
          "indexed": true,
          "internalType": "uint256",
          "name": "tokenId",
          "type": "uint256"
        },
        {
          "indexed": true,
          "internalType": "address",
          "name": "approver",
          "type": "address"
        }
      ],
      "name": "CertificateBurnApproved",
      "type": "event"
    },
    {
      "anonymous": false,
      "inputs": [
        {
          "indexed": true,
          "internalType": "uint256",
          "name": "tokenId",
          "type": "uint256"
        },
        {
          "indexed": true,
          "internalType": "address",
          "name": "canceler",
          "type": "address"
        }
      ],
      "name": "CertificateBurnRequestCanceled",
      "type": "event"
    },
    {
      "anonymous": false,
      "inputs": [
        {
          "indexed": true,
          "internalType": "uint256",
          "name": "tokenId",
          "type": "uint256"
        },
        {
          "indexed": true,
          "internalType": "address",
          "name": "requester",
          "type": "address"
        },
        {
          "indexed": false,
          "internalType": "string",
          "name": "reason",
          "type": "string"
        },
        {
          "indexed": false,
          "internalType": "uint256",
          "name": "executionTime",
          "type": "uint256"
        }
      ],
      "name": "CertificateBurnRequested",
      "type": "event"
    },
    {
      "anonymous": false,
      "inputs": [
        {
          "indexed": true,
          "internalType": "uint256",
          "name": "tokenId",
          "type": "uint256"
        },
        {
          "indexed": true,
          "internalType": "address",
          "name": "burner",
          "type": "address"
        },
        {
          "indexed": false,
          "internalType": "string",
          "name": "reason",
          "type": "string"
        }
      ],
      "name": "CertificateBurned",
      "type": "event"
    },
    {
      "anonymous": false,
      "inputs": [
        {
          "indexed": true,
          "internalType": "uint256",
          "name": "tokenId",
          "type": "uint256"
        },
        {
          "indexed": true,
          "internalType": "address",
          "name": "student",
          "type": "address"
        },
        {
          "indexed": true,
          "internalType": "address",
          "name": "institution",
          "type": "address"
        },
        {
          "indexed": false,
          "internalType": "uint256",
          "name": "courseId",
          "type": "uint256"
        },
        {
          "indexed": false,
          "internalType": "uint256",
          "name": "completionDate",
          "type": "uint256"
        },
        {
          "indexed": false,
          "internalType": "uint256",
          "name": "grade",
          "type": "uint256"
        }
      ],
      "name": "CertificateIssued",
      "type": "event"
    },
    {
      "anonymous": false,
      "inputs": [
        {
          "indexed": true,
          "internalType": "uint256",
          "name": "tokenId",
          "type": "uint256"
        },
        {
          "indexed": true,
          "internalType": "address",
          "name": "revoker",
          "type": "address"
        },
        {
          "indexed": false,
          "internalType": "string",
          "name": "reason",
          "type": "string"
        }
      ],
      "name": "CertificateRevoked",
      "type": "event"
    },
    {
      "anonymous": false,
      "inputs": [
        {
          "indexed": true,
          "internalType": "uint256",
          "name": "tokenId",
          "type": "uint256"
        },
        {
          "indexed": false,
          "internalType": "bool",
          "name": "isVerified",
          "type": "bool"
        },
        {
          "indexed": false,
          "internalType": "bool",
          "name": "isRevoked",
          "type": "bool"
        },
        {
          "indexed": true,
          "internalType": "address",
          "name": "updatedBy",
          "type": "address"
        },
        {
          "indexed": false,
          "internalType": "uint256",
          "name": "timestamp",
          "type": "uint256"
        }
      ],
      "name": "CertificateStatusChanged",
      "type": "event"
    },
    {
      "anonymous": false,
      "inputs": [
        {
          "indexed": true,
          "internalType": "uint256",
          "name": "tokenId",
          "type": "uint256"
        },
        {
          "indexed": false,
          "internalType": "uint256",
          "name": "newGrade",
          "type": "uint256"
        },
        {
          "indexed": false,
          "internalType": "string",
          "name": "updateReason",
          "type": "string"
        }
      ],
      "name": "CertificateUpdated",
      "type": "event"
    },
    {
      "anonymous": false,
      "inputs": [
        {
          "indexed": true,
          "internalType": "uint256",
          "name": "tokenId",
          "type": "uint256"
        },
        {
          "indexed": true,
          "internalType": "address",
          "name": "verifier",
          "type": "address"
        }
      ],
      "name": "CertificateVerified",
      "type": "event"
    },
    {
      "anonymous": false,
      "inputs": [
        {
          "indexed": true,
          "internalType": "uint256",
          "name": "courseId",
          "type": "uint256"
        },
        {
          "indexed": false,
          "internalType": "string",
          "name": "name",
          "type": "string"
        }
      ],
      "name": "CourseNameSet",
      "type": "event"
    },
    {
      "anonymous": false,
      "inputs": [
        {
          "indexed": true,
          "internalType": "address",
          "name": "institution",
          "type": "address"
        }
      ],
      "name": "InstitutionAuthorized",
      "type": "event"
    },
    {
      "anonymous": false,
      "inputs": [
        {
          "indexed": true,
          "internalType": "address",
          "name": "institution",
          "type": "address"
        }
      ],
      "name": "InstitutionRevoked",
      "type": "event"
    },
    {
      "anonymous": false,
      "inputs": [
        {
          "indexed": false,
          "internalType": "uint256",
          "name": "_tokenId",
          "type": "uint256"
        }
      ],
      "name": "MetadataUpdate",
      "type": "event"
    },
    {
      "anonymous": false,
      "inputs": [
        {
          "indexed": true,
          "internalType": "address",
          "name": "previousOwner",
          "type": "address"
        },
        {
          "indexed": true,
          "internalType": "address",
          "name": "newOwner",
          "type": "address"
        }
      ],
      "name": "OwnershipTransferred",
      "type": "event"
    },
    {
      "anonymous": false,
      "inputs": [
        {
          "indexed": true,
          "internalType": "bytes32",
          "name": "role",
          "type": "bytes32"
        },
        {
          "indexed": true,
          "internalType": "bytes32",
          "name": "previousAdminRole",
          "type": "bytes32"
        },
        {
          "indexed": true,
          "internalType": "bytes32",
          "name": "newAdminRole",
          "type": "bytes32"
        }
      ],
      "name": "RoleAdminChanged",
      "type": "event"
    },
    {
      "anonymous": false,
      "inputs": [
        {
          "indexed": true,
          "internalType": "bytes32",
          "name": "role",
          "type": "bytes32"
        },
        {
          "indexed": true,
          "internalType": "address",
          "name": "account",
          "type": "address"
        },
        {
          "indexed": true,
          "internalType": "address",
          "name": "sender",
          "type": "address"
        }
      ],
      "name": "RoleGranted",
      "type": "event"
    },
    {
      "anonymous": false,
      "inputs": [
        {
          "indexed": true,
          "internalType": "bytes32",
          "name": "role",
          "type": "bytes32"
        },
        {
          "indexed": true,
          "internalType": "address",
          "name": "account",
          "type": "address"
        },
        {
          "indexed": true,
          "internalType": "address",
          "name": "sender",
          "type": "address"
        }
      ],
      "name": "RoleRevoked",
      "type": "event"
    },
    {
      "anonymous": false,
      "inputs": [
        {
          "indexed": true,
          "internalType": "address",
          "name": "from",
          "type": "address"
        },
        {
          "indexed": true,
          "internalType": "address",
          "name": "to",
          "type": "address"
        },
        {
          "indexed": true,
          "internalType": "uint256",
          "name": "tokenId",
          "type": "uint256"
        }
      ],
      "name": "Transfer",
      "type": "event"
    },
    {
      "inputs": [],
      "name": "DEFAULT_ADMIN_ROLE",
      "outputs": [
        {
          "internalType": "bytes32",
          "name": "",
          "type": "bytes32"
        }
      ],
      "stateMutability": "view",
      "type": "function"
    },
    {
      "inputs": [],
      "name": "INSTITUTION_ROLE",
      "outputs": [
        {
          "internalType": "bytes32",
          "name": "",
          "type": "bytes32"
        }
      ],
      "stateMutability": "view",
      "type": "function"
    },
    {
      "inputs": [],
      "name": "INSTRUCTOR_ROLE",
      "outputs": [
        {
          "internalType": "bytes32",
          "name": "",
          "type": "bytes32"
        }
      ],
      "stateMutability": "view",
      "type": "function"
    },
    {
      "inputs": [
        {
          "internalType": "uint256",
          "name": "",
          "type": "uint256"
        }
      ],
      "name": "academicCertificates",
      "outputs": [
        {
          "internalType": "address",
          "name": "studentAddress",
          "type": "address"
        },
        {
          "internalType": "address",
          "name": "institutionAddress",
          "type": "address"
        },
        {
          "internalType": "uint256",
          "name": "courseId",
          "type": "uint256"
        },
        {
          "internalType": "uint256",
          "name": "completionDate",
          "type": "uint256"
        },
        {
          "internalType": "uint256",
          "name": "grade",
          "type": "uint256"
        },
        {
          "internalType": "bool",
          "name": "isVerified",
          "type": "bool"
        },
        {
          "internalType": "string",
          "name": "certificateHash",
          "type": "string"
        },
        {
          "internalType": "bool",
          "name": "isRevoked",
          "type": "bool"
        },
        {
          "internalType": "string",
          "name": "revocationReason",
          "type": "string"
        },
        {
          "internalType": "uint256",
          "name": "version",
          "type": "uint256"
        },
        {
          "internalType": "uint256",
          "name": "lastUpdateDate",
          "type": "uint256"
        },
        {
          "internalType": "string",
          "name": "updateReason",
          "type": "string"
        }
      ],
      "stateMutability": "view",
      "type": "function"
    },
    {
      "inputs": [
        {
          "internalType": "address",
          "name": "to",
          "type": "address"
        },
        {
          "internalType": "uint256",
          "name": "tokenId",
          "type": "uint256"
        }
      ],
      "name": "approve",
      "outputs": [],
      "stateMutability": "nonpayable",
      "type": "function"
    },
    {
      "inputs": [
        {
          "internalType": "uint256",
          "name": "tokenId",
          "type": "uint256"
        }
      ],
      "name": "approveBurnCertificate",
      "outputs": [],
      "stateMutability": "nonpayable",
      "type": "function"
    },
    {
      "inputs": [
        {
          "internalType": "uint256[]",
          "name": "tokenIds",
          "type": "uint256[]"
        }
      ],
      "name": "approveBurnMultipleCertificates",
      "outputs": [],
      "stateMutability": "nonpayable",
      "type": "function"
    },
    {
      "inputs": [
        {
          "internalType": "address",
          "name": "institution",
          "type": "address"
        }
      ],
      "name": "authorizeInstitution",
      "outputs": [],
      "stateMutability": "nonpayable",
      "type": "function"
    },
    {
      "inputs": [
        {
          "internalType": "address",
          "name": "",
          "type": "address"
        }
      ],
      "name": "authorizedInstitutions",
      "outputs": [
        {
          "internalType": "bool",
          "name": "",
          "type": "bool"
        }
      ],
      "stateMutability": "view",
      "type": "function"
    },
    {
      "inputs": [
        {
          "internalType": "address",
          "name": "owner",
          "type": "address"
        }
      ],
      "name": "balanceOf",
      "outputs": [
        {
          "internalType": "uint256",
          "name": "",
          "type": "uint256"
        }
      ],
      "stateMutability": "view",
      "type": "function"
    },
    {
      "inputs": [
        {
          "internalType": "uint256",
          "name": "",
          "type": "uint256"
        }
      ],
      "name": "burnApproved",
      "outputs": [
        {
          "internalType": "bool",
          "name": "",
          "type": "bool"
        }
      ],
      "stateMutability": "view",
      "type": "function"
    },
    {
      "inputs": [
        {
          "internalType": "uint256",
          "name": "tokenId",
          "type": "uint256"
        },
        {
          "internalType": "string",
          "name": "reason",
          "type": "string"
        }
      ],
      "name": "burnCertificate",
      "outputs": [],
      "stateMutability": "nonpayable",
      "type": "function"
    },
    {
      "inputs": [
        {
          "internalType": "uint256[]",
          "name": "tokenIds",
          "type": "uint256[]"
        },
        {
          "internalType": "string",
          "name": "reason",
          "type": "string"
        }
      ],
      "name": "burnMultipleCertificates",
      "outputs": [],
      "stateMutability": "nonpayable",
      "type": "function"
    },
    {
      "inputs": [
        {
          "internalType": "uint256",
          "name": "",
          "type": "uint256"
        }
      ],
      "name": "burnRequestTimestamps",
      "outputs": [
        {
          "internalType": "uint256",
          "name": "",
          "type": "uint256"
        }
      ],
      "stateMutability": "view",
      "type": "function"
    },
    {
      "inputs": [],
      "name": "burnTimelock",
      "outputs": [
        {
          "internalType": "uint256",
          "name": "",
          "type": "uint256"
        }
      ],
      "stateMutability": "view",
      "type": "function"
    },
    {
      "inputs": [
        {
          "internalType": "uint256[]",
          "name": "tokenIds",
          "type": "uint256[]"
        }
      ],
      "name": "cancelBurnMultipleRequests",
      "outputs": [],
      "stateMutability": "nonpayable",
      "type": "function"
    },
    {
      "inputs": [
        {
          "internalType": "uint256",
          "name": "tokenId",
          "type": "uint256"
        }
      ],
      "name": "cancelBurnRequest",
      "outputs": [],
      "stateMutability": "nonpayable",
      "type": "function"
    },
    {
      "inputs": [
        {
          "internalType": "uint256",
          "name": "",
          "type": "uint256"
        }
      ],
      "name": "courseNames",
      "outputs": [
        {
          "internalType": "string",
          "name": "",
          "type": "string"
        }
      ],
      "stateMutability": "view",
      "type": "function"
    },
    {
      "inputs": [
        {
          "internalType": "uint256",
          "name": "tokenId",
          "type": "uint256"
        }
      ],
      "name": "getApproved",
      "outputs": [
        {
          "internalType": "address",
          "name": "",
          "type": "address"
        }
      ],
      "stateMutability": "view",
      "type": "function"
    },
    {
      "inputs": [
        {
          "internalType": "uint256[]",
          "name": "tokenIds",
          "type": "uint256[]"
        }
      ],
      "name": "getCertificatesBatch",
      "outputs": [
        {
          "internalType": "address[]",
          "name": "students",
          "type": "address[]"
        },
        {
          "internalType": "address[]",
          "name": "institutions",
          "type": "address[]"
        },
        {
          "internalType": "uint256[]",
          "name": "courseIds",
          "type": "uint256[]"
        },
        {
          "internalType": "uint256[]",
          "name": "completionDates",
          "type": "uint256[]"
        },
        {
          "internalType": "uint256[]",
          "name": "grades",
          "type": "uint256[]"
        },
        {
          "internalType": "bool[]",
          "name": "verificationStatuses",
          "type": "bool[]"
        },
        {
          "internalType": "bool[]",
          "name": "revocationStatuses",
          "type": "bool[]"
        }
      ],
      "stateMutability": "view",
      "type": "function"
    },
    {
      "inputs": [
        {
          "internalType": "uint256[]",
          "name": "tokenIds",
          "type": "uint256[]"
        }
      ],
      "name": "getCertificatesBatchDetails",
      "outputs": [
        {
          "internalType": "string[]",
          "name": "revocationReasons",
          "type": "string[]"
        },
        {
          "internalType": "uint256[]",
          "name": "versions",
          "type": "uint256[]"
        },
        {
          "internalType": "uint256[]",
          "name": "lastUpdateDates",
          "type": "uint256[]"
        },
        {
          "internalType": "string[]",
          "name": "updateReasons",
          "type": "string[]"
        }
      ],
      "stateMutability": "view",
      "type": "function"
    },
    {
      "inputs": [
        {
          "internalType": "uint256",
          "name": "courseId",
          "type": "uint256"
        }
      ],
      "name": "getCourseName",
      "outputs": [
        {
          "internalType": "string",
          "name": "",
          "type": "string"
        }
      ],
      "stateMutability": "view",
      "type": "function"
    },
    {
      "inputs": [
        {
          "internalType": "uint256[]",
          "name": "courseIds",
          "type": "uint256[]"
        }
      ],
      "name": "getCourseNamesBatch",
      "outputs": [
        {
          "internalType": "string[]",
          "name": "",
          "type": "string[]"
        }
      ],
      "stateMutability": "view",
      "type": "function"
    },
    {
      "inputs": [
        {
          "internalType": "bytes32",
          "name": "role",
          "type": "bytes32"
        }
      ],
      "name": "getRoleAdmin",
      "outputs": [
        {
          "internalType": "bytes32",
          "name": "",
          "type": "bytes32"
        }
      ],
      "stateMutability": "view",
      "type": "function"
    },
    {
      "inputs": [
        {
          "internalType": "bytes32",
          "name": "role",
          "type": "bytes32"
        },
        {
          "internalType": "address",
          "name": "account",
          "type": "address"
        }
      ],
      "name": "grantRole",
      "outputs": [],
      "stateMutability": "nonpayable",
      "type": "function"
    },
    {
      "inputs": [
        {
          "internalType": "bytes32",
          "name": "role",
          "type": "bytes32"
        },
        {
          "internalType": "address",
          "name": "account",
          "type": "address"
        }
      ],
      "name": "hasRole",
      "outputs": [
        {
          "internalType": "bool",
          "name": "",
          "type": "bool"
        }
      ],
      "stateMutability": "view",
      "type": "function"
    },
    {
      "inputs": [
        {
          "internalType": "address",
          "name": "owner",
          "type": "address"
        },
        {
          "internalType": "address",
          "name": "operator",
          "type": "address"
        }
      ],
      "name": "isApprovedForAll",
      "outputs": [
        {
          "internalType": "bool",
          "name": "",
          "type": "bool"
        }
      ],
      "stateMutability": "view",
      "type": "function"
    },
    {
      "inputs": [
        {
          "internalType": "address",
          "name": "student",
          "type": "address"
        },
        {
          "internalType": "uint256",
          "name": "courseId",
          "type": "uint256"
        },
        {
          "internalType": "uint256",
          "name": "grade",
          "type": "uint256"
        },
        {
          "internalType": "string",
          "name": "certificateHash",
          "type": "string"
        }
      ],
      "name": "issueCertificate",
      "outputs": [
        {
          "internalType": "uint256",
          "name": "",
          "type": "uint256"
        }
      ],
      "stateMutability": "nonpayable",
      "type": "function"
    },
    {
      "inputs": [],
      "name": "name",
      "outputs": [
        {
          "internalType": "string",
          "name": "",
          "type": "string"
        }
      ],
      "stateMutability": "view",
      "type": "function"
    },
    {
      "inputs": [],
      "name": "owner",
      "outputs": [
        {
          "internalType": "address",
          "name": "",
          "type": "address"
        }
      ],
      "stateMutability": "view",
      "type": "function"
    },
    {
      "inputs": [
        {
          "internalType": "uint256",
          "name": "tokenId",
          "type": "uint256"
        }
      ],
      "name": "ownerOf",
      "outputs": [
        {
          "internalType": "address",
          "name": "",
          "type": "address"
        }
      ],
      "stateMutability": "view",
      "type": "function"
    },
    {
      "inputs": [],
      "name": "renounceOwnership",
      "outputs": [],
      "stateMutability": "nonpayable",
      "type": "function"
    },
    {
      "inputs": [
        {
          "internalType": "bytes32",
          "name": "role",
          "type": "bytes32"
        },
        {
          "internalType": "address",
          "name": "callerConfirmation",
          "type": "address"
        }
      ],
      "name": "renounceRole",
      "outputs": [],
      "stateMutability": "nonpayable",
      "type": "function"
    },
    {
      "inputs": [
        {
          "internalType": "uint256",
          "name": "tokenId",
          "type": "uint256"
        },
        {
          "internalType": "string",
          "name": "reason",
          "type": "string"
        }
      ],
      "name": "requestBurnCertificate",
      "outputs": [],
      "stateMutability": "nonpayable",
      "type": "function"
    },
    {
      "inputs": [
        {
          "internalType": "uint256[]",
          "name": "tokenIds",
          "type": "uint256[]"
        },
        {
          "internalType": "string",
          "name": "reason",
          "type": "string"
        }
      ],
      "name": "requestBurnMultipleCertificates",
      "outputs": [],
      "stateMutability": "nonpayable",
      "type": "function"
    },
    {
      "inputs": [
        {
          "internalType": "uint256",
          "name": "tokenId",
          "type": "uint256"
        },
        {
          "internalType": "string",
          "name": "reason",
          "type": "string"
        }
      ],
      "name": "revokeCertificate",
      "outputs": [],
      "stateMutability": "nonpayable",
      "type": "function"
    },
    {
      "inputs": [
        {
          "internalType": "address",
          "name": "institution",
          "type": "address"
        }
      ],
      "name": "revokeInstitution",
      "outputs": [],
      "stateMutability": "nonpayable",
      "type": "function"
    },
    {
      "inputs": [
        {
          "internalType": "bytes32",
          "name": "role",
          "type": "bytes32"
        },
        {
          "internalType": "address",
          "name": "account",
          "type": "address"
        }
      ],
      "name": "revokeRole",
      "outputs": [],
      "stateMutability": "nonpayable",
      "type": "function"
    },
    {
      "inputs": [
        {
          "internalType": "address",
          "name": "from",
          "type": "address"
        },
        {
          "internalType": "address",
          "name": "to",
          "type": "address"
        },
        {
          "internalType": "uint256",
          "name": "tokenId",
          "type": "uint256"
        }
      ],
      "name": "safeTransferFrom",
      "outputs": [],
      "stateMutability": "nonpayable",
      "type": "function"
    },
    {
      "inputs": [
        {
          "internalType": "address",
          "name": "from",
          "type": "address"
        },
        {
          "internalType": "address",
          "name": "to",
          "type": "address"
        },
        {
          "internalType": "uint256",
          "name": "tokenId",
          "type": "uint256"
        },
        {
          "internalType": "bytes",
          "name": "data",
          "type": "bytes"
        }
      ],
      "name": "safeTransferFrom",
      "outputs": [],
      "stateMutability": "nonpayable",
      "type": "function"
    },
    {
      "inputs": [
        {
          "internalType": "address",
          "name": "operator",
          "type": "address"
        },
        {
          "internalType": "bool",
          "name": "approved",
          "type": "bool"
        }
      ],
      "name": "setApprovalForAll",
      "outputs": [],
      "stateMutability": "nonpayable",
      "type": "function"
    },
    {
      "inputs": [
        {
          "internalType": "uint256[]",
          "name": "tokenIds",
          "type": "uint256[]"
        },
        {
          "internalType": "string[]",
          "name": "uris",
          "type": "string[]"
        }
      ],
      "name": "setBatchCertificateURIs",
      "outputs": [],
      "stateMutability": "nonpayable",
      "type": "function"
    },
    {
      "inputs": [
        {
          "internalType": "uint256",
          "name": "newTimelock",
          "type": "uint256"
        }
      ],
      "name": "setBurnTimelock",
      "outputs": [],
      "stateMutability": "nonpayable",
      "type": "function"
    },
    {
      "inputs": [
        {
          "internalType": "uint256",
          "name": "tokenId",
          "type": "uint256"
        },
        {
          "internalType": "string",
          "name": "uri",
          "type": "string"
        }
      ],
      "name": "setCertificateURI",
      "outputs": [],
      "stateMutability": "nonpayable",
      "type": "function"
    },
    {
      "inputs": [
        {
          "internalType": "uint256",
          "name": "courseId",
          "type": "uint256"
        },
        {
          "internalType": "string",
          "name": "name",
          "type": "string"
        }
      ],
      "name": "setCourseName",
      "outputs": [],
      "stateMutability": "nonpayable",
      "type": "function"
    },
    {
      "inputs": [
        {
          "internalType": "uint256[]",
          "name": "courseIds",
          "type": "uint256[]"
        },
        {
          "internalType": "string[]",
          "name": "names",
          "type": "string[]"
        }
      ],
      "name": "setMultipleCourseNames",
      "outputs": [],
      "stateMutability": "nonpayable",
      "type": "function"
    },
    {
      "inputs": [
        {
          "internalType": "bytes4",
          "name": "interfaceId",
          "type": "bytes4"
        }
      ],
      "name": "supportsInterface",
      "outputs": [
        {
          "internalType": "bool",
          "name": "",
          "type": "bool"
        }
      ],
      "stateMutability": "view",
      "type": "function"
    },
    {
      "inputs": [],
      "name": "symbol",
      "outputs": [
        {
          "internalType": "string",
          "name": "",
          "type": "string"
        }
      ],
      "stateMutability": "view",
      "type": "function"
    },
    {
      "inputs": [
        {
          "internalType": "uint256",
          "name": "index",
          "type": "uint256"
        }
      ],
      "name": "tokenByIndex",
      "outputs": [
        {
          "internalType": "uint256",
          "name": "",
          "type": "uint256"
        }
      ],
      "stateMutability": "view",
      "type": "function"
    },
    {
      "inputs": [
        {
          "internalType": "uint256",
          "name": "tokenId",
          "type": "uint256"
        }
      ],
      "name": "tokenExists",
      "outputs": [
        {
          "internalType": "bool",
          "name": "",
          "type": "bool"
        }
      ],
      "stateMutability": "view",
      "type": "function"
    },
    {
      "inputs": [
        {
          "internalType": "address",
          "name": "owner",
          "type": "address"
        },
        {
          "internalType": "uint256",
          "name": "index",
          "type": "uint256"
        }
      ],
      "name": "tokenOfOwnerByIndex",
      "outputs": [
        {
          "internalType": "uint256",
          "name": "",
          "type": "uint256"
        }
      ],
      "stateMutability": "view",
      "type": "function"
    },
    {
      "inputs": [
        {
          "internalType": "uint256",
          "name": "tokenId",
          "type": "uint256"
        }
      ],
      "name": "tokenURI",
      "outputs": [
        {
          "internalType": "string",
          "name": "",
          "type": "string"
        }
      ],
      "stateMutability": "view",
      "type": "function"
    },
    {
      "inputs": [],
      "name": "totalSupply",
      "outputs": [
        {
          "internalType": "uint256",
          "name": "",
          "type": "uint256"
        }
      ],
      "stateMutability": "view",
      "type": "function"
    },
    {
      "inputs": [
        {
          "internalType": "address",
          "name": "from",
          "type": "address"
        },
        {
          "internalType": "address",
          "name": "to",
          "type": "address"
        },
        {
          "internalType": "uint256",
          "name": "tokenId",
          "type": "uint256"
        }
      ],
      "name": "transferFrom",
      "outputs": [],
      "stateMutability": "nonpayable",
      "type": "function"
    },
    {
      "inputs": [
        {
          "internalType": "address",
          "name": "newOwner",
          "type": "address"
        }
      ],
      "name": "transferOwnership",
      "outputs": [],
      "stateMutability": "nonpayable",
      "type": "function"
    },
    {
      "inputs": [
        {
          "internalType": "uint256",
          "name": "tokenId",
          "type": "uint256"
        },
        {
          "internalType": "uint256",
          "name": "newGrade",
          "type": "uint256"
        },
        {
          "internalType": "string",
          "name": "updateReason",
          "type": "string"
        }
      ],
      "name": "updateCertificate",
      "outputs": [],
      "stateMutability": "nonpayable",
      "type": "function"
    },
    {
      "inputs": [
        {
          "internalType": "uint256",
          "name": "",
          "type": "uint256"
        }
      ],
      "name": "verifiedCertificates",
      "outputs": [
        {
          "internalType": "bool",
          "name": "",
          "type": "bool"
        }
      ],
      "stateMutability": "view",
      "type": "function"
    },
    {
      "inputs": [
        {
          "internalType": "uint256",
          "name": "tokenId",
          "type": "uint256"
        }
      ],
      "name": "verifyCertificate",
      "outputs": [],
      "stateMutability": "nonpayable",
      "type": "function"
    },
    {
      "inputs": [
        {
          "internalType": "uint256[]",
          "name": "tokenIds",
          "type": "uint256[]"
        }
      ],
      "name": "verifyMultipleCertificates",
      "outputs": [],
      "stateMutability": "nonpayable",
      "type": "function"
    }
  ],
  "bytecode": "0x608060409080825234620003b1575080516001600160401b039190808201838111828210176200039b578252601c81526020907f536f756c626f756e6441636164656d696343657274696669636174650000000082820152825193838501858110828211176200039b578452600685526514d050d1549560d21b8386015281518181116200039b576000938454916001948584811c9416801562000390575b838510146200037c578190601f9485811162000329575b508390858311600114620002c5578892620002b9575b5050600019600383901b1c191690851b1785555b8651928311620002a55783548481811c911680156200029a575b8282101462000286578281116200023e575b5080918311600114620001d7575083949582939492620001cb575b5050600019600383901b1c191690821b1790555b3315620001b557600b8054336001600160a01b03198216811790925590916001600160a01b03909116907f8be0079c531659141344cd1fd0a4f28419497f9722a3daafe3b4186f6b6457e09080a36200019333620003fe565b506200019f336200047f565b506203f480601355516146e79081620005238239f35b6024915190631e4fbdf760e01b82526004820152fd5b01519050388062000126565b90601f198316968486528286209286905b898210620002265750508385969798106200020c575b505050811b0190556200013a565b015160001960f88460031b161c19169055388080620001fe565b808785968294968601518155019501930190620001e8565b8486528186208380860160051c8201928487106200027c575b0160051c019085905b828110620002705750506200010b565b87815501859062000260565b9250819262000257565b634e487b7160e01b86526022600452602486fd5b90607f1690620000f9565b634e487b7160e01b85526041600452602485fd5b015190503880620000cb565b8880528489208894509190601f1984168a5b87828210620003125750508411620002f8575b505050811b018555620000df565b015160001960f88460031b161c19169055388080620002ea565b8385015186558b97909501949384019301620002d7565b9091508780528388208580850160051c82019286861062000372575b918991869594930160051c01915b82811062000363575050620000b5565b8a815585945089910162000353565b9250819262000345565b634e487b7160e01b87526022600452602487fd5b93607f16936200009e565b634e487b7160e01b600052604160045260246000fd5b62461bcd60e51b815260206004820152602260248201527f45746865722073656e7420746f206e6f6e2d70617961626c652066756e63746960448201526137b760f11b6064820152608490fd5b6001600160a01b031660008181527f13649b2456f1b42fef0f0040b3aaeabcd21a76a0f3f5defd4f583839455116e8602052604081205490919060ff166200047b57818052600c6020526040822081835260205260408220600160ff19825416179055339160008051602062004c0a8339815191528180a4600190565b5090565b6001600160a01b031660008181527fb648ddf3bddf768cd741f6298d8ff7b48ee7bc93e38d035b90b1e0338bc911ce60205260408120549091907f01f18e249044142f95a61b39bad5f99f3c70699c83bb85a1ad87fe9e68bd85d19060ff166200051d57808352600c6020526040832082845260205260408320600160ff1982541617905560008051602062004c0a833981519152339380a4600190565b50509056fe60806040526004361015610071575b60405162461bcd60e51b815260206004820152603560248201527f436f6e747261637420646f6573206e6f7420686176652066616c6c6261636b206044820152746e6f7220726563656976652066756e6374696f6e7360581b6064820152608490fd5b60003560e01c8062923f9e14612f46578062c6124014612f2857806301ffc9a714612e6c57806306fdde0314612ddc578063081812fc14612d9e578063095ea7b314612cb757806312cb5f2c146105d25780631692a94214612b1557806316b784fe14612ad65780631734ac1b146129db57806318160ddd146129bd5780631b929c21146129945780631c67494e146128eb57806323b872dd146128d4578063248a9ca3146128a557806326d1d7311461278457806329cd14bb1461251f5780632f2ff15d146124e05780632f745c591461245c57806330fca9501461227d57806336568abe146122365780633a2c2eff14611fa857806340f348bf14611f7757806342842e0e14611f4f57806347b0978e14611ee85780634f6ccce714611e925780635508760214611e4a5780635c0cedd114611dcf5780636352211e14611d9f57806370388b9114611ca057806370a0823114611c75578063715018a614611c1857806379ac6db914611a405780637a490fe1146119cb5780637ea04e23146119b45780638b6c1221146119685780638bcf979c1461192d5780638da5cb5b1461190457806391110d70146117ea57806391d148541461179d57806395d89b41146116d75780639e12237714611589578063a217fddf1461156d578063a22cb465146114ba578063b1466d1d146111c4578063b88d4fde14611160578063baab92a9146110b1578063bd4d8bcb14610fee578063c33786cc14610866578063c87b56dd1461080d578063d1f6c5851461076d578063d2909949146106b4578063d547741f14610673578063d76db64114610642578063db5cb3f814610616578063e59fde15146105d2578063e985e9c51461057c578063f2fde38b146104ef5763fdf385c40361000e57346104ea5761030b366135b4565b91600080516020614652833981519152600052602093600c8552604060002033600052855260ff60406000205416156104d25761034884836145b8565b60005b82811061035457005b61035f818484613624565b3561036b828787613cf5565b82156104b95780156104a757826000526011895260406000206001600160401b038211610491576103a6826103a083546134d5565b836139fc565b6000601f831160011461041757916001959493916103eb82806000805160206146928339815191529660009161040c575b508160011b916000199060031b1c19161790565b90555b6104036040519283928d84528d84019161364a565b0390a20161034b565b9050850135386103d7565b601f19831690826000528b6000209160005b8d82821061047b575050916001979695939185600080516020614692833981519152969410610461575b50508682811b0190556103ee565b840135600019600385901b60f8161c191690553880610453565b600184958293958a013581550194019201610429565b634e487b7160e01b600052604160045260246000fd5b60405163206e688f60e11b8152600490fd5b604051632d436f5b60e11b815260048101849052602490fd5b604051636cfe7de360e11b8152336004820152602490fd5b612f6e565b346104ea5760203660031901126105775761050861309e565b610510613e63565b6001600160a01b0390811690811561055e57600b80546001600160a01b031981168417909155167f8be0079c531659141344cd1fd0a4f28419497f9722a3daafe3b4186f6b6457e0600080a3005b604051631e4fbdf760e01b815260006004820152602490fd5b612fbe565b346104ea5760403660031901126105775761059561309e565b61059d6130b4565b9060018060a01b03809116600052600560205260406000209116600052602052602060ff604060002054166040519015158152f35b346104ea5760203660031901126105775760043560005260116020526106126105fe604060002061350f565b60405191829160208352602083019061305e565b0390f35b346104ea5760203660031901126105775760043560005260146020526020604060002054604051908152f35b346104ea576020366003190112610577576004356000526012602052602060ff604060002054166040519015158152f35b346104ea576040366003190112610577576106b26004356106926130b4565b9080600052600c6020526106ad600160406000200154613fb6565b613f1c565b005b346104ea576106c2366135b4565b33600090815260008051602061463283398151915260209081526040909120549394929390919060ff16156104d2576106fb81866145b8565b60005b85811061070757005b806107156001928887613624565b3561071f816135fa565b61072b575b50016106fe565b80600052600e855233838060a01b0384604060002001541603610724576107679061076161075a84878b613cf5565b36916133fc565b90614218565b87610724565b346104ea57602080600319360112610577576004356001600160401b0381116108085761079e90369060040161319f565b916107a883613955565b9260005b8181106107c957604051602080825281906106129082018861332c565b806107d76001928487613624565b35600052601184526107ec604060002061350f565b6107f682886139d1565b5261080181876139d1565b50016107ac565b61300e565b346104ea5760203660031901126105775760043561082a81613dff565b506000526006602052610612610843604060002061350f565b6000604051610851816133a5565b5260405191829160208352602083019061305e565b346104ea5760803660031901126105775761087f61309e565b6064356001600160401b0381116108085761089e903690600401613488565b336000908152600080516020614632833981519152602052604090205490919060ff16156104d2576001600160a01b03811615610fcc57815115610fa6576108e7602435614597565b6001600d54019081600d5581600052600260205260018060a01b0360406000205416151580610f9e575b610f85576000828152600260205260409020546001600160a01b03168015908115610f4e575b6001600160a01b0383166000818152600360209081526040808320805460010190558783526002909152812080546001600160a01b0319168317905585919083906000805160206146728339815191529080a48115610ebe5760095484600052600a60205280604060002055600160401b81101561049157846109c38260016109dc9401600955613a41565b90919082549060031b91821b91600019901b1916179055565b6001600160a01b03831603610e54575b15610e3b57604051926109fe84613389565b60018060a01b038216845233602085015260243560408501524260608501526044356080850152600060a085015260c0840152600060e0840152604051610a44816133a5565b600081526101008401526001610120840152426101408401526040518060408101106001600160401b036040830111176104915760408101604052601081526f496e697469616c2069737375616e636560801b602082015261016084015281600052600e602052604060002060018060a01b0384511660018060a01b03198254161781556001810160018060a01b0360208601511660018060a01b0319825416179055604084015160028201556060840151600382015560808401516004820155610b2460a08501511515600583019060ff801983541691151516179055565b60c08401518051906001600160401b03821161049157610b5482610b4b60068601546134d5565b600686016139fc565b602090601f8311600114610dc957610b85929160009183610cd9575b50508160011b916000199060031b1c19161790565b60068201555b610baa60e08501511515600783019060ff801983541691151516179055565b6101008401518051906001600160401b03821161049157610bdb82610bd260088601546134d5565b600886016139fc565b602090601f8311600114610d555782600b936101609593610c1293600092610d4a5750508160011b916000199060031b1c19161790565b60088201555b6101208601516009820155610140860151600a820155019301519283516001600160401b03811161049157602094610c5a82610c5485546134d5565b856139fc565b8590601f8311600114610ce457610c89929160009183610cd95750508160011b916000199060031b1c19161790565b90555b604051602435815242848201526044356040820152827f636175608525e128a815a142ae0108300a1bf57c9fae45774e336ba6686a4c0f6060339460018060a01b031693a4604051908152f35b015190508780610b70565b90601f1983169184600052876000209260005b818110610d335750908460019594939210610d1a575b505050811b019055610c8c565b015160001960f88460031b161c19169055868080610d0d565b929389600181928786015181550195019301610cf7565b015190508980610b70565b90601f198316916008850160005260206000209260005b818110610db15750926001928592600b96610160989610610d98575b505050811b016008820155610c18565b015160001960f88460031b161c19169055888080610d88565b92936020600181928786015181550195019301610d6c565b9190600684016000526020600020906000935b601f1984168510610e20576001945083601f19811610610e07575b505050811b016006820155610b8b565b015160001960f88460031b161c19169055868080610df7565b81810151835560209485019460019093019290910190610ddc565b6040516339e3563760e11b815260006004820152602490fd5b610e5d82613a5c565b80600019810111610ea85760018060a01b03831660005260076020526040600020600019820160005260205283604060002055836000526008602052600019016040600020556109ec565b634e487b7160e01b600052601160045260246000fd5b6001600160a01b03831681146109dc57610ed781613a5c565b84600052600860205260406000205490826000526007602052604060002091818103610f21575b5085600052600860205260006040812055600052602052600060408120556109dc565b81600052826020526040600020548160005280604060002055600052600860205260406000205587610efe565b600084815260046020526040902080546001600160a01b031916905580600052600360205260406000206000198154019055610937565b6040516380e63c5b60e01b815260048101839052602490fd5b506001610911565b6040516355b7113960e11b81526020600482015280610fc8602482018561305e565b0390fd5b604051631397721d60e11b81526001600160a01b039091166004820152602490fd5b346104ea5760203660031901126105775761100761309e565b61100f613e63565b6001600160a01b0381169081156110985781600052600f60205260ff60406000205416611080576110589082600052600f6020526040600020600160ff19825416179055613ffa565b507f2aef8a157b05c49aaaeebd094bf2b10b2b90835af1fd87c288f6effa9a6a2434600080a2005b60405162a86b3b60e31b815260048101839052602490fd5b604051631397721d60e11b815260048101839052602490fd5b346104ea57602080600319360112610577576004356001600160401b038111610808576110e290369060040161319f565b90916110ec613e63565b60005b8281106110f857005b806111066001928587613624565b35611110816135fa565b61111c575b50016110ef565b806000526012845260406000208360ff1982541617905533907fba5b566c31f867be22a7d2c2dc448643e8aad68e820fe0b8e493fef50609b40b600080a385611115565b346104ea5760803660031901126105775761117961309e565b6111816130b4565b606435916001600160401b03831161080857366023840112156111bf576111b56106b29336906024816004013591016133fc565b9160443591613b4a565b6130ca565b346104ea576111d2366134a6565b33600090815260008051602061463283398151915260209081526040909120549092919060ff16156104d25761120782613e3a565b81600052600e835260406000209060405161122181613389565b82546001600160a01b0390811682526001848101548216878401908152600286015460408501526003860154606085015260048601546080850152600586015460ff16151560a08501529094909261127b6006830161350f565b60c08201526101606112c8600b60ff6007860154169460e0850195151586526112a66008820161350f565b6101008601526009810154610120860152600a8101546101408601520161350f565b910152516114a15733915116036114825782600052600e84526040600020600781018360ff198254161790556008810182516001600160401b0381116104915761131c8161131684546134d5565b846139fc565b86601f821160011461141e5781600b94939261134d9260009161141357508160011b916000199060031b1c19161790565b90555b6009810184815401905542600a8201550161136b81546134d5565b601f81116113f2575b5060267210d95c9d1a599a58d85d19481c995d9bdad959606a1b019055827fe30209e229ea01f995092aa4cd5d70b4cd972c12645ab69fa4884bd9882f778f604051868152806113c833958983019061305e565b0390a360405192600084528301524260408301526000805160206145f283398151915260603393a3005b61140d9082600052601f87600020910160051c8101906139e5565b85611374565b90508601518a6103d7565b6000838152888120601f198416959493889390925b8b88821061146c57505082600b9710611453575b5050811b019055611350565b87015160001960f88460031b161c191690558980611447565b828a015184558a95909301929182019101611433565b604051632ed467df60e21b815260048101849052336024820152604490fd5b604051633333331160e21b815260048101869052602490fd5b346104ea576040366003190112610577576114d361309e565b6024359081151590818303611568576001600160a01b031691821561154f576115219033600052600560205260406000208460005260205260406000209060ff801983541691151516179055565b6040519081527f17307eab39ab6107e8899845ad3d59bd9653f200f220920489ca2b5937696c3160203392a3005b604051630b61174360e31b815260048101849052602490fd5b600080fd5b346104ea57600036600319011261057757602060405160008152f35b346104ea57611597366134a6565b33600090815260008051602061463283398151915260209081526040909120549092919060ff16156104d2576115cc82614597565b8051156104a75781600052601183526040600020928151936001600160401b03851161049157611600856103a083546134d5565b81601f86116001146116645785600080516020614692833981519152959661163d9260009161165957508160011b916000199060031b1c19161790565b90555b61165460405192828493845283019061305e565b0390a2005b9050850151886103d7565b601f1986169082600052836000209160005b8181106116c057509187916000805160206146928339815191529798600194106116a7575b5050811b019055611640565b86015160001960f88460031b161c19169055878061169b565b91928560018192868a015181550194019201611676565b346104ea576000366003190112610577576040516000600182600154926116fd846134d5565b928383526020948560018216918260001461177d57505060011461173d575b50611729925003836133c0565b61061260405192828493845283019061305e565b849150600160005281600020906000915b85831061176557505061172993508201018561171c565b8054838901850152879450869390920191810161174e565b60ff19168582015261172995151560051b850101925087915061171c9050565b346104ea576040366003190112610577576117b66130b4565b600435600052600c60205260406000209060018060a01b0316600052602052602060ff604060002054166040519015158152f35b346104ea5760203660031901126105775760043561180781613e3a565b806000526014602052604060002054156118ec57600b546000828152600e6020908152604080832060010154338085527f13649b2456f1b42fef0f0040b3aaeabcd21a76a0f3f5defd4f583839455116e89093529220546001600160a01b03938416909114159260ff9091169116826118e1575b50816118d8575b506118b95761189081613f93565b33907f11143d655e249bbbffa03e33226891bc14a87c6a65dfb9ffd68f68ac5efe3a1f600080a3005b60405162f7538360e11b81526004810191909152336024820152604490fd5b90501582611882565b33141591508361187b565b60249060405190636ea6c95d60e11b82526004820152fd5b346104ea57600036600319011261057757600b546040516001600160a01b039091168152602090f35b346104ea5760003660031901126105775760206040517fae4a0595970935aa5495afbbb72e5f1f6ff1062766b4a3028c0c9b7d5cf7e3458152f35b346104ea576020366003190112610577577f1e1d873080a18041b863cb051bd8b12bc7e94f46a18e380428225fd573c89e0760206004356119a7613e63565b80601355604051908152a1005b346104ea576106b26119c5366134a6565b90613a95565b346104ea576040366003190112610577576004356024356001600160401b038111610808576119fe9036906004016131d9565b336000908152600080516020614632833981519152602052604090205491929160ff16156104d2576106b29261076191611a3784613e3a565b61075a846140ff565b346104ea57602080600319360112610577576004356001600160401b03811161080857611a7190369060040161319f565b9091600080516020614652833981519152600052600c8152604060002033600052815260ff9060ff60406000205416156104d25760005b838110611ab157005b80611abf6001928688613624565b35611ac9816135fa565b611ad5575b5001611aa8565b80600052600e9081855260406000209160405192611af284613389565b858060a01b0393848254168152869485830154168882015260028201546040820152886003830154926060938484015260048101546080840152600592610160611b74600b8587860154169560a085019615158752611b536006870161350f565b60c08601526007860154169460e0850195151586526112a66008820161350f565b91015251159081611c0e575b50611b8f575b50505050611ace565b6000805160206145f28339815191529284600052885260406000200160ff1990858282541617905560108852846040600020918254161790556040519333847fd7c96d6fc66839b1626cff5f8eccbacfa07b17981e577e09f16310f5fca240a8600080a384526000878501524260408501523393a38680808080611b86565b905051158c611b80565b346104ea57600036600319011261057757611c31613e63565b600b80546001600160a01b031981169091556000906001600160a01b03167f8be0079c531659141344cd1fd0a4f28419497f9722a3daafe3b4186f6b6457e08280a3005b346104ea576020366003190112610577576020611c98611c9361309e565b613a5c565b604051908152f35b346104ea57602036600319011261057757600435600052600e6020526040600020600160a01b6001900390818154169160018201541690600281015492600382015491600481015491600582015460ff169060068301611cff9061350f565b600784015460ff1691611d146008860161350f565b93600986015496600a87015496600b01611d2d9061350f565b986040519b8c9b610180958d5260208d015260408c015260608b015260808a0152151560a08901528060c08901528701611d669161305e565b90151560e0870152858103610100870152611d809161305e565b916101208501526101408401528281036101608401526106129161305e565b346104ea576020366003190112610577576020611dbd600435613dff565b6040516001600160a01b039091168152f35b346104ea57611ddd366134a6565b90611de781613e3a565b611df0816140ff565b7f5dc19f30c4d56eb5ff19a063cc38bf24c94258263f26e69011dc680bad583f2a60135442019282600052601460205242604060002055611e3c6040519160408352604083019061305e565b9360208201528033940390a3005b346104ea57611e5836613206565b60009291925b828110611e6757005b80611e8c611e786001938689613624565b353390611e8636878a6133fc565b90614143565b01611e5e565b346104ea57602036600319011261057757600435600954811015611ec957611ebb602091613a41565b90546040519160031b1c8152f35b6044906040519063295f44f760e21b8252600060048301526024820152fd5b346104ea57602036600319011261057757600435611f04613e63565b611f0d81613e3a565b8060005260126020526040600020600160ff1982541617905533907fba5b566c31f867be22a7d2c2dc448643e8aad68e820fe0b8e493fef50609b40b600080a3005b346104ea576106b2611f6036613250565b9060405192611f6e846133a5565b60008452613b4a565b346104ea576020366003190112610577576004356000526010602052602060ff604060002054166040519015158152f35b346104ea576060366003190112610577576024356004356001600160401b0360443581811161080857611fdf903690600401613488565b92600080516020614652833981519152600052602091600c8352604060002033600052835260ff60406000205416156104d25761201b84613e3a565b83600052600e83526040600020906040519161203683613389565b80546001600160a01b03908116845260018281015490911686850152600282015460408501526003820154606085015260048201546080850152600582015460ff16151560a08501529261208c6006830161350f565b60c08201526101606120b7600b60ff6007860154169460e0850195151586526112a66008820161350f565b910152516114a1576120c8856140ff565b8551156122145784600052600e8452600b6040600020846004820155600981016001815401905542600a820155019186519182116104915761210e82610c5485546134d5565b8490601f8311600114612188575091612164827f2bf0396acfbe141ba9874474910bf82cf9d678e79aa0dcaf67347d96398499089798936116549560009161217d57508160011b916000199060031b1c19161790565b90555b604080519485948552840152604083019061305e565b90508401518a6103d7565b90601f1983168460005286600020926000905b8282106121fd575050926116549492600192827f2bf0396acfbe141ba9874474910bf82cf9d678e79aa0dcaf67347d96398499089a9b96106121e4575b5050811b019055612167565b85015160001960f88460031b161c1916905589806121d8565b8a840151855593840193928801929088019061219b565b6040516355b7113960e11b81526004810185905280610fc8602482018961305e565b346104ea5760403660031901126105775761224f6130b4565b336001600160a01b0382160361226b576106b290600435613f1c565b60405163334bd91960e11b8152600490fd5b346104ea57602080600319360112610577576004356001600160401b038111610808576122ae90369060040161319f565b916122b883613955565b916122c28461399f565b906122cc8561399f565b926122d686613955565b9560005b81811061232f57612305876106128a6123218a6123138b60405197889760808952608089019061332c565b9087820360208901526132c2565b9085820360408701526132c2565b90838203606085015261332c565b8061233d6001928487613624565b35612347816135fa565b612353575b50016122da565b600052600e845260406000206040519061236c82613389565b838060a01b0380825416835284820154168683015260028101546040830152600381015460608301526004810154608083015260ff80600583015416151560a08401526123bb6006830161350f565b60c0840152600782015416151560e08301526123d96008820161350f565b6101008301908152600982015490610120840191825261016061240b600b600a8601549561014088019687520161350f565b94019384525161241b858d6139d1565b52612426848c6139d1565b5051612432848a6139d1565b525161243e838a6139d1565b525161244a828b6139d1565b52612455818a6139d1565b508961234c565b346104ea5760403660031901126105775761247561309e565b6024359061248281613a5c565b8210156124b55760018060a01b031660005260076020526040600020906000526020526020604060002054604051908152f35b60405163295f44f760e21b81526001600160a01b039190911660048201526024810191909152604490fd5b346104ea576040366003190112610577576106b26004356124ff6130b4565b9080600052600c60205261251a600160406000200154613fb6565b614084565b346104ea576020366003190112610577576004356001600160401b0381116108085761254f90369060040161319f565b6125588161399f565b916125628261399f565b61256b8361399f565b6125748461399f565b9061257e8561399f565b926125888661399f565b946125928761399f565b9660005b81811061262157508860e06106128a6126138b6126058c6125f78d6125e98e6125db8f6125cd6040519e8f9e8f8181520190613285565b8d810360208f015290613285565b908b820360408d01526132c2565b9089820360608b01526132c2565b9087820360808901526132c2565b9085820360a08701526132f6565b9083820360c08501526132f6565b8061262f6001928486613624565b35612639816135fa565b612645575b5001612596565b600052600e60205260e060406000206126fb600b6040519261266684613389565b868060a01b038154168452868060a01b038782015416602085015260028101546040850152600381015460608501526004810154608085015260ff600582015416151560a08501526126ba6006820161350f565b60c085015260ff6007820154161515858501526126d96008820161350f565b6101008501526009810154610120850152600a8101546101408501520161350f565b6101608201528c61271584868060a01b03845116926139d1565b52838060a01b0360208201511661272c84896139d1565b52604081015161273c848a6139d1565b52606081015161274c848b6139d1565b52608081015161275c848c6139d1565b5260a0810151151561276e848d6139d1565b520151151561277d828c6139d1565b528b61263e565b346104ea57602080600319360112610577576004356001600160401b038111610808576127b590369060040161319f565b600b546001600160a01b039391908416331480159160005b8181106127d657005b6127e1818388613624565b35906127ec826135fa565b1561289a5781600052601486526040600020541561289a57600e865260019185338a8560406000200154161460008052600c8952604060002033600052895260ff60406000205416908792612892575b50811561288a575b50612854575b5001945b946127cd565b61285d81613f93565b33907f11143d655e249bbbffa03e33226891bc14a87c6a65dfb9ffd68f68ac5efe3a1f600080a38861284a565b90508a612844565b91508b61283c565b60019150019461284e565b346104ea57602036600319011261057757600435600052600c6020526020600160406000200154604051908152f35b346104ea576106b26128e536613250565b9161366b565b346104ea5760203660031901126105775761290461309e565b61290c613e63565b6001600160a01b0381169081156110985781600052600f60205260ff604060002054161561297b576129539082600052600f602052604060002060ff198154169055613e8f565b507f5f2c961a0db2d72fa01bfae36aaca642457678d9c63adaca86c8cb1b3d1230f4600080a2005b6040516301ac7a4560e71b815260048101839052602490fd5b346104ea5760003660031901126105775760206040516000805160206146528339815191528152f35b346104ea576000366003190112610577576020600954604051908152f35b346104ea576129e936613206565b336000908152600080516020614632833981519152602090815260409091205493949390929060ff16156104d257612a2360135442613617565b9460005b818110612a3057005b612a3b818388613624565b3590612a46826135fa565b15612acb5781600052600e86526001913360018060a01b0384604060002001541614612a77575b5001945b94612a27565b601487524260406000205560405190604082527f5dc19f30c4d56eb5ff19a063cc38bf24c94258263f26e69011dc680bad583f2a612ab960408401898961364a565b928b8a8201528033940390a388612a6d565b600191500194612a71565b346104ea576020366003190112610577576001600160a01b03612af761309e565b16600052600f602052602060ff604060002054166040519015158152f35b346104ea5760208060031936011261057757600435600080516020614652833981519152600052600c8252604060002033600052825260ff60406000205416156104d257612b6281613e3a565b80600052600e82526040600020604051612b7b81613389565b81546001600160a01b03908116825260018301541684820152600282015460408201526003820154606082015260048201546080820152600582015460ff16151560a0820190815290612bd06006840161350f565b60c0820152610160612bfb600b60ff6007870154169560e0850196151587526112a66008820161350f565b91015251612c9e5751612c865780600052600e8252600560406000200160ff199060018282541617905560108352600160406000209182541617905560006040519233837fd7c96d6fc66839b1626cff5f8eccbacfa07b17981e577e09f16310f5fca240a88480a3600184528301524260408301526000805160206145f283398151915260603393a3005b60249060405190633333331160e21b82526004820152fd5b60405163a9736f3b60e01b815260048101839052602490fd5b346104ea57604036600319011261057757612cd061309e565b602435612cdc81613dff565b33151580612d8b575b80612d5e575b612d46576001600160a01b039283169282918491167f8c5be1e5ebec7d5bd14f71427d1e84f3dd0314c0f7b2291e5b200ac8c7c3b925600080a4600090815260046020526040902080546001600160a01b0319169091179055005b60405163a9fbf51f60e01b8152336004820152602490fd5b5060018060a01b038116600052600560205260406000203360005260205260ff6040600020541615612ceb565b506001600160a01b038116331415612ce5565b346104ea57602036600319011261057757600435612dbb81613dff565b506000526004602052602060018060a01b0360406000205416604051908152f35b346104ea57600036600319011261057757604051600080549082612dff836134d5565b918282526020936001908560018216918260001461177d575050600114612e2d5750611729925003836133c0565b8491506000805281600020906000915b858310612e5457505061172993508201018561171c565b80548389018501528794508693909201918101612e3d565b346104ea5760203660031901126105775760043563ffffffff60e01b811680910361156857602090637965db0b60e01b8114908115612eb1575b506040519015158152f35b63780e9d6360e01b811491508115612ecb575b5082612ea6565b632483248360e11b811491508115612ee5575b5082612ec4565b6380ac58cd60e01b811491508115612f17575b8115612f06575b5082612ede565b6301ffc9a760e01b14905082612eff565b635b5e139f60e01b81149150612ef8565b346104ea576000366003190112610577576020601354604051908152f35b34612f6e576020366003190112610577576020612f646004356135fa565b6040519015158152f35b60405162461bcd60e51b815260206004820152602260248201527f45746865722073656e7420746f206e6f6e2d70617961626c652066756e63746960448201526137b760f11b6064820152608490fd5b60405162461bcd60e51b815260206004820152602260248201527f414249206465636f64696e673a207475706c65206461746120746f6f2073686f6044820152611c9d60f21b6064820152608490fd5b60405162461bcd60e51b815260206004820152602260248201527f414249206465636f64696e673a20696e76616c6964207475706c65206f666673604482015261195d60f21b6064820152608490fd5b919082519283825260005b84811061308a575050826000602080949584010152601f8019910116010190565b602081830181015184830182015201613069565b600435906001600160a01b038216820361156857565b602435906001600160a01b038216820361156857565b60405162461bcd60e51b815260206004820152602b60248201526000805160206145d283398151915260448201526a1c9c985e481bd9999cd95d60aa1b6064820152608490fd5b60405162461bcd60e51b815260206004820152602b60248201526000805160206145d283398151915260448201526a0e4e4c2f240d8cadccee8d60ab1b6064820152608490fd5b60405162461bcd60e51b815260206004820152602b60248201526000805160206145d283398151915260448201526a727261792073747269646560a81b6064820152608490fd5b9181601f840112156111bf578235916001600160401b0383116131d4576020808501948460051b0101116131cf57565b613158565b613111565b9181601f840112156111bf578235916001600160401b0383116131d457602083818601950101116131cf57565b6040600319820112610577576001600160401b039160043583811161080857826132329160040161319f565b939093926024359182116108085761324c916004016131d9565b9091565b6060906003190112610577576001600160a01b0390600435828116810361156857916024359081168103611568579060443590565b90815180825260208080930193019160005b8281106132a5575050505090565b83516001600160a01b031685529381019392810192600101613297565b90815180825260208080930193019160005b8281106132e2575050505090565b8351855293810193928101926001016132d4565b90815180825260208080930193019160005b828110613316575050505090565b8351151585529381019392810192600101613308565b90808251908181526020809101926020808460051b8301019501936000915b84831061335b5750505050505090565b9091929394958480613379600193601f198682030187528a5161305e565b980193019301919493929061334b565b61018081019081106001600160401b0382111761049157604052565b602081019081106001600160401b0382111761049157604052565b90601f801991011681019081106001600160401b0382111761049157604052565b6001600160401b03811161049157601f01601f191660200190565b929192613408826133e1565b9161341660405193846133c0565b829481845281830111613433578281602093846000960137010152565b60405162461bcd60e51b815260206004820152602760248201527f414249206465636f64696e673a20696e76616c69642062797465206172726179604482015266040d8cadccee8d60cb1b6064820152608490fd5b9080601f830112156111bf578160206134a3933591016133fc565b90565b9060406003198301126105775760043591602435906001600160401b038211610808576134a391600401613488565b90600182811c92168015613505575b60208310146134ef57565b634e487b7160e01b600052602260045260246000fd5b91607f16916134e4565b90604051918260008254613522816134d5565b908184526020946001916001811690816000146135925750600114613553575b505050613551925003836133c0565b565b600090815285812095935091905b81831061357a5750506135519350820101388080613542565b85548884018501529485019487945091830191613561565b9250505061355194925060ff191682840152151560051b820101388080613542565b6040600319820112610577576001600160401b039160043583811161080857826135e09160040161319f565b939093926024359182116108085761324c9160040161319f565b6000908152600260205260409020546001600160a01b0316151590565b91908201809211610ea857565b91908110156136345760051b0190565b634e487b7160e01b600052603260045260246000fd5b908060209392818452848401376000828201840152601f01601f1916010190565b6001600160a01b0382811693918415613925576000948386526020956002875260409684888320541615158061391d575b61390557858252600281528488832054169633151580613877575b5087158015613844575b84845260038352898420805460010190558784526002835289842080546001600160a01b0319168617905587858a6000805160206146728339815191528780a4156137d857600954878452600a8352898420819055600160401b8110156137c457876109c38260016137369401600955613a41565b838803613772575b5050505016928383036137515750505050565b6064945051926364283d7b60e01b8452600484015260248301526044820152fd5b61377b90613a5c565b6000198101939084116137b05782916008918a945260078152838320858452815287848420558783525220553880808061373e565b634e487b7160e01b83526011600452602483fd5b634e487b7160e01b84526041600452602484fd5b878414613736576137e888613a5c565b878452600883528984205490898552600784528a852091818103613822575b5088855260088452848b812055845282528289812055613736565b8186528285528b862054818752808d8820558652600885528b86205538613807565b600088815260046020526040902080546001600160a01b03191690558884526003835289842080546000190190556136c1565b806138c4575b1561388857386136b7565b8887896138a5576024915190637e27328960e01b82526004820152fd5b905163177e802f60e01b81523360048201526024810191909152604490fd5b5033881480156138e9575b8061387d57508683526004825233868a852054161461387d565b5087835260058252888320338452825260ff89842054166138cf565b87516380e63c5b60e01b815260048101879052602490fd5b50600161369c565b604051633250574960e11b815260006004820152602490fd5b6001600160401b0381116104915760051b60200190565b9061395f8261393e565b61396c60405191826133c0565b828152809261397d601f199161393e565b019060005b82811061398e57505050565b806060602080938501015201613982565b906139a98261393e565b6139b660405191826133c0565b82815280926139c7601f199161393e565b0190602036910137565b80518210156136345760209160051b010190565b8181106139f0575050565b600081556001016139e5565b9190601f8111613a0b57505050565b613551926000526020600020906020601f840160051c83019310613a37575b601f0160051c01906139e5565b9091508190613a2a565b60095481101561363457600960005260206000200190600090565b6001600160a01b03168015613a7c57600052600360205260406000205490565b6040516322718ad960e21b815260006004820152602490fd5b90613a9f82613e3a565b600b546001600160a01b03163314613b1e57613aba826140ff565b613ac38261455c565b15613b05579061355191816000805160206146128339815191526040516020815280613af43395602083019061305e565b0390a3613b008161434c565b613f93565b6040516315ca9f7160e01b815260048101839052602490fd5b9061355191816000805160206146128339815191526040516020815280613af43395602083019061305e565b613b5583838361366b565b813b613b62575b50505050565b92936001600160a01b03918216939192909190843b15613ca25760405193630a85bd0160e11b9283865233600487015216602485015260448401526080606484015282613bb5602096608483019061305e565b039285816000958187895af1849181613c5e575b50613c29575050503d600014613c21573d613be3816133e1565b90613bf160405192836133c0565b81528091843d92013e5b80519283613c1c57604051633250574960e11b815260048101849052602490fd5b019050fd5b506060613bfb565b919450915063ffffffff60e01b1603613c46575038808080613b5c565b60249060405190633250574960e11b82526004820152fd5b9091508681813d8311613c9b575b613c7681836133c0565b8101031261057757516001600160e01b031981168103613c97579038613bc9565b8480fd5b503d613c6c565b60405162461bcd60e51b815260206004820152602560248201527f54617267657420636f6e747261637420646f6573206e6f7420636f6e7461696e60448201526420636f646560d81b6064820152608490fd5b91908110156136345760051b81013590601e1981360301821215613dba5701908135916001600160401b038311613d75576020018236038113613d36579190565b60405162461bcd60e51b815260206004820152601760248201527610d85b1b19185d18481d185a5b081d1bdbc81cda1bdc9d604a1b6044820152606490fd5b60405162461bcd60e51b815260206004820152601c60248201527f496e76616c69642063616c6c64617461207461696c206c656e677468000000006044820152606490fd5b60405162461bcd60e51b815260206004820152601c60248201527f496e76616c69642063616c6c64617461207461696c206f6666736574000000006044820152606490fd5b6000818152600260205260409020546001600160a01b0316908115613e22575090565b60249060405190637e27328960e01b82526004820152fd5b613e43816135fa565b15613e4b5750565b602490604051906379d9be1360e01b82526004820152fd5b600b546001600160a01b03163303613e7757565b60405163118cdaa760e01b8152336004820152602490fd5b6001600160a01b0316600081815260008051602061463283398151915260205260408120549091906000805160206146528339815191529060ff1615613f1757808352600c602052604083208284526020526040832060ff1981541690557ff6391f5c32d9c69d2a47ea670b442974b53935d1edc7fd64eb21e047a839171b339380a4600190565b505090565b90600091808352600c602052604083209160018060a01b03169182845260205260ff604084205416600014613f1757808352600c602052604083208284526020526040832060ff1981541690557ff6391f5c32d9c69d2a47ea670b442974b53935d1edc7fd64eb21e047a839171b339380a4600190565b6000526014602052600060408120556012602052604060002060ff198154169055565b80600052600c60205260406000203360005260205260ff6040600020541615613fdc5750565b6044906040519063e2517d3f60e01b82523360048301526024820152fd5b6001600160a01b0316600081815260008051602061463283398151915260205260408120549091906000805160206146528339815191529060ff16613f1757808352600c6020526040832082845260205260408320600160ff198254161790557f2f8788117e7eff1d82e926ec794901d17c78024a50270940304540a733656f0d339380a4600190565b90600091808352600c602052604083209160018060a01b03169182845260205260ff60408420541615600014613f1757808352600c6020526040832082845260205260408320600160ff198254161790557f2f8788117e7eff1d82e926ec794901d17c78024a50270940304540a733656f0d339380a4600190565b6000818152600e60205260409020600101546001600160a01b031633036141235750565b604051632ed467df60e21b81526004810191909152336024820152604490fd5b600b54919290916001600160a01b0391821691908116821490614165846135fa565b1561421157829084600052600e602052600160406000200154161481156141bc575b5061419157505050565b81600080516020614612833981519152613af46135519560405191829160208352602083019061305e565b9050806141ca575b38614187565b50601260205260ff60406000205416806141c45750601460205260406000205480151590816141fa575b506141c4565b614208915060135490613617565b421015386141f4565b5050505050565b9190916000908082526020916006835260408120908551956001600160401b0387116143385761424c87610c5485546134d5565b8491601f88116001146142b4579661429d9281927ff8e1a15aba9398e019f0b49df1a4fde98ee17ae345cb5f6b5e2c27f5033e8ce79899926142a95750508160011b916000199060031b1c19161790565b90555b604051908152a1565b015190503880610b70565b9190601f198816848452868420935b81811061432157509160019391897ff8e1a15aba9398e019f0b49df1a4fde98ee17ae345cb5f6b5e2c27f5033e8ce7999a9410614308575b505050811b0190556142a0565b015160001960f88460031b161c191690553880806142fb565b9293876001819287860151815501950193016142c3565b634e487b7160e01b82526041600452602482fd5b600081815260026020908152604080832054909291906001600160a01b03908116151580614555575b61453d578483526002825283832054169182159283158061450a575b8683526002845285832080546001600160a01b03191690558683836000805160206146728339815191528280a4841561449a575050600954858252600a8352848220819055600160401b81101561433857856109c38260016143f69401600955613a41565b600954600019928382019182116137b057600a9087845281815261441d8785205493613a41565b90549060031b1c614431816109c386613a41565b845252848220558481528084812055600954908115614486575081019061445782613a41565b909182549160031b1b1916905560095561446f575050565b602492505190637e27328960e01b82526004820152fd5b634e487b7160e01b81526031600452602490fd5b6144a5575b506143f6565b6144ae81613a5c565b868352600884528583205491835260078452858320918181036144e8575b508683526008845282868120558252825280848120553861449f565b81845282855286842054818552808886205584526008855286842055386144cc565b600087815260046020526040902080546001600160a01b0319169055818352600384528583208054600019019055614391565b83516380e63c5b60e01b815260048101869052602490fd5b5082614375565b600052601260205260ff60406000205416614592576014602052604060002054801561458c576013540142101590565b50600090565b600190565b80156145a05750565b60249060405190632d436f5b60e11b82526004820152fd5b036145bf57565b60405163512509d360e11b8152600490fdfe414249206465636f64696e673a20696e76616c69642063616c6c64617461206148f81e213b32b2c1ce2241f0e6ebac399defe4b40154c4b27eee349703d2c4c535faf8558c480dc4d2cccff074f589fa396b2de00632113765f18c4b6b43cb8ab648ddf3bddf768cd741f6298d8ff7b48ee7bc93e38d035b90b1e0338bc911ce01f18e249044142f95a61b39bad5f99f3c70699c83bb85a1ad87fe9e68bd85d1ddf252ad1be2c89b69c2b068fc378daa952ba7f163c4a11628f55a4df523b3efbbd283619af086f9a6f529d3c42028194416e7bd4589c342bcdde630dc0dae44a2646970667358221220d1ab29810676592a076d93eaaf3c9b6a69b48141e6c94f9559795c2a278491a064736f6c634300081700332f8788117e7eff1d82e926ec794901d17c78024a50270940304540a733656f0d",
  "linkReferences": {},
  "deployedLinkReferences": {}
}