{
  "_format": "hh-sol-artifact-1",
  "contractName": "CertificateManagement",
  "sourceName": "contracts/CertificateManagement.sol",
  "abi": [
    {
      "inputs": [],
      "name": "AccessControlBadConfirmation",
      "type": "error"
    },
    {
      "inputs": [
        {
          "internalType": "address",
          "name": "account",
          "type": "address"
        },
        {
          "internalType": "bytes32",
          "name": "neededRole",
          "type": "bytes32"
        }
      ],
      "name": "AccessControlUnauthorizedAccount",
      "type": "error"
    },
    {
      "inputs": [
        {
          "internalType": "uint256",
          "name": "tokenId",
          "type": "uint256"
        }
      ],
      "name": "BurnRequestStillTimelocked",
      "type": "error"
    },
    {
      "inputs": [
        {
          "internalType": "address",
          "name": "caller",
          "type": "address"
        }
      ],
      "name": "CallerNotInstitution",
      "type": "error"
    },
    {
      "inputs": [
        {
          "internalType": "address",
          "name": "caller",
          "type": "address"
        }
      ],
      "name": "CallerNotInstructor",
      "type": "error"
    },
    {
      "inputs": [
        {
          "internalType": "uint256",
          "name": "tokenId",
          "type": "uint256"
        }
      ],
      "name": "CertificateAlreadyVerified",
      "type": "error"
    },
    {
      "inputs": [
        {
          "internalType": "uint256",
          "name": "tokenId",
          "type": "uint256"
        }
      ],
      "name": "CertificateDoesNotExist",
      "type": "error"
    },
    {
      "inputs": [
        {
          "internalType": "uint256",
          "name": "tokenId",
          "type": "uint256"
        }
      ],
      "name": "CertificateIsRevoked",
      "type": "error"
    },
    {
      "inputs": [],
      "name": "CourseNameEmpty",
      "type": "error"
    },
    {
      "inputs": [],
      "name": "ERC721EnumerableForbiddenBatchMint",
      "type": "error"
    },
    {
      "inputs": [
        {
          "internalType": "address",
          "name": "sender",
          "type": "address"
        },
        {
          "internalType": "uint256",
          "name": "tokenId",
          "type": "uint256"
        },
        {
          "internalType": "address",
          "name": "owner",
          "type": "address"
        }
      ],
      "name": "ERC721IncorrectOwner",
      "type": "error"
    },
    {
      "inputs": [
        {
          "internalType": "address",
          "name": "operator",
          "type": "address"
        },
        {
          "internalType": "uint256",
          "name": "tokenId",
          "type": "uint256"
        }
      ],
      "name": "ERC721InsufficientApproval",
      "type": "error"
    },
    {
      "inputs": [
        {
          "internalType": "address",
          "name": "approver",
          "type": "address"
        }
      ],
      "name": "ERC721InvalidApprover",
      "type": "error"
    },
    {
      "inputs": [
        {
          "internalType": "address",
          "name": "operator",
          "type": "address"
        }
      ],
      "name": "ERC721InvalidOperator",
      "type": "error"
    },
    {
      "inputs": [
        {
          "internalType": "address",
          "name": "owner",
          "type": "address"
        }
      ],
      "name": "ERC721InvalidOwner",
      "type": "error"
    },
    {
      "inputs": [
        {
          "internalType": "address",
          "name": "receiver",
          "type": "address"
        }
      ],
      "name": "ERC721InvalidReceiver",
      "type": "error"
    },
    {
      "inputs": [
        {
          "internalType": "address",
          "name": "sender",
          "type": "address"
        }
      ],
      "name": "ERC721InvalidSender",
      "type": "error"
    },
    {
      "inputs": [
        {
          "internalType": "uint256",
          "name": "tokenId",
          "type": "uint256"
        }
      ],
      "name": "ERC721NonexistentToken",
      "type": "error"
    },
    {
      "inputs": [
        {
          "internalType": "address",
          "name": "owner",
          "type": "address"
        },
        {
          "internalType": "uint256",
          "name": "index",
          "type": "uint256"
        }
      ],
      "name": "ERC721OutOfBoundsIndex",
      "type": "error"
    },
    {
      "inputs": [
        {
          "internalType": "address",
          "name": "institution",
          "type": "address"
        }
      ],
      "name": "InstitutionAlreadyAuthorized",
      "type": "error"
    },
    {
      "inputs": [
        {
          "internalType": "address",
          "name": "institution",
          "type": "address"
        }
      ],
      "name": "InstitutionNotAuthorized",
      "type": "error"
    },
    {
      "inputs": [
        {
          "internalType": "string",
          "name": "certificateHash",
          "type": "string"
        }
      ],
      "name": "InvalidCertificateHash",
      "type": "error"
    },
    {
      "inputs": [
        {
          "internalType": "uint256",
          "name": "courseId",
          "type": "uint256"
        }
      ],
      "name": "InvalidCourseId",
      "type": "error"
    },
    {
      "inputs": [
        {
          "internalType": "address",
          "name": "student",
          "type": "address"
        }
      ],
      "name": "InvalidStudentAddress",
      "type": "error"
    },
    {
      "inputs": [
        {
          "internalType": "uint256",
          "name": "tokenId",
          "type": "uint256"
        }
      ],
      "name": "NoBurnRequestExists",
      "type": "error"
    },
    {
      "inputs": [
        {
          "internalType": "uint256",
          "name": "tokenId",
          "type": "uint256"
        },
        {
          "internalType": "address",
          "name": "caller",
          "type": "address"
        }
      ],
      "name": "NotAuthorizedToCancelBurn",
      "type": "error"
    },
    {
      "inputs": [
        {
          "internalType": "uint256",
          "name": "tokenId",
          "type": "uint256"
        },
        {
          "internalType": "address",
          "name": "caller",
          "type": "address"
        }
      ],
      "name": "NotCertificateIssuer",
      "type": "error"
    },
    {
      "inputs": [
        {
          "internalType": "address",
          "name": "owner",
          "type": "address"
        }
      ],
      "name": "OwnableInvalidOwner",
      "type": "error"
    },
    {
      "inputs": [
        {
          "internalType": "address",
          "name": "account",
          "type": "address"
        }
      ],
      "name": "OwnableUnauthorizedAccount",
      "type": "error"
    },
    {
      "inputs": [
        {
          "internalType": "uint256",
          "name": "tokenId",
          "type": "uint256"
        }
      ],
      "name": "SoulboundTokenCannotBeTransferred",
      "type": "error"
    },
    {
      "anonymous": false,
      "inputs": [
        {
          "indexed": true,
          "internalType": "address",
          "name": "owner",
          "type": "address"
        },
        {
          "indexed": true,
          "internalType": "address",
          "name": "approved",
          "type": "address"
        },
        {
          "indexed": true,
          "internalType": "uint256",
          "name": "tokenId",
          "type": "uint256"
        }
      ],
      "name": "Approval",
      "type": "event"
    },
    {
      "anonymous": false,
      "inputs": [
        {
          "indexed": true,
          "internalType": "address",
          "name": "owner",
          "type": "address"
        },
        {
          "indexed": true,
          "internalType": "address",
          "name": "operator",
          "type": "address"
        },
        {
          "indexed": false,
          "internalType": "bool",
          "name": "approved",
          "type": "bool"
        }
      ],
      "name": "ApprovalForAll",
      "type": "event"
    },
    {
      "anonymous": false,
      "inputs": [
        {
          "indexed": false,
          "internalType": "uint256",
          "name": "_fromTokenId",
          "type": "uint256"
        },
        {
          "indexed": false,
          "internalType": "uint256",
          "name": "_toTokenId",
          "type": "uint256"
        }
      ],
      "name": "BatchMetadataUpdate",
      "type": "event"
    },
    {
      "anonymous": false,
      "inputs": [
        {
          "indexed": false,
          "internalType": "uint256",
          "name": "newTimelock",
          "type": "uint256"
        }
      ],
      "name": "BurnTimelockChanged",
      "type": "event"
    },
    {
      "anonymous": false,
      "inputs": [
        {
          "indexed": true,
          "internalType": "uint256",
          "name": "tokenId",
          "type": "uint256"
        },
        {
          "indexed": true,
          "internalType": "address",
          "name": "approver",
          "type": "address"
        }
      ],
      "name": "CertificateBurnApproved",
      "type": "event"
    },
    {
      "anonymous": false,
      "inputs": [
        {
          "indexed": true,
          "internalType": "uint256",
          "name": "tokenId",
          "type": "uint256"
        },
        {
          "indexed": true,
          "internalType": "address",
          "name": "canceler",
          "type": "address"
        }
      ],
      "name": "CertificateBurnRequestCanceled",
      "type": "event"
    },
    {
      "anonymous": false,
      "inputs": [
        {
          "indexed": true,
          "internalType": "uint256",
          "name": "tokenId",
          "type": "uint256"
        },
        {
          "indexed": true,
          "internalType": "address",
          "name": "requester",
          "type": "address"
        },
        {
          "indexed": false,
          "internalType": "string",
          "name": "reason",
          "type": "string"
        },
        {
          "indexed": false,
          "internalType": "uint256",
          "name": "executionTime",
          "type": "uint256"
        }
      ],
      "name": "CertificateBurnRequested",
      "type": "event"
    },
    {
      "anonymous": false,
      "inputs": [
        {
          "indexed": true,
          "internalType": "uint256",
          "name": "tokenId",
          "type": "uint256"
        },
        {
          "indexed": true,
          "internalType": "address",
          "name": "burner",
          "type": "address"
        },
        {
          "indexed": false,
          "internalType": "string",
          "name": "reason",
          "type": "string"
        }
      ],
      "name": "CertificateBurned",
      "type": "event"
    },
    {
      "anonymous": false,
      "inputs": [
        {
          "indexed": true,
          "internalType": "uint256",
          "name": "tokenId",
          "type": "uint256"
        },
        {
          "indexed": true,
          "internalType": "address",
          "name": "student",
          "type": "address"
        },
        {
          "indexed": true,
          "internalType": "address",
          "name": "institution",
          "type": "address"
        },
        {
          "indexed": false,
          "internalType": "uint256",
          "name": "courseId",
          "type": "uint256"
        },
        {
          "indexed": false,
          "internalType": "uint256",
          "name": "completionDate",
          "type": "uint256"
        },
        {
          "indexed": false,
          "internalType": "uint256",
          "name": "grade",
          "type": "uint256"
        }
      ],
      "name": "CertificateIssued",
      "type": "event"
    },
    {
      "anonymous": false,
      "inputs": [
        {
          "indexed": true,
          "internalType": "uint256",
          "name": "tokenId",
          "type": "uint256"
        },
        {
          "indexed": true,
          "internalType": "address",
          "name": "revoker",
          "type": "address"
        },
        {
          "indexed": false,
          "internalType": "string",
          "name": "reason",
          "type": "string"
        }
      ],
      "name": "CertificateRevoked",
      "type": "event"
    },
    {
      "anonymous": false,
      "inputs": [
        {
          "indexed": true,
          "internalType": "uint256",
          "name": "tokenId",
          "type": "uint256"
        },
        {
          "indexed": false,
          "internalType": "bool",
          "name": "isVerified",
          "type": "bool"
        },
        {
          "indexed": false,
          "internalType": "bool",
          "name": "isRevoked",
          "type": "bool"
        },
        {
          "indexed": true,
          "internalType": "address",
          "name": "updatedBy",
          "type": "address"
        },
        {
          "indexed": false,
          "internalType": "uint256",
          "name": "timestamp",
          "type": "uint256"
        }
      ],
      "name": "CertificateStatusChanged",
      "type": "event"
    },
    {
      "anonymous": false,
      "inputs": [
        {
          "indexed": true,
          "internalType": "uint256",
          "name": "tokenId",
          "type": "uint256"
        },
        {
          "indexed": false,
          "internalType": "uint256",
          "name": "newGrade",
          "type": "uint256"
        },
        {
          "indexed": false,
          "internalType": "string",
          "name": "updateReason",
          "type": "string"
        }
      ],
      "name": "CertificateUpdated",
      "type": "event"
    },
    {
      "anonymous": false,
      "inputs": [
        {
          "indexed": true,
          "internalType": "uint256",
          "name": "tokenId",
          "type": "uint256"
        },
        {
          "indexed": true,
          "internalType": "address",
          "name": "verifier",
          "type": "address"
        }
      ],
      "name": "CertificateVerified",
      "type": "event"
    },
    {
      "anonymous": false,
      "inputs": [
        {
          "indexed": true,
          "internalType": "uint256",
          "name": "courseId",
          "type": "uint256"
        },
        {
          "indexed": false,
          "internalType": "string",
          "name": "name",
          "type": "string"
        }
      ],
      "name": "CourseNameSet",
      "type": "event"
    },
    {
      "anonymous": false,
      "inputs": [
        {
          "indexed": true,
          "internalType": "address",
          "name": "institution",
          "type": "address"
        }
      ],
      "name": "InstitutionAuthorized",
      "type": "event"
    },
    {
      "anonymous": false,
      "inputs": [
        {
          "indexed": true,
          "internalType": "address",
          "name": "institution",
          "type": "address"
        }
      ],
      "name": "InstitutionRevoked",
      "type": "event"
    },
    {
      "anonymous": false,
      "inputs": [
        {
          "indexed": false,
          "internalType": "uint256",
          "name": "_tokenId",
          "type": "uint256"
        }
      ],
      "name": "MetadataUpdate",
      "type": "event"
    },
    {
      "anonymous": false,
      "inputs": [
        {
          "indexed": true,
          "internalType": "address",
          "name": "previousOwner",
          "type": "address"
        },
        {
          "indexed": true,
          "internalType": "address",
          "name": "newOwner",
          "type": "address"
        }
      ],
      "name": "OwnershipTransferred",
      "type": "event"
    },
    {
      "anonymous": false,
      "inputs": [
        {
          "indexed": true,
          "internalType": "bytes32",
          "name": "role",
          "type": "bytes32"
        },
        {
          "indexed": true,
          "internalType": "bytes32",
          "name": "previousAdminRole",
          "type": "bytes32"
        },
        {
          "indexed": true,
          "internalType": "bytes32",
          "name": "newAdminRole",
          "type": "bytes32"
        }
      ],
      "name": "RoleAdminChanged",
      "type": "event"
    },
    {
      "anonymous": false,
      "inputs": [
        {
          "indexed": true,
          "internalType": "bytes32",
          "name": "role",
          "type": "bytes32"
        },
        {
          "indexed": true,
          "internalType": "address",
          "name": "account",
          "type": "address"
        },
        {
          "indexed": true,
          "internalType": "address",
          "name": "sender",
          "type": "address"
        }
      ],
      "name": "RoleGranted",
      "type": "event"
    },
    {
      "anonymous": false,
      "inputs": [
        {
          "indexed": true,
          "internalType": "bytes32",
          "name": "role",
          "type": "bytes32"
        },
        {
          "indexed": true,
          "internalType": "address",
          "name": "account",
          "type": "address"
        },
        {
          "indexed": true,
          "internalType": "address",
          "name": "sender",
          "type": "address"
        }
      ],
      "name": "RoleRevoked",
      "type": "event"
    },
    {
      "anonymous": false,
      "inputs": [
        {
          "indexed": true,
          "internalType": "address",
          "name": "from",
          "type": "address"
        },
        {
          "indexed": true,
          "internalType": "address",
          "name": "to",
          "type": "address"
        },
        {
          "indexed": true,
          "internalType": "uint256",
          "name": "tokenId",
          "type": "uint256"
        }
      ],
      "name": "Transfer",
      "type": "event"
    },
    {
      "inputs": [],
      "name": "DEFAULT_ADMIN_ROLE",
      "outputs": [
        {
          "internalType": "bytes32",
          "name": "",
          "type": "bytes32"
        }
      ],
      "stateMutability": "view",
      "type": "function"
    },
    {
      "inputs": [],
      "name": "INSTITUTION_ROLE",
      "outputs": [
        {
          "internalType": "bytes32",
          "name": "",
          "type": "bytes32"
        }
      ],
      "stateMutability": "view",
      "type": "function"
    },
    {
      "inputs": [],
      "name": "INSTRUCTOR_ROLE",
      "outputs": [
        {
          "internalType": "bytes32",
          "name": "",
          "type": "bytes32"
        }
      ],
      "stateMutability": "view",
      "type": "function"
    },
    {
      "inputs": [
        {
          "internalType": "uint256",
          "name": "",
          "type": "uint256"
        }
      ],
      "name": "academicCertificates",
      "outputs": [
        {
          "internalType": "address",
          "name": "studentAddress",
          "type": "address"
        },
        {
          "internalType": "address",
          "name": "institutionAddress",
          "type": "address"
        },
        {
          "internalType": "uint256",
          "name": "courseId",
          "type": "uint256"
        },
        {
          "internalType": "uint256",
          "name": "completionDate",
          "type": "uint256"
        },
        {
          "internalType": "uint256",
          "name": "grade",
          "type": "uint256"
        },
        {
          "internalType": "bool",
          "name": "isVerified",
          "type": "bool"
        },
        {
          "internalType": "string",
          "name": "certificateHash",
          "type": "string"
        },
        {
          "internalType": "bool",
          "name": "isRevoked",
          "type": "bool"
        },
        {
          "internalType": "string",
          "name": "revocationReason",
          "type": "string"
        },
        {
          "internalType": "uint256",
          "name": "version",
          "type": "uint256"
        },
        {
          "internalType": "uint256",
          "name": "lastUpdateDate",
          "type": "uint256"
        },
        {
          "internalType": "string",
          "name": "updateReason",
          "type": "string"
        }
      ],
      "stateMutability": "view",
      "type": "function"
    },
    {
      "inputs": [
        {
          "internalType": "address",
          "name": "to",
          "type": "address"
        },
        {
          "internalType": "uint256",
          "name": "tokenId",
          "type": "uint256"
        }
      ],
      "name": "approve",
      "outputs": [],
      "stateMutability": "nonpayable",
      "type": "function"
    },
    {
      "inputs": [
        {
          "internalType": "uint256",
          "name": "tokenId",
          "type": "uint256"
        }
      ],
      "name": "approveBurnCertificate",
      "outputs": [],
      "stateMutability": "nonpayable",
      "type": "function"
    },
    {
      "inputs": [
        {
          "internalType": "address",
          "name": "institution",
          "type": "address"
        }
      ],
      "name": "authorizeInstitution",
      "outputs": [],
      "stateMutability": "nonpayable",
      "type": "function"
    },
    {
      "inputs": [
        {
          "internalType": "address",
          "name": "",
          "type": "address"
        }
      ],
      "name": "authorizedInstitutions",
      "outputs": [
        {
          "internalType": "bool",
          "name": "",
          "type": "bool"
        }
      ],
      "stateMutability": "view",
      "type": "function"
    },
    {
      "inputs": [
        {
          "internalType": "address",
          "name": "owner",
          "type": "address"
        }
      ],
      "name": "balanceOf",
      "outputs": [
        {
          "internalType": "uint256",
          "name": "",
          "type": "uint256"
        }
      ],
      "stateMutability": "view",
      "type": "function"
    },
    {
      "inputs": [
        {
          "internalType": "uint256",
          "name": "",
          "type": "uint256"
        }
      ],
      "name": "burnApproved",
      "outputs": [
        {
          "internalType": "bool",
          "name": "",
          "type": "bool"
        }
      ],
      "stateMutability": "view",
      "type": "function"
    },
    {
      "inputs": [
        {
          "internalType": "uint256",
          "name": "tokenId",
          "type": "uint256"
        },
        {
          "internalType": "string",
          "name": "reason",
          "type": "string"
        }
      ],
      "name": "burnCertificate",
      "outputs": [],
      "stateMutability": "nonpayable",
      "type": "function"
    },
    {
      "inputs": [
        {
          "internalType": "uint256",
          "name": "",
          "type": "uint256"
        }
      ],
      "name": "burnRequestTimestamps",
      "outputs": [
        {
          "internalType": "uint256",
          "name": "",
          "type": "uint256"
        }
      ],
      "stateMutability": "view",
      "type": "function"
    },
    {
      "inputs": [],
      "name": "burnTimelock",
      "outputs": [
        {
          "internalType": "uint256",
          "name": "",
          "type": "uint256"
        }
      ],
      "stateMutability": "view",
      "type": "function"
    },
    {
      "inputs": [
        {
          "internalType": "uint256",
          "name": "tokenId",
          "type": "uint256"
        }
      ],
      "name": "cancelBurnRequest",
      "outputs": [],
      "stateMutability": "nonpayable",
      "type": "function"
    },
    {
      "inputs": [
        {
          "internalType": "uint256",
          "name": "",
          "type": "uint256"
        }
      ],
      "name": "courseNames",
      "outputs": [
        {
          "internalType": "string",
          "name": "",
          "type": "string"
        }
      ],
      "stateMutability": "view",
      "type": "function"
    },
    {
      "inputs": [
        {
          "internalType": "uint256",
          "name": "tokenId",
          "type": "uint256"
        }
      ],
      "name": "getApproved",
      "outputs": [
        {
          "internalType": "address",
          "name": "",
          "type": "address"
        }
      ],
      "stateMutability": "view",
      "type": "function"
    },
    {
      "inputs": [
        {
          "internalType": "uint256",
          "name": "courseId",
          "type": "uint256"
        }
      ],
      "name": "getCourseName",
      "outputs": [
        {
          "internalType": "string",
          "name": "",
          "type": "string"
        }
      ],
      "stateMutability": "view",
      "type": "function"
    },
    {
      "inputs": [
        {
          "internalType": "bytes32",
          "name": "role",
          "type": "bytes32"
        }
      ],
      "name": "getRoleAdmin",
      "outputs": [
        {
          "internalType": "bytes32",
          "name": "",
          "type": "bytes32"
        }
      ],
      "stateMutability": "view",
      "type": "function"
    },
    {
      "inputs": [
        {
          "internalType": "bytes32",
          "name": "role",
          "type": "bytes32"
        },
        {
          "internalType": "address",
          "name": "account",
          "type": "address"
        }
      ],
      "name": "grantRole",
      "outputs": [],
      "stateMutability": "nonpayable",
      "type": "function"
    },
    {
      "inputs": [
        {
          "internalType": "bytes32",
          "name": "role",
          "type": "bytes32"
        },
        {
          "internalType": "address",
          "name": "account",
          "type": "address"
        }
      ],
      "name": "hasRole",
      "outputs": [
        {
          "internalType": "bool",
          "name": "",
          "type": "bool"
        }
      ],
      "stateMutability": "view",
      "type": "function"
    },
    {
      "inputs": [
        {
          "internalType": "address",
          "name": "owner",
          "type": "address"
        },
        {
          "internalType": "address",
          "name": "operator",
          "type": "address"
        }
      ],
      "name": "isApprovedForAll",
      "outputs": [
        {
          "internalType": "bool",
          "name": "",
          "type": "bool"
        }
      ],
      "stateMutability": "view",
      "type": "function"
    },
    {
      "inputs": [
        {
          "internalType": "address",
          "name": "student",
          "type": "address"
        },
        {
          "internalType": "uint256",
          "name": "courseId",
          "type": "uint256"
        },
        {
          "internalType": "uint256",
          "name": "grade",
          "type": "uint256"
        },
        {
          "internalType": "string",
          "name": "certificateHash",
          "type": "string"
        }
      ],
      "name": "issueCertificate",
      "outputs": [
        {
          "internalType": "uint256",
          "name": "",
          "type": "uint256"
        }
      ],
      "stateMutability": "nonpayable",
      "type": "function"
    },
    {
      "inputs": [],
      "name": "name",
      "outputs": [
        {
          "internalType": "string",
          "name": "",
          "type": "string"
        }
      ],
      "stateMutability": "view",
      "type": "function"
    },
    {
      "inputs": [],
      "name": "owner",
      "outputs": [
        {
          "internalType": "address",
          "name": "",
          "type": "address"
        }
      ],
      "stateMutability": "view",
      "type": "function"
    },
    {
      "inputs": [
        {
          "internalType": "uint256",
          "name": "tokenId",
          "type": "uint256"
        }
      ],
      "name": "ownerOf",
      "outputs": [
        {
          "internalType": "address",
          "name": "",
          "type": "address"
        }
      ],
      "stateMutability": "view",
      "type": "function"
    },
    {
      "inputs": [],
      "name": "renounceOwnership",
      "outputs": [],
      "stateMutability": "nonpayable",
      "type": "function"
    },
    {
      "inputs": [
        {
          "internalType": "bytes32",
          "name": "role",
          "type": "bytes32"
        },
        {
          "internalType": "address",
          "name": "callerConfirmation",
          "type": "address"
        }
      ],
      "name": "renounceRole",
      "outputs": [],
      "stateMutability": "nonpayable",
      "type": "function"
    },
    {
      "inputs": [
        {
          "internalType": "uint256",
          "name": "tokenId",
          "type": "uint256"
        },
        {
          "internalType": "string",
          "name": "reason",
          "type": "string"
        }
      ],
      "name": "requestBurnCertificate",
      "outputs": [],
      "stateMutability": "nonpayable",
      "type": "function"
    },
    {
      "inputs": [
        {
          "internalType": "uint256",
          "name": "tokenId",
          "type": "uint256"
        },
        {
          "internalType": "string",
          "name": "reason",
          "type": "string"
        }
      ],
      "name": "revokeCertificate",
      "outputs": [],
      "stateMutability": "nonpayable",
      "type": "function"
    },
    {
      "inputs": [
        {
          "internalType": "address",
          "name": "institution",
          "type": "address"
        }
      ],
      "name": "revokeInstitution",
      "outputs": [],
      "stateMutability": "nonpayable",
      "type": "function"
    },
    {
      "inputs": [
        {
          "internalType": "bytes32",
          "name": "role",
          "type": "bytes32"
        },
        {
          "internalType": "address",
          "name": "account",
          "type": "address"
        }
      ],
      "name": "revokeRole",
      "outputs": [],
      "stateMutability": "nonpayable",
      "type": "function"
    },
    {
      "inputs": [
        {
          "internalType": "address",
          "name": "from",
          "type": "address"
        },
        {
          "internalType": "address",
          "name": "to",
          "type": "address"
        },
        {
          "internalType": "uint256",
          "name": "tokenId",
          "type": "uint256"
        }
      ],
      "name": "safeTransferFrom",
      "outputs": [],
      "stateMutability": "nonpayable",
      "type": "function"
    },
    {
      "inputs": [
        {
          "internalType": "address",
          "name": "from",
          "type": "address"
        },
        {
          "internalType": "address",
          "name": "to",
          "type": "address"
        },
        {
          "internalType": "uint256",
          "name": "tokenId",
          "type": "uint256"
        },
        {
          "internalType": "bytes",
          "name": "data",
          "type": "bytes"
        }
      ],
      "name": "safeTransferFrom",
      "outputs": [],
      "stateMutability": "nonpayable",
      "type": "function"
    },
    {
      "inputs": [
        {
          "internalType": "address",
          "name": "operator",
          "type": "address"
        },
        {
          "internalType": "bool",
          "name": "approved",
          "type": "bool"
        }
      ],
      "name": "setApprovalForAll",
      "outputs": [],
      "stateMutability": "nonpayable",
      "type": "function"
    },
    {
      "inputs": [
        {
          "internalType": "uint256",
          "name": "newTimelock",
          "type": "uint256"
        }
      ],
      "name": "setBurnTimelock",
      "outputs": [],
      "stateMutability": "nonpayable",
      "type": "function"
    },
    {
      "inputs": [
        {
          "internalType": "uint256",
          "name": "tokenId",
          "type": "uint256"
        },
        {
          "internalType": "string",
          "name": "uri",
          "type": "string"
        }
      ],
      "name": "setCertificateURI",
      "outputs": [],
      "stateMutability": "nonpayable",
      "type": "function"
    },
    {
      "inputs": [
        {
          "internalType": "uint256",
          "name": "courseId",
          "type": "uint256"
        },
        {
          "internalType": "string",
          "name": "name",
          "type": "string"
        }
      ],
      "name": "setCourseName",
      "outputs": [],
      "stateMutability": "nonpayable",
      "type": "function"
    },
    {
      "inputs": [
        {
          "internalType": "bytes4",
          "name": "interfaceId",
          "type": "bytes4"
        }
      ],
      "name": "supportsInterface",
      "outputs": [
        {
          "internalType": "bool",
          "name": "",
          "type": "bool"
        }
      ],
      "stateMutability": "view",
      "type": "function"
    },
    {
      "inputs": [],
      "name": "symbol",
      "outputs": [
        {
          "internalType": "string",
          "name": "",
          "type": "string"
        }
      ],
      "stateMutability": "view",
      "type": "function"
    },
    {
      "inputs": [
        {
          "internalType": "uint256",
          "name": "index",
          "type": "uint256"
        }
      ],
      "name": "tokenByIndex",
      "outputs": [
        {
          "internalType": "uint256",
          "name": "",
          "type": "uint256"
        }
      ],
      "stateMutability": "view",
      "type": "function"
    },
    {
      "inputs": [
        {
          "internalType": "uint256",
          "name": "tokenId",
          "type": "uint256"
        }
      ],
      "name": "tokenExists",
      "outputs": [
        {
          "internalType": "bool",
          "name": "",
          "type": "bool"
        }
      ],
      "stateMutability": "view",
      "type": "function"
    },
    {
      "inputs": [
        {
          "internalType": "address",
          "name": "owner",
          "type": "address"
        },
        {
          "internalType": "uint256",
          "name": "index",
          "type": "uint256"
        }
      ],
      "name": "tokenOfOwnerByIndex",
      "outputs": [
        {
          "internalType": "uint256",
          "name": "",
          "type": "uint256"
        }
      ],
      "stateMutability": "view",
      "type": "function"
    },
    {
      "inputs": [
        {
          "internalType": "uint256",
          "name": "tokenId",
          "type": "uint256"
        }
      ],
      "name": "tokenURI",
      "outputs": [
        {
          "internalType": "string",
          "name": "",
          "type": "string"
        }
      ],
      "stateMutability": "view",
      "type": "function"
    },
    {
      "inputs": [],
      "name": "totalSupply",
      "outputs": [
        {
          "internalType": "uint256",
          "name": "",
          "type": "uint256"
        }
      ],
      "stateMutability": "view",
      "type": "function"
    },
    {
      "inputs": [
        {
          "internalType": "address",
          "name": "from",
          "type": "address"
        },
        {
          "internalType": "address",
          "name": "to",
          "type": "address"
        },
        {
          "internalType": "uint256",
          "name": "tokenId",
          "type": "uint256"
        }
      ],
      "name": "transferFrom",
      "outputs": [],
      "stateMutability": "nonpayable",
      "type": "function"
    },
    {
      "inputs": [
        {
          "internalType": "address",
          "name": "newOwner",
          "type": "address"
        }
      ],
      "name": "transferOwnership",
      "outputs": [],
      "stateMutability": "nonpayable",
      "type": "function"
    },
    {
      "inputs": [
        {
          "internalType": "uint256",
          "name": "tokenId",
          "type": "uint256"
        },
        {
          "internalType": "uint256",
          "name": "newGrade",
          "type": "uint256"
        },
        {
          "internalType": "string",
          "name": "updateReason",
          "type": "string"
        }
      ],
      "name": "updateCertificate",
      "outputs": [],
      "stateMutability": "nonpayable",
      "type": "function"
    },
    {
      "inputs": [
        {
          "internalType": "uint256",
          "name": "",
          "type": "uint256"
        }
      ],
      "name": "verifiedCertificates",
      "outputs": [
        {
          "internalType": "bool",
          "name": "",
          "type": "bool"
        }
      ],
      "stateMutability": "view",
      "type": "function"
    },
    {
      "inputs": [
        {
          "internalType": "uint256",
          "name": "tokenId",
          "type": "uint256"
        }
      ],
      "name": "verifyCertificate",
      "outputs": [],
      "stateMutability": "nonpayable",
      "type": "function"
    }
  ],
  "bytecode": "0x608060409080825234620003b1575080516001600160401b039190808201838111828210176200039b578252601c81526020907f536f756c626f756e6441636164656d696343657274696669636174650000000082820152825193838501858110828211176200039b578452600685526514d050d1549560d21b8386015281518181116200039b576000938454916001948584811c9416801562000390575b838510146200037c578190601f9485811162000329575b508390858311600114620002c5578892620002b9575b5050600019600383901b1c191690851b1785555b8651928311620002a55783548481811c911680156200029a575b8282101462000286578281116200023e575b5080918311600114620001d7575083949582939492620001cb575b5050600019600383901b1c191690821b1790555b3315620001b557600b8054336001600160a01b03198216811790925590916001600160a01b03909116907f8be0079c531659141344cd1fd0a4f28419497f9722a3daafe3b4186f6b6457e09080a36200019333620003fe565b506200019f336200047f565b506203f480601355516135c29081620005238239f35b6024915190631e4fbdf760e01b82526004820152fd5b01519050388062000126565b90601f198316968486528286209286905b898210620002265750508385969798106200020c575b505050811b0190556200013a565b015160001960f88460031b161c19169055388080620001fe565b808785968294968601518155019501930190620001e8565b8486528186208380860160051c8201928487106200027c575b0160051c019085905b828110620002705750506200010b565b87815501859062000260565b9250819262000257565b634e487b7160e01b86526022600452602486fd5b90607f1690620000f9565b634e487b7160e01b85526041600452602485fd5b015190503880620000cb565b8880528489208894509190601f1984168a5b87828210620003125750508411620002f8575b505050811b018555620000df565b015160001960f88460031b161c19169055388080620002ea565b8385015186558b97909501949384019301620002d7565b9091508780528388208580850160051c82019286861062000372575b918991869594930160051c01915b82811062000363575050620000b5565b8a815585945089910162000353565b9250819262000345565b634e487b7160e01b87526022600452602487fd5b93607f16936200009e565b634e487b7160e01b600052604160045260246000fd5b62461bcd60e51b815260206004820152602260248201527f45746865722073656e7420746f206e6f6e2d70617961626c652066756e63746960448201526137b760f11b6064820152608490fd5b6001600160a01b031660008181527f13649b2456f1b42fef0f0040b3aaeabcd21a76a0f3f5defd4f583839455116e8602052604081205490919060ff166200047b57818052600c6020526040822081835260205260408220600160ff19825416179055339160008051602062003ae58339815191528180a4600190565b5090565b6001600160a01b031660008181527fb648ddf3bddf768cd741f6298d8ff7b48ee7bc93e38d035b90b1e0338bc911ce60205260408120549091907f01f18e249044142f95a61b39bad5f99f3c70699c83bb85a1ad87fe9e68bd85d19060ff166200051d57808352600c6020526040832082845260205260408320600160ff1982541617905560008051602062003ae5833981519152339380a4600190565b50509056fe60806040526004361015610071575b60405162461bcd60e51b815260206004820152603560248201527f436f6e747261637420646f6573206e6f7420686176652066616c6c6261636b206044820152746e6f7220726563656976652066756e6374696f6e7360581b6064820152608490fd5b60003560e01c8062923f9e146124e3578062c61240146124c557806301ffc9a71461240957806306fdde0314612379578063081812fc1461233b578063095ea7b31461225457806312cb5f2c146103775780631692a942146120a057806316b784fe1461206157806318160ddd146120435780631b929c211461201a5780631c67494e14611f7157806323b872dd14611f5a578063248a9ca314611f2b5780632f2ff15d14611eec5780632f745c5914611e6857806336568abe14611e215780633a2c2eff14611b9857806340f348bf14611b6757806342842e0e14611b3f57806347b0978e14611ad85780634f6ccce714611a825780635c0cedd114611a075780636352211e146119d757806370388b91146118d857806370a08231146118ad578063715018a6146118505780637a490fe1146115f45780637ea04e23146115dd5780638b6c1221146115915780638bcf979c146115565780638da5cb5b1461152d57806391110d70146113f557806391d14854146113a857806395d89b41146112e25780639e1223771461115d578063a217fddf14611141578063a22cb4651461108e578063b1466d1d14610d8c578063b88d4fde14610d28578063bd4d8bcb14610c65578063c33786cc146104b2578063c87b56dd14610459578063d547741f14610418578063d76db641146103e7578063db5cb3f8146103bb578063e59fde1514610377578063e985e9c5146103215763f2fde38b0361000e573461031c576020366003190112610317576102a861264e565b6102b0612fcf565b6001600160a01b039081169081156102fe57600b80546001600160a01b031981168417909155167f8be0079c531659141344cd1fd0a4f28419497f9722a3daafe3b4186f6b6457e0600080a3005b604051631e4fbdf760e01b815260006004820152602490fd5b61256e565b61251e565b3461031c5760403660031901126103175761033a61264e565b610342612664565b9060018060a01b03809116600052600560205260406000209116600052602052602060ff604060002054166040519015158152f35b3461031c5760203660031901126103175760043560005260116020526103b76103a3604060002061287c565b60405191829160208352602083019061260e565b0390f35b3461031c5760203660031901126103175760043560005260146020526020604060002054604051908152f35b3461031c576020366003190112610317576004356000526012602052602060ff604060002054166040519015158152f35b3461031c57604036600319011261031757610457600435610437612664565b9080600052600c6020526104526001604060002001546130ff565b613088565b005b3461031c5760203660031901126103175760043561047681612f5c565b5060005260066020526103b761048f604060002061287c565b600060405161049d81612712565b5260405191829160208352602083019061260e565b3461031c576080366003190112610317576104cb61264e565b6064356001600160401b038111610c60576104ea9036906004016127f5565b33600090815260008051602061352d833981519152602052604090205490919060ff1615610c48576001600160a01b03811615610c2657815115610c00576105336024356134eb565b6001600d54019081600d5581600052600260205260018060a01b0360406000205416151580610bf8575b610bdf576000828152600260205260409020546001600160a01b03168015908115610ba8575b6001600160a01b0383166000818152600360209081526040808320805460010190558783526002909152812080546001600160a01b03191683179055859190839060008051602061356d8339815191529080a48115610b185760095484600052600a60205280604060002055600160401b811015610981578461060f8260016106289401600955612c50565b90919082549060031b91821b91600019901b1916179055565b6001600160a01b03831603610aae575b15610a95576040519261064a846126f6565b60018060a01b038216845233602085015260243560408501524260608501526044356080850152600060a085015260c0840152600060e084015260405161069081612712565b600081526101008401526001610120840152426101408401526040518060408101106001600160401b036040830111176109815760408101604052601081526f496e697469616c2069737375616e636560801b602082015261016084015281600052600e602052604060002060018060a01b0384511660018060a01b03198254161781556001810160018060a01b0360208601511660018060a01b031982541617905560408401516002820155606084015160038201556080840151600482015561077060a08501511515600583019060ff801983541691151516179055565b60c08401518051906001600160401b0382116109815781906107a2826107996006870154612842565b60068701612c0b565b602090601f8311600114610a2357600092610a18575b50508160011b916000199060031b1c19161760068201555b6107ef60e08501511515600783019060ff801983541691151516179055565b6101008401518051906001600160401b03821161098157610820826108176008860154612842565b60088601612c0b565b602090601f83116001146109a25791806101609492600b94600092610997575b50508160011b916000199060031b1c19161760088201555b6101208601516009820155610140860151600a820155019301519283516001600160401b038111610981578060209561089b826108958654612842565b86612c0b565b8690601f831160011461091d57600092610912575b50508160011b916000199060031b1c19161790555b604051602435815242848201526044356040820152827f636175608525e128a815a142ae0108300a1bf57c9fae45774e336ba6686a4c0f6060339460018060a01b031693a4604051908152f35b0151905086806108b0565b60008581528881209350601f198516905b81811061096a5750908460019594939210610951575b505050811b0190556108c5565b015160001960f88460031b161c19169055868080610944565b92938960018192878601518155019501930161092e565b634e487b7160e01b600052604160045260246000fd5b015190508880610840565b906008840160005260206000209160005b601f1985168110610a005750926101609492600192600b9583601f198116106109e7575b505050811b016008820155610858565b015160001960f88460031b161c191690558880806109d7565b919260206001819286850151815501940192016109b3565b0151905086806107b8565b9250600684016000526020600020906000935b601f1984168510610a7a576001945083601f19811610610a61575b505050811b0160068201556107d0565b015160001960f88460031b161c19169055868080610a51565b81810151835560209485019460019093019290910190610a36565b6040516339e3563760e11b815260006004820152602490fd5b610ab782612c81565b80600019810111610b025760018060a01b0383166000526007602052604060002060001982016000526020528360406000205583600052600860205260001901604060002055610638565b634e487b7160e01b600052601160045260246000fd5b6001600160a01b038316811461062857610b3181612c81565b84600052600860205260406000205490826000526007602052604060002091818103610b7b575b508560005260086020526000604081205560005260205260006040812055610628565b81600052826020526040600020548160005280604060002055600052600860205260406000205587610b58565b600084815260046020526040902080546001600160a01b031916905580600052600360205260406000206000198154019055610583565b6040516380e63c5b60e01b815260048101839052602490fd5b50600161055d565b6040516355b7113960e11b81526020600482015280610c22602482018561260e565b0390fd5b604051631397721d60e11b81526001600160a01b039091166004820152602490fd5b604051636cfe7de360e11b8152336004820152602490fd5b6125be565b3461031c57602036600319011261031757610c7e61264e565b610c86612fcf565b6001600160a01b038116908115610d0f5781600052600f60205260ff60406000205416610cf757610ccf9082600052600f6020526040600020600160ff19825416179055613143565b507f2aef8a157b05c49aaaeebd094bf2b10b2b90835af1fd87c288f6effa9a6a2434600080a2005b60405162a86b3b60e31b815260048101839052602490fd5b604051631397721d60e11b815260048101839052602490fd5b3461031c57608036600319011261031757610d4161264e565b610d49612664565b606435916001600160401b038311610c605736602384011215610d8757610d7d610457933690602481600401359101612769565b9160443591612db1565b6126af565b3461031c57610d9a36612813565b33600090815260008051602061352d83398151915260209081526040909120549092919060ff1615610c4857610dcf82612f97565b81600052600e8352604060002090604051610de9816126f6565b82546001600160a01b0390811682526001848101548216878401908152600286015460408501526003860154606085015260048601546080850152600586015460ff16151560a085015290949092610e436006830161287c565b60c0820152610160610e90600b60ff6007860154169460e085019515158652610e6e6008820161287c565b6101008601526009810154610120860152600a8101546101408601520161287c565b910152516110755733915116036110565782600052600e84526040600020600781018360ff198254161790556008810182516001600160401b03811161098157610ee481610ede8454612842565b84612c0b565b86601f8211600114610ff2579080600b949392600091610fe7575b50600019600383901b1c191690861b1790555b6009810184815401905542600a82015501610f2d8154612842565b601f8111610fc6575b5060267210d95c9d1a599a58d85d19481c995d9bdad959606a1b019055827fe30209e229ea01f995092aa4cd5d70b4cd972c12645ab69fa4884bd9882f778f60405186815280610f8a33958983019061260e565b0390a360405192600084528301524260408301527f48f81e213b32b2c1ce2241f0e6ebac399defe4b40154c4b27eee349703d2c4c560603393a3005b610fe19082600052601f87600020910160051c810190612bf4565b85610f36565b905085015189610eff565b6000838152888120601f198416959493889390925b8b88821061104057505082600b9710611027575b5050811b019055610f12565b87015160001960f88460031b161c19169055898061101b565b828a015184558a95909301929182019101611007565b604051632ed467df60e21b815260048101849052336024820152604490fd5b604051633333331160e21b815260048101869052602490fd5b3461031c576040366003190112610317576110a761264e565b602435908115159081830361113c576001600160a01b0316918215611123576110f59033600052600560205260406000208460005260205260406000209060ff801983541691151516179055565b6040519081527f17307eab39ab6107e8899845ad3d59bd9653f200f220920489ca2b5937696c3160203392a3005b604051630b61174360e31b815260048101849052602490fd5b600080fd5b3461031c57600036600319011261031757602060405160008152f35b3461031c5761116b36612813565b33600090815260008051602061352d83398151915260209081526040909120549092919060ff1615610c48576111a0826134eb565b8051156112d05781600052601183526040600020928151936001600160401b038511610981576111da856111d48354612842565b83612c0b565b81601f861160011461124b5794807fbbd283619af086f9a6f529d3c42028194416e7bd4589c342bcdde630dc0dae449596600091611240575b508160011b916000199060031b1c19161790555b61123b60405192828493845283019061260e565b0390a2005b905084015187611213565b601f1986169082600052836000209160005b8181106112b957509187917fbbd283619af086f9a6f529d3c42028194416e7bd4589c342bcdde630dc0dae449798600194106112a0575b5050811b019055611227565b86015160001960f88460031b161c191690558780611294565b91928560018192868a01518155019401920161125d565b60405163206e688f60e11b8152600490fd5b3461031c5760003660031901126103175760405160006001826001549261130884612842565b9283835260209485600182169182600014611388575050600114611348575b506113349250038361272d565b6103b760405192828493845283019061260e565b849150600160005281600020906000915b858310611370575050611334935082010185611327565b80548389018501528794508693909201918101611359565b60ff19168582015261133495151560051b85010192508791506113279050565b3461031c576040366003190112610317576113c1612664565b600435600052600c60205260406000209060018060a01b0316600052602052602060ff604060002054166040519015158152f35b3461031c5760203660031901126103175760043561141281612f97565b8060005260146020526040600020541561151557600b546000828152600e6020908152604080832060010154338085527f13649b2456f1b42fef0f0040b3aaeabcd21a76a0f3f5defd4f583839455116e89093529220546001600160a01b03938416909114159260ff90911691168261150a575b5081611501575b506114e2576114b9816000526014602052600060408120556012602052604060002060ff198154169055565b33907f11143d655e249bbbffa03e33226891bc14a87c6a65dfb9ffd68f68ac5efe3a1f600080a3005b60405162f7538360e11b81526004810191909152336024820152604490fd5b9050158261148d565b331415915083611486565b60249060405190636ea6c95d60e11b82526004820152fd5b3461031c57600036600319011261031757600b546040516001600160a01b039091168152602090f35b3461031c5760003660031901126103175760206040517fae4a0595970935aa5495afbbb72e5f1f6ff1062766b4a3028c0c9b7d5cf7e3458152f35b3461031c576020366003190112610317577f1e1d873080a18041b863cb051bd8b12bc7e94f46a18e380428225fd573c89e0760206004356115d0612fcf565b80601355604051908152a1005b3461031c576104576115ee36612813565b90612cba565b3461031c576040366003190112610317576001600160401b03602480359060043590838311610c605736602384011215610d875782600401359284841161180a57368285830101116117c45733600090815260008051602061352d833981519152602090815260409091205490949060ff16156117ad579061168b9161167985612f97565b61168285613248565b83369201612769565b938260005260068452604060002091855191821161179957506116b281610ede8454612842565b8394601f8211600114611713577ff8e1a15aba9398e019f0b49df1a4fde98ee17ae345cb5f6b5e2c27f5033e8ce79560009183611708575b50508160011b916000199060031b1c19161790555b604051908152a1005b0151905086806116ea565b601f1982169583600052856000209160005b8881106117825750908392916001947ff8e1a15aba9398e019f0b49df1a4fde98ee17ae345cb5f6b5e2c27f5033e8ce79910611769575b505050811b0190556116ff565b015160001960f88460031b161c1916905586808061175c565b919287600181928685015181550194019201611725565b634e487b7160e01b60009081526041600452fd5b604051636cfe7de360e11b81523360048201528390fd5b60405162461bcd60e51b815260206004820152602b8184015260008051602061350d83398151915260448201526a727261792073747269646560a81b6064820152608490fd5b60405162461bcd60e51b815260206004820152602b8184015260008051602061350d83398151915260448201526a0e4e4c2f240d8cadccee8d60ab1b6064820152608490fd5b3461031c57600036600319011261031757611869612fcf565b600b80546001600160a01b031981169091556000906001600160a01b03167f8be0079c531659141344cd1fd0a4f28419497f9722a3daafe3b4186f6b6457e08280a3005b3461031c5760203660031901126103175760206118d06118cb61264e565b612c81565b604051908152f35b3461031c57602036600319011261031757600435600052600e6020526040600020600160a01b6001900390818154169160018201541690600281015492600382015491600481015491600582015460ff1690600683016119379061287c565b600784015460ff169161194c6008860161287c565b93600986015496600a87015496600b016119659061287c565b986040519b8c9b610180958d5260208d015260408c015260608b015260808a0152151560a08901528060c0890152870161199e9161260e565b90151560e08701528581036101008701526119b89161260e565b916101208501526101408401528281036101608401526103b79161260e565b3461031c5760203660031901126103175760206119f5600435612f5c565b6040516001600160a01b039091168152f35b3461031c57611a1536612813565b90611a1f81612f97565b611a2881613248565b7f5dc19f30c4d56eb5ff19a063cc38bf24c94258263f26e69011dc680bad583f2a60135442019282600052601460205242604060002055611a746040519160408352604083019061260e565b9360208201528033940390a3005b3461031c57602036600319011261031757600435600954811015611ab957611aab602091612c50565b90546040519160031b1c8152f35b6044906040519063295f44f760e21b8252600060048301526024820152fd5b3461031c57602036600319011261031757600435611af4612fcf565b611afd81612f97565b8060005260126020526040600020600160ff1982541617905533907fba5b566c31f867be22a7d2c2dc448643e8aad68e820fe0b8e493fef50609b40b600080a3005b3461031c57610457611b503661267a565b9060405192611b5e84612712565b60008452612db1565b3461031c576020366003190112610317576004356000526010602052602060ff604060002054166040519015158152f35b3461031c576060366003190112610317576024356004356001600160401b03604435818111610c6057611bcf9036906004016127f5565b9260008051602061354d833981519152600052602091600c8352604060002033600052835260ff6040600020541615610c4857611c0b84612f97565b83600052600e835260406000209060405191611c26836126f6565b80546001600160a01b03908116845260018281015490911686850152600282015460408501526003820154606085015260048201546080850152600582015460ff16151560a085015292611c7c6006830161287c565b60c0820152610160611ca7600b60ff6007860154169460e085019515158652610e6e6008820161287c565b9101525161107557611cb885613248565b855115611dff5784600052600e8452600b60406000208460048201556009810184815401905542600a8201550191865191821161098157611d0382611cfd8554612842565b85612c0b565b84601f8311600114611d755791808061123b95937f2bf0396acfbe141ba9874474910bf82cf9d678e79aa0dcaf67347d9639849908999a95600093611d6a575b501b916000199060031b1c19161790555b604080519485948552840152604083019061260e565b86015192508b611d43565b601f9291921982169084600052866000209160005b818110611dea575091839161123b96947f2bf0396acfbe141ba9874474910bf82cf9d678e79aa0dcaf67347d96398499089a9b969410611dd1575b5050811b019055611d54565b85015160001960f88460031b161c191690558980611dc5565b8a830151845592850192918801918801611d8a565b6040516355b7113960e11b81526004810185905280610c22602482018961260e565b3461031c57604036600319011261031757611e3a612664565b336001600160a01b03821603611e565761045790600435613088565b60405163334bd91960e11b8152600490fd5b3461031c57604036600319011261031757611e8161264e565b60243590611e8e81612c81565b821015611ec15760018060a01b031660005260076020526040600020906000526020526020604060002054604051908152f35b60405163295f44f760e21b81526001600160a01b039190911660048201526024810191909152604490fd5b3461031c57604036600319011261031757610457600435611f0b612664565b9080600052600c602052611f266001604060002001546130ff565b6131cd565b3461031c57602036600319011261031757600435600052600c6020526020600160406000200154604051908152f35b3461031c57610457611f6b3661267a565b91612921565b3461031c57602036600319011261031757611f8a61264e565b611f92612fcf565b6001600160a01b038116908115610d0f5781600052600f60205260ff604060002054161561200157611fd99082600052600f602052604060002060ff198154169055612ffb565b507f5f2c961a0db2d72fa01bfae36aaca642457678d9c63adaca86c8cb1b3d1230f4600080a2005b6040516301ac7a4560e71b815260048101839052602490fd5b3461031c57600036600319011261031757602060405160008051602061354d8339815191528152f35b3461031c576000366003190112610317576020600954604051908152f35b3461031c576020366003190112610317576001600160a01b0361208261264e565b16600052600f602052602060ff604060002054166040519015158152f35b3461031c576020806003193601126103175760043560008051602061354d833981519152600052600c8252604060002033600052825260ff6040600020541615610c48576120ed81612f97565b80600052600e82526040600020604051612106816126f6565b81546001600160a01b03908116825260018301541684820152600282015460408201526003820154606082015260048201546080820152600582015460ff16151560a082019081529061215b6006840161287c565b60c0820152610160612186600b60ff6007870154169560e085019615158752610e6e6008820161287c565b9101525161223b57516122235780600052600e8252600560406000200160ff199060018282541617905560108352600160406000209182541617905560006040519233837fd7c96d6fc66839b1626cff5f8eccbacfa07b17981e577e09f16310f5fca240a88480a3600184528301524260408301527f48f81e213b32b2c1ce2241f0e6ebac399defe4b40154c4b27eee349703d2c4c560603393a3005b60249060405190633333331160e21b82526004820152fd5b60405163a9736f3b60e01b815260048101839052602490fd5b3461031c5760403660031901126103175761226d61264e565b60243561227981612f5c565b33151580612328575b806122fb575b6122e3576001600160a01b039283169282918491167f8c5be1e5ebec7d5bd14f71427d1e84f3dd0314c0f7b2291e5b200ac8c7c3b925600080a4600090815260046020526040902080546001600160a01b0319169091179055005b60405163a9fbf51f60e01b8152336004820152602490fd5b5060018060a01b038116600052600560205260406000203360005260205260ff6040600020541615612288565b506001600160a01b038116331415612282565b3461031c5760203660031901126103175760043561235881612f5c565b506000526004602052602060018060a01b0360406000205416604051908152f35b3461031c5760003660031901126103175760405160008054908261239c83612842565b91828252602093600190856001821691826000146113885750506001146123ca57506113349250038361272d565b8491506000805281600020906000915b8583106123f1575050611334935082010185611327565b805483890185015287945086939092019181016123da565b3461031c5760203660031901126103175760043563ffffffff60e01b811680910361113c57602090637965db0b60e01b811490811561244e575b506040519015158152f35b63780e9d6360e01b811491508115612468575b5082612443565b632483248360e11b811491508115612482575b5082612461565b6380ac58cd60e01b8114915081156124b4575b81156124a3575b508261247b565b6301ffc9a760e01b1490508261249c565b635b5e139f60e01b81149150612495565b3461031c576000366003190112610317576020601354604051908152f35b3461251e576020366003190112610317576004356000908152600260209081526040909120546001600160a01b031615156040519015158152f35b60405162461bcd60e51b815260206004820152602260248201527f45746865722073656e7420746f206e6f6e2d70617961626c652066756e63746960448201526137b760f11b6064820152608490fd5b60405162461bcd60e51b815260206004820152602260248201527f414249206465636f64696e673a207475706c65206461746120746f6f2073686f6044820152611c9d60f21b6064820152608490fd5b60405162461bcd60e51b815260206004820152602260248201527f414249206465636f64696e673a20696e76616c6964207475706c65206f666673604482015261195d60f21b6064820152608490fd5b919082519283825260005b84811061263a575050826000602080949584010152601f8019910116010190565b602081830181015184830182015201612619565b600435906001600160a01b038216820361113c57565b602435906001600160a01b038216820361113c57565b6060906003190112610317576001600160a01b0390600435828116810361113c5791602435908116810361113c579060443590565b60405162461bcd60e51b815260206004820152602b602482015260008051602061350d83398151915260448201526a1c9c985e481bd9999cd95d60aa1b6064820152608490fd5b61018081019081106001600160401b0382111761098157604052565b602081019081106001600160401b0382111761098157604052565b90601f801991011681019081106001600160401b0382111761098157604052565b6001600160401b03811161098157601f01601f191660200190565b9291926127758261274e565b91612783604051938461272d565b8294818452818301116127a0578281602093846000960137010152565b60405162461bcd60e51b815260206004820152602760248201527f414249206465636f64696e673a20696e76616c69642062797465206172726179604482015266040d8cadccee8d60cb1b6064820152608490fd5b9080601f83011215610d875781602061281093359101612769565b90565b9060406003198301126103175760043591602435906001600160401b038211610c6057612810916004016127f5565b90600182811c92168015612872575b602083101461285c57565b634e487b7160e01b600052602260045260246000fd5b91607f1691612851565b9060405191826000825461288f81612842565b908184526020946001916001811690816000146128ff57506001146128c0575b5050506128be9250038361272d565b565b600090815285812095935091905b8183106128e75750506128be93508201013880806128af565b855488840185015294850194879450918301916128ce565b925050506128be94925060ff191682840152151560051b8201013880806128af565b6001600160a01b0382811693918415612bdb5760009483865260209560028752604096848883205416151580612bd3575b612bbb57858252600281528488832054169633151580612b2d575b5087158015612afa575b84845260038352898420805460010190558784526002835289842080546001600160a01b0319168617905587858a60008051602061356d8339815191528780a415612a8e57600954878452600a8352898420819055600160401b811015612a7a578761060f8260016129ec9401600955612c50565b838803612a28575b505050501692838303612a075750505050565b6064945051926364283d7b60e01b8452600484015260248301526044820152fd5b612a3190612c81565b600019810193908411612a665782916008918a94526007815283832085845281528784842055878352522055388080806129f4565b634e487b7160e01b83526011600452602483fd5b634e487b7160e01b84526041600452602484fd5b8784146129ec57612a9e88612c81565b878452600883528984205490898552600784528a852091818103612ad8575b5088855260088452848b8120558452825282898120556129ec565b8186528285528b862054818752808d8820558652600885528b86205538612abd565b600088815260046020526040902080546001600160a01b0319169055888452600383528984208054600019019055612977565b80612b7a575b15612b3e573861296d565b888789612b5b576024915190637e27328960e01b82526004820152fd5b905163177e802f60e01b81523360048201526024810191909152604490fd5b503388148015612b9f575b80612b3357508683526004825233868a8520541614612b33565b5087835260058252888320338452825260ff8984205416612b85565b87516380e63c5b60e01b815260048101879052602490fd5b506001612952565b604051633250574960e11b815260006004820152602490fd5b818110612bff575050565b60008155600101612bf4565b9190601f8111612c1a57505050565b6128be926000526020600020906020601f840160051c83019310612c46575b601f0160051c0190612bf4565b9091508190612c39565b600954811015612c6b57600960005260206000200190600090565b634e487b7160e01b600052603260045260246000fd5b6001600160a01b03168015612ca157600052600360205260406000205490565b6040516322718ad960e21b815260006004820152602490fd5b90612cc482612f97565b600b546001600160a01b03163314612d7357612cdf82613248565b612ce8826134b0565b15612d5a57906128be91817f35faf8558c480dc4d2cccff074f589fa396b2de00632113765f18c4b6b43cb8a6040516020815280612d2b3395602083019061260e565b0390a3612d378161328c565b6000526014602052600060408120556012602052604060002060ff198154169055565b6040516315ca9f7160e01b815260048101839052602490fd5b906128be91817f35faf8558c480dc4d2cccff074f589fa396b2de00632113765f18c4b6b43cb8a6040516020815280612d2b3395602083019061260e565b612dbc838383612921565b813b612dc9575b50505050565b92936001600160a01b03918216939192909190843b15612f095760405193630a85bd0160e11b9283865233600487015216602485015260448401526080606484015282612e1c602096608483019061260e565b039285816000958187895af1849181612ec5575b50612e90575050503d600014612e88573d612e4a8161274e565b90612e58604051928361272d565b81528091843d92013e5b80519283612e8357604051633250574960e11b815260048101849052602490fd5b019050fd5b506060612e62565b919450915063ffffffff60e01b1603612ead575038808080612dc3565b60249060405190633250574960e11b82526004820152fd5b9091508681813d8311612f02575b612edd818361272d565b8101031261031757516001600160e01b031981168103612efe579038612e30565b8480fd5b503d612ed3565b60405162461bcd60e51b815260206004820152602560248201527f54617267657420636f6e747261637420646f6573206e6f7420636f6e7461696e60448201526420636f646560d81b6064820152608490fd5b6000818152600260205260409020546001600160a01b0316908115612f7f575090565b60249060405190637e27328960e01b82526004820152fd5b6000818152600260205260409020546001600160a01b031615612fb75750565b602490604051906379d9be1360e01b82526004820152fd5b600b546001600160a01b03163303612fe357565b60405163118cdaa760e01b8152336004820152602490fd5b6001600160a01b0316600081815260008051602061352d833981519152602052604081205490919060008051602061354d8339815191529060ff161561308357808352600c602052604083208284526020526040832060ff1981541690557ff6391f5c32d9c69d2a47ea670b442974b53935d1edc7fd64eb21e047a839171b339380a4600190565b505090565b90600091808352600c602052604083209160018060a01b03169182845260205260ff60408420541660001461308357808352600c602052604083208284526020526040832060ff1981541690557ff6391f5c32d9c69d2a47ea670b442974b53935d1edc7fd64eb21e047a839171b339380a4600190565b80600052600c60205260406000203360005260205260ff60406000205416156131255750565b6044906040519063e2517d3f60e01b82523360048301526024820152fd5b6001600160a01b0316600081815260008051602061352d833981519152602052604081205490919060008051602061354d8339815191529060ff1661308357808352600c6020526040832082845260205260408320600160ff198254161790557f2f8788117e7eff1d82e926ec794901d17c78024a50270940304540a733656f0d339380a4600190565b90600091808352600c602052604083209160018060a01b03169182845260205260ff6040842054161560001461308357808352600c6020526040832082845260205260408320600160ff198254161790557f2f8788117e7eff1d82e926ec794901d17c78024a50270940304540a733656f0d339380a4600190565b6000818152600e60205260409020600101546001600160a01b0316330361326c5750565b604051632ed467df60e21b81526004810191909152336024820152604490fd5b600081815260026020908152604080832054909291906001600160a01b039081161515806134a9575b613491578483526002825283832054169182159283158061345e575b8683526002845285832080546001600160a01b031916905586838360008051602061356d8339815191528280a484156133ee575050600954858252600a8352848220819055600160401b8110156133da578561060f8260016133369401600955612c50565b60095460001992838201918211612a6657600a9087845281815261335d8785205493612c50565b90549060031b1c6133718161060f86612c50565b8452528482205584815280848120556009549081156133c6575081019061339782612c50565b909182549160031b1b191690556009556133af575050565b602492505190637e27328960e01b82526004820152fd5b634e487b7160e01b81526031600452602490fd5b634e487b7160e01b82526041600452602482fd5b6133f9575b50613336565b61340281612c81565b8683526008845285832054918352600784528583209181810361343c575b50868352600884528286812055825282528084812055386133f3565b8184528285528684205481855280888620558452600885528684205538613420565b600087815260046020526040902080546001600160a01b03191690558183526003845285832080546000190190556132d1565b83516380e63c5b60e01b815260048101869052602490fd5b50826132b5565b600052601260205260ff604060002054166134e657601460205260406000205480156134e0576013540142101590565b50600090565b600190565b80156134f45750565b60249060405190632d436f5b60e11b82526004820152fdfe414249206465636f64696e673a20696e76616c69642063616c6c646174612061b648ddf3bddf768cd741f6298d8ff7b48ee7bc93e38d035b90b1e0338bc911ce01f18e249044142f95a61b39bad5f99f3c70699c83bb85a1ad87fe9e68bd85d1ddf252ad1be2c89b69c2b068fc378daa952ba7f163c4a11628f55a4df523b3efa26469706673582212204af330aecc7dabf16e69da63d1857513ec0dd76f8bfcab87f30375690d9b10b464736f6c634300081700332f8788117e7eff1d82e926ec794901d17c78024a50270940304540a733656f0d",
  "linkReferences": {},
  "deployedLinkReferences": {}
}